{
  "_format": "hh-sol-artifact-1",
  "contractName": "BaseTierStakingContract",
  "sourceName": "contracts/BaseTierStakingContract.sol",
  "abi": [
    {
      "inputs": [
        {
          "internalType": "uint8",
          "name": "tierId",
          "type": "uint8"
        },
        {
          "internalType": "uint8",
          "name": "multiplier",
          "type": "uint8"
        },
        {
          "internalType": "uint8",
          "name": "emergencyWithdrawlFee",
          "type": "uint8"
        },
        {
          "internalType": "uint8",
          "name": "enableEarlyWithdrawal",
          "type": "uint8"
        },
        {
          "internalType": "uint256",
          "name": "unlockDuration",
          "type": "uint256"
        },
        {
          "internalType": "uint8",
          "name": "enableRewards",
          "type": "uint8"
        },
        {
          "internalType": "address",
          "name": "_depositor",
          "type": "address"
        },
        {
          "internalType": "address",
          "name": "_tokenAddress",
          "type": "address"
        },
        {
          "internalType": "address",
          "name": "_feeAddress",
          "type": "address"
        },
        {
          "internalType": "address",
          "name": "_stakingHelper",
          "type": "address"
        }
      ],
      "stateMutability": "nonpayable",
      "type": "constructor"
    },
    {
      "anonymous": false,
      "inputs": [
        {
          "indexed": true,
          "internalType": "address",
          "name": "previousOwner",
          "type": "address"
        },
        {
          "indexed": true,
          "internalType": "address",
          "name": "newOwner",
          "type": "address"
        }
      ],
      "name": "OwnershipTransferred",
      "type": "event"
    },
    {
      "anonymous": false,
      "inputs": [
        {
          "indexed": false,
          "internalType": "uint256",
          "name": "lockId",
          "type": "uint256"
        },
        {
          "indexed": false,
          "internalType": "address",
          "name": "owner",
          "type": "address"
        },
        {
          "indexed": false,
          "internalType": "uint256",
          "name": "amountInTokens",
          "type": "uint256"
        }
      ],
      "name": "onFeeCharged",
      "type": "event"
    },
    {
      "anonymous": false,
      "inputs": [
        {
          "indexed": false,
          "internalType": "uint256",
          "name": "lockId",
          "type": "uint256"
        },
        {
          "indexed": false,
          "internalType": "address",
          "name": "owner",
          "type": "address"
        },
        {
          "indexed": false,
          "internalType": "uint256",
          "name": "amountInTokens",
          "type": "uint256"
        },
        {
          "indexed": false,
          "internalType": "uint256",
          "name": "iPP",
          "type": "uint256"
        }
      ],
      "name": "onLock",
      "type": "event"
    },
    {
      "anonymous": false,
      "inputs": [
        {
          "indexed": false,
          "internalType": "uint256",
          "name": "lockId",
          "type": "uint256"
        },
        {
          "indexed": false,
          "internalType": "address",
          "name": "owner",
          "type": "address"
        },
        {
          "indexed": false,
          "internalType": "uint256",
          "name": "amountInTokens",
          "type": "uint256"
        },
        {
          "indexed": false,
          "internalType": "uint256",
          "name": "tierId",
          "type": "uint256"
        }
      ],
      "name": "onLockUpdated",
      "type": "event"
    },
    {
      "anonymous": false,
      "inputs": [
        {
          "indexed": false,
          "internalType": "uint256",
          "name": "lockId",
          "type": "uint256"
        },
        {
          "indexed": false,
          "internalType": "address",
          "name": "owner",
          "type": "address"
        },
        {
          "indexed": false,
          "internalType": "uint256",
          "name": "amount",
          "type": "uint256"
        },
        {
          "indexed": false,
          "internalType": "uint256",
          "name": "ipp",
          "type": "uint256"
        },
        {
          "indexed": false,
          "internalType": "uint256",
          "name": "unlockTime",
          "type": "uint256"
        },
        {
          "indexed": false,
          "internalType": "uint256",
          "name": "lockTime",
          "type": "uint256"
        }
      ],
      "name": "onMigrate",
      "type": "event"
    },
    {
      "anonymous": false,
      "inputs": [
        {
          "indexed": false,
          "internalType": "uint256",
          "name": "lockId",
          "type": "uint256"
        },
        {
          "indexed": false,
          "internalType": "address",
          "name": "owner",
          "type": "address"
        },
        {
          "indexed": false,
          "internalType": "uint256",
          "name": "amountInTokens",
          "type": "uint256"
        }
      ],
      "name": "onWithdraw",
      "type": "event"
    },
    {
      "inputs": [],
      "name": "CONFIG",
      "outputs": [
        {
          "internalType": "uint8",
          "name": "tierId",
          "type": "uint8"
        },
        {
          "internalType": "uint8",
          "name": "multiplier",
          "type": "uint8"
        },
        {
          "internalType": "uint8",
          "name": "emergencyWithdrawlFee",
          "type": "uint8"
        },
        {
          "internalType": "uint8",
          "name": "enableEarlyWithdrawal",
          "type": "uint8"
        },
        {
          "internalType": "uint8",
          "name": "enableRewards",
          "type": "uint8"
        },
        {
          "internalType": "uint256",
          "name": "unlockDuration",
          "type": "uint256"
        },
        {
          "internalType": "address",
          "name": "depositor",
          "type": "address"
        },
        {
          "internalType": "address",
          "name": "feeAddress",
          "type": "address"
        },
        {
          "internalType": "address",
          "name": "stakingHelper",
          "type": "address"
        }
      ],
      "stateMutability": "view",
      "type": "function"
    },
    {
      "inputs": [],
      "name": "CONTRACT_VERSION",
      "outputs": [
        {
          "internalType": "uint256",
          "name": "",
          "type": "uint256"
        }
      ],
      "stateMutability": "view",
      "type": "function"
    },
    {
      "inputs": [
        {
          "internalType": "uint256",
          "name": "",
          "type": "uint256"
        }
      ],
      "name": "LOCKS",
      "outputs": [
        {
          "internalType": "uint256",
          "name": "lockId",
          "type": "uint256"
        },
        {
          "internalType": "address",
          "name": "owner",
          "type": "address"
        },
        {
          "internalType": "uint256",
          "name": "amount",
          "type": "uint256"
        },
        {
          "internalType": "uint256",
          "name": "iPP",
          "type": "uint256"
        },
        {
          "internalType": "uint256",
          "name": "unlockTime",
          "type": "uint256"
        },
        {
          "internalType": "uint256",
          "name": "lockTime",
          "type": "uint256"
        }
      ],
      "stateMutability": "view",
      "type": "function"
    },
    {
      "inputs": [],
      "name": "MIGRATOR",
      "outputs": [
        {
          "internalType": "contract IMigrator",
          "name": "",
          "type": "address"
        }
      ],
      "stateMutability": "view",
      "type": "function"
    },
    {
      "inputs": [],
      "name": "MINIMUM_DEPOSIT",
      "outputs": [
        {
          "internalType": "uint256",
          "name": "",
          "type": "uint256"
        }
      ],
      "stateMutability": "view",
      "type": "function"
    },
    {
      "inputs": [],
      "name": "NONCE",
      "outputs": [
        {
          "internalType": "uint256",
          "name": "",
          "type": "uint256"
        }
      ],
      "stateMutability": "view",
      "type": "function"
    },
    {
      "inputs": [
        {
          "internalType": "address",
          "name": "",
          "type": "address"
        },
        {
          "internalType": "uint256",
          "name": "",
          "type": "uint256"
        }
      ],
      "name": "USER_LOCKS",
      "outputs": [
        {
          "internalType": "uint256",
          "name": "",
          "type": "uint256"
        }
      ],
      "stateMutability": "view",
      "type": "function"
    },
    {
      "inputs": [
        {
          "internalType": "uint8",
          "name": "tierId",
          "type": "uint8"
        },
        {
          "internalType": "uint8",
          "name": "multiplier",
          "type": "uint8"
        },
        {
          "internalType": "uint8",
          "name": "emergencyWithdrawlFee",
          "type": "uint8"
        },
        {
          "internalType": "uint8",
          "name": "enableEarlyWithdrawal",
          "type": "uint8"
        },
        {
          "internalType": "uint256",
          "name": "unlockDuration",
          "type": "uint256"
        },
        {
          "internalType": "uint8",
          "name": "enableRewards",
          "type": "uint8"
        },
        {
          "internalType": "address",
          "name": "depositor",
          "type": "address"
        },
        {
          "internalType": "address",
          "name": "feeAddress",
          "type": "address"
        }
      ],
      "name": "changeConfig",
      "outputs": [
        {
          "internalType": "bool",
          "name": "",
          "type": "bool"
        }
      ],
      "stateMutability": "nonpayable",
      "type": "function"
    },
    {
      "inputs": [
        {
          "internalType": "uint8",
          "name": "_enableEarlyWithdrawal",
          "type": "uint8"
        }
      ],
      "name": "changeEarlyWithdrawl",
      "outputs": [],
      "stateMutability": "nonpayable",
      "type": "function"
    },
    {
      "inputs": [
        {
          "internalType": "uint8",
          "name": "_unlockDuration",
          "type": "uint8"
        }
      ],
      "name": "changeUnlockDuration",
      "outputs": [],
      "stateMutability": "nonpayable",
      "type": "function"
    },
    {
      "inputs": [
        {
          "internalType": "uint256",
          "name": "_index",
          "type": "uint256"
        }
      ],
      "name": "getLockedUserAt",
      "outputs": [
        {
          "internalType": "address",
          "name": "",
          "type": "address"
        }
      ],
      "stateMutability": "view",
      "type": "function"
    },
    {
      "inputs": [],
      "name": "getLockedUsersLength",
      "outputs": [
        {
          "internalType": "uint256",
          "name": "",
          "type": "uint256"
        }
      ],
      "stateMutability": "view",
      "type": "function"
    },
    {
      "inputs": [
        {
          "internalType": "uint256",
          "name": "_index",
          "type": "uint256"
        }
      ],
      "name": "getMigratorAt",
      "outputs": [
        {
          "internalType": "address",
          "name": "",
          "type": "address"
        }
      ],
      "stateMutability": "view",
      "type": "function"
    },
    {
      "inputs": [],
      "name": "getMigratorsLength",
      "outputs": [
        {
          "internalType": "uint256",
          "name": "",
          "type": "uint256"
        }
      ],
      "stateMutability": "view",
      "type": "function"
    },
    {
      "inputs": [
        {
          "internalType": "address",
          "name": "_user",
          "type": "address"
        }
      ],
      "name": "getPoolPercentagesWithUser",
      "outputs": [
        {
          "internalType": "uint256",
          "name": "",
          "type": "uint256"
        },
        {
          "internalType": "uint256",
          "name": "",
          "type": "uint256"
        }
      ],
      "stateMutability": "view",
      "type": "function"
    },
    {
      "inputs": [
        {
          "internalType": "address",
          "name": "_user",
          "type": "address"
        }
      ],
      "name": "getUserLocksLength",
      "outputs": [
        {
          "internalType": "uint256",
          "name": "",
          "type": "uint256"
        }
      ],
      "stateMutability": "view",
      "type": "function"
    },
    {
      "inputs": [
        {
          "components": [
            {
              "internalType": "address payable",
              "name": "owner",
              "type": "address"
            },
            {
              "internalType": "uint256",
              "name": "amount",
              "type": "uint256"
            }
          ],
          "internalType": "struct BaseTierStakingContract.LockParams[]",
          "name": "_lock_params",
          "type": "tuple[]"
        }
      ],
      "name": "lock",
      "outputs": [],
      "stateMutability": "nonpayable",
      "type": "function"
    },
    {
      "inputs": [
        {
          "internalType": "uint256",
          "name": "lockId",
          "type": "uint256"
        },
        {
          "internalType": "address",
          "name": "owner",
          "type": "address"
        },
        {
          "internalType": "uint256",
          "name": "amount",
          "type": "uint256"
        },
        {
          "internalType": "uint256",
          "name": "ipp",
          "type": "uint256"
        },
        {
          "internalType": "uint256",
          "name": "unlockTime",
          "type": "uint256"
        },
        {
          "internalType": "uint256",
          "name": "lockTime",
          "type": "uint256"
        }
      ],
      "name": "migrate",
      "outputs": [
        {
          "internalType": "bool",
          "name": "",
          "type": "bool"
        }
      ],
      "stateMutability": "nonpayable",
      "type": "function"
    },
    {
      "inputs": [
        {
          "internalType": "uint256",
          "name": "_lockId",
          "type": "uint256"
        }
      ],
      "name": "migrateToNewVersion",
      "outputs": [],
      "stateMutability": "nonpayable",
      "type": "function"
    },
    {
      "inputs": [],
      "name": "owner",
      "outputs": [
        {
          "internalType": "address",
          "name": "",
          "type": "address"
        }
      ],
      "stateMutability": "view",
      "type": "function"
    },
    {
      "inputs": [],
      "name": "renounceOwnership",
      "outputs": [],
      "stateMutability": "nonpayable",
      "type": "function"
    },
    {
      "inputs": [
        {
          "internalType": "address",
          "name": "_depositor",
          "type": "address"
        }
      ],
      "name": "setDepositor",
      "outputs": [],
      "stateMutability": "nonpayable",
      "type": "function"
    },
    {
      "inputs": [
        {
          "internalType": "contract IMigrator",
          "name": "_migrator",
          "type": "address"
        }
      ],
      "name": "setMigrator",
      "outputs": [],
      "stateMutability": "nonpayable",
      "type": "function"
    },
    {
      "inputs": [
        {
          "internalType": "address",
          "name": "_stakingHelper",
          "type": "address"
        }
      ],
      "name": "setStakingHelper",
      "outputs": [],
      "stateMutability": "nonpayable",
      "type": "function"
    },
    {
      "inputs": [
        {
          "internalType": "address payable",
          "name": "_owner",
          "type": "address"
        },
        {
          "internalType": "uint256",
          "name": "_amount",
          "type": "uint256"
        }
      ],
      "name": "singleLock",
      "outputs": [],
      "stateMutability": "nonpayable",
      "type": "function"
    },
    {
      "inputs": [],
      "name": "tierTotalParticipationPoints",
      "outputs": [
        {
          "internalType": "uint256",
          "name": "",
          "type": "uint256"
        }
      ],
      "stateMutability": "view",
      "type": "function"
    },
    {
      "inputs": [
        {
          "internalType": "address",
          "name": "_migrator",
          "type": "address"
        },
        {
          "internalType": "uint8",
          "name": "add",
          "type": "uint8"
        }
      ],
      "name": "toggleMigrator",
      "outputs": [],
      "stateMutability": "nonpayable",
      "type": "function"
    },
    {
      "inputs": [],
      "name": "tokenAddress",
      "outputs": [
        {
          "internalType": "address",
          "name": "",
          "type": "address"
        }
      ],
      "stateMutability": "view",
      "type": "function"
    },
    {
      "inputs": [
        {
          "internalType": "address",
          "name": "newOwner",
          "type": "address"
        }
      ],
      "name": "transferOwnership",
      "outputs": [],
      "stateMutability": "nonpayable",
      "type": "function"
    },
    {
      "inputs": [
        {
          "internalType": "uint256",
          "name": "_lockId",
          "type": "uint256"
        },
        {
          "internalType": "uint256",
          "name": "_index",
          "type": "uint256"
        },
        {
          "internalType": "uint256",
          "name": "_amount",
          "type": "uint256"
        }
      ],
      "name": "withdraw",
      "outputs": [],
      "stateMutability": "nonpayable",
      "type": "function"
    }
  ],
  "bytecode": "0x608060405260016002556001600855683635c9adc5dea000006009553480156200002857600080fd5b50604051620052783803806200527883398181016040528101906200004e91906200030f565b600062000060620002c260201b60201c565b9050806000806101000a81548173ffffffffffffffffffffffffffffffffffffffff021916908373ffffffffffffffffffffffffffffffffffffffff1602179055508073ffffffffffffffffffffffffffffffffffffffff16600073ffffffffffffffffffffffffffffffffffffffff167f8be0079c531659141344cd1fd0a4f28419497f9722a3daafe3b4186f6b6457e060405160405180910390a3506001808190555082600a60006101000a81548173ffffffffffffffffffffffffffffffffffffffff021916908373ffffffffffffffffffffffffffffffffffffffff16021790555089600b60000160006101000a81548160ff021916908360ff16021790555088600b60000160016101000a81548160ff021916908360ff16021790555087600b60000160026101000a81548160ff021916908360ff16021790555085600b6001018190555086600b60000160036101000a81548160ff021916908360ff16021790555083600b60020160006101000a81548173ffffffffffffffffffffffffffffffffffffffff021916908373ffffffffffffffffffffffffffffffffffffffff16021790555080600b60040160006101000a81548173ffffffffffffffffffffffffffffffffffffffff021916908373ffffffffffffffffffffffffffffffffffffffff16021790555081600b60030160006101000a81548173ffffffffffffffffffffffffffffffffffffffff021916908373ffffffffffffffffffffffffffffffffffffffff16021790555084600b60000160046101000a81548160ff021916908360ff1602179055505050505050505050505062000498565b600033905090565b600081519050620002db816200044a565b92915050565b600081519050620002f28162000464565b92915050565b60008151905062000309816200047e565b92915050565b6000806000806000806000806000806101408b8d0312156200033057600080fd5b6000620003408d828e01620002f8565b9a50506020620003538d828e01620002f8565b9950506040620003668d828e01620002f8565b9850506060620003798d828e01620002f8565b97505060806200038c8d828e01620002e1565b96505060a06200039f8d828e01620002f8565b95505060c0620003b28d828e01620002ca565b94505060e0620003c58d828e01620002ca565b935050610100620003d98d828e01620002ca565b925050610120620003ed8d828e01620002ca565b9150509295989b9194979a5092959850565b60006200040c8262000413565b9050919050565b600073ffffffffffffffffffffffffffffffffffffffff82169050919050565b6000819050919050565b600060ff82169050919050565b6200045581620003ff565b81146200046157600080fd5b50565b6200046f8162000433565b81146200047b57600080fd5b50565b62000489816200043d565b81146200049557600080fd5b50565b614dd080620004a86000396000f3fe608060405234801561001057600080fd5b50600436106101da5760003560e01c80639ecd747211610104578063e091dd1a116100a2578063f2c098b711610071578063f2c098b714610551578063f2fde38b1461056d578063f99c801514610589578063fb67e12a146105a7576101da565b8063e091dd1a146104c9578063e8c57817146104e7578063ed18fb7a14610517578063f19451d814610533576101da565b8063cf0d5af3116100de578063cf0d5af314610422578063d117eed714610457578063d92e82e414610487578063dae30749146104ad576101da565b80639ecd7472146103cc578063a41fe49f146103ea578063cbb1ef3514610406576101da565b8063416d848c1161017c5780638d85bb501161014b5780638d85bb50146103425780638da5cb5b14610372578063998910e5146103905780639d76ea58146103ae576101da565b8063416d848c146102b95780635491b804146102e9578063715018a61461031a5780638a34249d14610324576101da565b806329878e5c116101b857806329878e5c1461023357806338b903331461024f5780633b37c4701461026d5780634038702414610289576101da565b80631d7f64d9146101df5780631e3e1519146101fb57806323cf311814610217575b600080fd5b6101f960048036038101906101f4919061372c565b6105d7565b005b61021560048036038101906102109190613755565b61069a565b005b610231600480360381019061022c9190613873565b61079d565b005b61024d600480360381019061024891906137cd565b61085d565b005b610257610919565b6040516102649190614339565b60405180910390f35b61028760048036038101906102829190613809565b61091f565b005b6102a3600480360381019061029e919061389c565b61092b565b6040516102b09190613f08565b60405180910390f35b6102d360048036038101906102ce919061389c565b610948565b6040516102e09190613f08565b60405180910390f35b61030360048036038101906102fe919061372c565b610965565b604051610311929190614431565b60405180910390f35b61032261097a565b005b61032c610ab4565b6040516103399190614339565b60405180910390f35b61035c6004803603810190610357919061372c565b610ac5565b6040516103699190614339565b60405180910390f35b61037a610b11565b6040516103879190613f08565b60405180910390f35b610398610b3a565b6040516103a59190614339565b60405180910390f35b6103b6610b4b565b6040516103c39190613f08565b60405180910390f35b6103d4610b71565b6040516103e19190613f9e565b60405180910390f35b61040460048036038101906103ff9190613977565b610b97565b005b610420600480360381019061041b919061389c565b6112aa565b005b61043c6004803603810190610437919061389c565b611767565b60405161044e969594939291906143d0565b60405180910390f35b610471600480360381019061046c91906138ee565b6117c3565b60405161047e9190613f83565b60405180910390f35b61048f611dce565b6040516104a49998979695949392919061445a565b60405180910390f35b6104c760048036038101906104c291906139c6565b611eab565b005b6104d1611f48565b6040516104de9190614339565b60405180910390f35b61050160048036038101906104fc91906139ef565b611f4e565b60405161050e9190613f83565b60405180910390f35b610531600480360381019061052c91906139c6565b612104565b005b61053b612190565b6040516105489190614339565b60405180910390f35b61056b6004803603810190610566919061372c565b612196565b005b6105876004803603810190610582919061372c565b612259565b005b610591612402565b60405161059e9190614339565b60405180910390f35b6105c160048036038101906105bc9190613791565b612408565b6040516105ce9190614339565b60405180910390f35b6105df612439565b73ffffffffffffffffffffffffffffffffffffffff166105fd610b11565b73ffffffffffffffffffffffffffffffffffffffff1614610653576040517f08c379a000000000000000000000000000000000000000000000000000000000815260040161064a906141f9565b60405180910390fd5b80600b60040160006101000a81548173ffffffffffffffffffffffffffffffffffffffff021916908373ffffffffffffffffffffffffffffffffffffffff16021790555050565b600060405180604001604052808473ffffffffffffffffffffffffffffffffffffffff1681526020018381525090506000600167ffffffffffffffff81111561070c577f4e487b7100000000000000000000000000000000000000000000000000000000600052604160045260246000fd5b60405190808252806020026020018201604052801561074557816020015b61073261353b565b81526020019060019003908161072a5790505b5090508181600081518110610783577f4e487b7100000000000000000000000000000000000000000000000000000000600052603260045260246000fd5b602002602001018190525061079781612441565b50505050565b6107a5612439565b73ffffffffffffffffffffffffffffffffffffffff166107c3610b11565b73ffffffffffffffffffffffffffffffffffffffff1614610819576040517f08c379a0000000000000000000000000000000000000000000000000000000008152600401610810906141f9565b60405180910390fd5b80601260006101000a81548173ffffffffffffffffffffffffffffffffffffffff021916908373ffffffffffffffffffffffffffffffffffffffff16021790555050565b610865612439565b73ffffffffffffffffffffffffffffffffffffffff16610883610b11565b73ffffffffffffffffffffffffffffffffffffffff16146108d9576040517f08c379a00000000000000000000000000000000000000000000000000000000081526004016108d0906141f9565b60405180910390fd5b60018160ff1614156108ff576108f9826005612bf590919063ffffffff16565b50610915565b610913826005612c2590919063ffffffff16565b505b5050565b60025481565b61092881612441565b50565b6000610941826003612c5590919063ffffffff16565b9050919050565b600061095e826005612c5590919063ffffffff16565b9050919050565b60008061097183612c6f565b91509150915091565b610982612439565b73ffffffffffffffffffffffffffffffffffffffff166109a0610b11565b73ffffffffffffffffffffffffffffffffffffffff16146109f6576040517f08c379a00000000000000000000000000000000000000000000000000000000081526004016109ed906141f9565b60405180910390fd5b600073ffffffffffffffffffffffffffffffffffffffff1660008054906101000a900473ffffffffffffffffffffffffffffffffffffffff1673ffffffffffffffffffffffffffffffffffffffff167f8be0079c531659141344cd1fd0a4f28419497f9722a3daafe3b4186f6b6457e060405160405180910390a360008060006101000a81548173ffffffffffffffffffffffffffffffffffffffff021916908373ffffffffffffffffffffffffffffffffffffffff160217905550565b6000610ac06005612d8d565b905090565b6000601160008373ffffffffffffffffffffffffffffffffffffffff1673ffffffffffffffffffffffffffffffffffffffff168152602001908152602001600020805490509050919050565b60008060009054906101000a900473ffffffffffffffffffffffffffffffffffffffff16905090565b6000610b466003612d8d565b905090565b600a60009054906101000a900473ffffffffffffffffffffffffffffffffffffffff1681565b601260009054906101000a900473ffffffffffffffffffffffffffffffffffffffff1681565b60026001541415610bdd576040517f08c379a0000000000000000000000000000000000000000000000000000000008152600401610bd4906142f9565b60405180910390fd5b6002600181905550600b60040160009054906101000a900473ffffffffffffffffffffffffffffffffffffffff1673ffffffffffffffffffffffffffffffffffffffff16638731725e6040518163ffffffff1660e01b815260040160206040518083038186803b158015610c5057600080fd5b505afa158015610c64573d6000803e3d6000fd5b505050506040513d601f19601f82011682018060405250810190610c88919061384a565b610cc7576040517f08c379a0000000000000000000000000000000000000000000000000000000008152600401610cbe90614299565b60405180910390fd5b6000601060008581526020019081526020016000209050428160040154111580610d0657506001600b60000160039054906101000a900460ff1660ff16145b610d45576040517f08c379a0000000000000000000000000000000000000000000000000000000008152600401610d3c90614059565b60405180910390fd5b82601160003373ffffffffffffffffffffffffffffffffffffffff1673ffffffffffffffffffffffffffffffffffffffff1681526020019081526020016000208054905011610dc9576040517f08c379a0000000000000000000000000000000000000000000000000000000008152600401610dc090614079565b60405180910390fd5b83601160003373ffffffffffffffffffffffffffffffffffffffff1673ffffffffffffffffffffffffffffffffffffffff1681526020019081526020016000208481548110610e41577f4e487b7100000000000000000000000000000000000000000000000000000000600052603260045260246000fd5b906000526020600020015414610e8c576040517f08c379a0000000000000000000000000000000000000000000000000000000008152600401610e8390614239565b60405180910390fd5b3373ffffffffffffffffffffffffffffffffffffffff168160010160009054906101000a900473ffffffffffffffffffffffffffffffffffffffff1673ffffffffffffffffffffffffffffffffffffffff1614610f1e576040517f08c379a0000000000000000000000000000000000000000000000000000000008152600401610f1590614119565b60405180910390fd5b6000600a60009054906101000a900473ffffffffffffffffffffffffffffffffffffffff1673ffffffffffffffffffffffffffffffffffffffff166370a08231306040518263ffffffff1660e01b8152600401610f7b9190613f08565b60206040518083038186803b158015610f9357600080fd5b505afa158015610fa7573d6000803e3d6000fd5b505050506040513d601f19601f82011682018060405250810190610fcb91906138c5565b90506000601060008781526020019081526020016000206002015490506000811161102b576040517f08c379a000000000000000000000000000000000000000000000000000000000815260040161102290614099565b60405180910390fd5b8084111561106e576040517f08c379a0000000000000000000000000000000000000000000000000000000008152600401611065906142b9565b60405180910390fd5b818411156110b1576040517f08c379a00000000000000000000000000000000000000000000000000000000081526004016110a8906141d9565b60405180910390fd5b83816110bd919061460f565b60106000888152602001908152602001600020600201819055506000600b60000160019054906101000a900460ff1660ff16856110fa91906145b5565b9050806007600082825461110e919061460f565b925050819055508060106000898152602001908152602001600020600301600082825461113b919061460f565b9250508190555042846004015411801561116a57506000600b60000160029054906101000a900460ff1660ff16115b1561123257600061119386600b60000160029054906101000a900460ff1660ff166103e8612da2565b90506111e7600a60009054906101000a900473ffffffffffffffffffffffffffffffffffffffff16600b60030160009054906101000a900473ffffffffffffffffffffffffffffffffffffffff1683612e9e565b80866111f3919061460f565b95507fcf9cbb4d6b0f2e9b4c33906691d001c23980dccca431d218f2966e64d767bcb888338360405161122893929190614354565b60405180910390a1505b61125f600a60009054906101000a900473ffffffffffffffffffffffffffffffffffffffff163387612e9e565b7fffb7a058f3489b3f4215d0517dd9bd49ccec359af5bf041d75894d2cb84385ca87338760405161129293929190614354565b60405180910390a15050505060018081905550505050565b600260015414156112f0576040517f08c379a00000000000000000000000000000000000000000000000000000000081526004016112e7906142f9565b60405180910390fd5b6002600181905550600073ffffffffffffffffffffffffffffffffffffffff16601260009054906101000a900473ffffffffffffffffffffffffffffffffffffffff1673ffffffffffffffffffffffffffffffffffffffff16141561138a576040517f08c379a0000000000000000000000000000000000000000000000000000000008152600401611381906140f9565b60405180910390fd5b60006010600083815260200190815260200160002090503373ffffffffffffffffffffffffffffffffffffffff168160010160009054906101000a900473ffffffffffffffffffffffffffffffffffffffff1673ffffffffffffffffffffffffffffffffffffffff1614611433576040517f08c379a000000000000000000000000000000000000000000000000000000000815260040161142a90614119565b60405180910390fd5b6000816002015490506000811161147f576040517f08c379a000000000000000000000000000000000000000000000000000000000815260040161147690613ff9565b60405180910390fd5b6000600a60009054906101000a900473ffffffffffffffffffffffffffffffffffffffff1673ffffffffffffffffffffffffffffffffffffffff166370a08231306040518263ffffffff1660e01b81526004016114dc9190613f08565b60206040518083038186803b1580156114f457600080fd5b505afa158015611508573d6000803e3d6000fd5b505050506040513d601f19601f8201168201806040525081019061152c91906138c5565b905080821115611571576040517f08c379a0000000000000000000000000000000000000000000000000000000008152600401611568906141d9565b60405180910390fd5b6115c0600a60009054906101000a900473ffffffffffffffffffffffffffffffffffffffff16601260009054906101000a900473ffffffffffffffffffffffffffffffffffffffff1684612fd4565b601260009054906101000a900473ffffffffffffffffffffffffffffffffffffffff1673ffffffffffffffffffffffffffffffffffffffff1663d117eed784600001548560010160009054906101000a900473ffffffffffffffffffffffffffffffffffffffff1686600201548760030154886004015489600501546040518763ffffffff1660e01b815260040161165d969594939291906143d0565b602060405180830381600087803b15801561167757600080fd5b505af115801561168b573d6000803e3d6000fd5b505050506040513d601f19601f820116820180604052508101906116af919061384a565b507fb49be7e93a82b18e6cba4d224eba6c19aa72f3f07ce29beea3ca6788b8dbd15383600001548460010160009054906101000a900473ffffffffffffffffffffffffffffffffffffffff168560020154866003015487600401548860050154604051611721969594939291906143d0565b60405180910390a160008360020181905550826003015460076000828254611749919061460f565b92505081905550600083600301819055505050506001808190555050565b60106020528060005260406000206000915090508060000154908060010160009054906101000a900473ffffffffffffffffffffffffffffffffffffffff16908060020154908060030154908060040154908060050154905086565b60006117d933600561310a90919063ffffffff16565b611818576040517f08c379a000000000000000000000000000000000000000000000000000000000815260040161180f90614139565b60405180910390fd5b6000871161185b576040517f08c379a000000000000000000000000000000000000000000000000000000000815260040161185290614179565b60405180910390fd5b600073ffffffffffffffffffffffffffffffffffffffff168673ffffffffffffffffffffffffffffffffffffffff1614156118cb576040517f08c379a00000000000000000000000000000000000000000000000000000000081526004016118c2906140d9565b60405180910390fd5b6000851161190e576040517f08c379a000000000000000000000000000000000000000000000000000000000815260040161190590613ff9565b60405180910390fd5b60008311611951576040517f08c379a000000000000000000000000000000000000000000000000000000000815260040161194890614019565b60405180910390fd5b60008211611994576040517f08c379a000000000000000000000000000000000000000000000000000000000815260040161198b90614219565b60405180910390fd5b6000600a60009054906101000a900473ffffffffffffffffffffffffffffffffffffffff1673ffffffffffffffffffffffffffffffffffffffff166370a08231306040518263ffffffff1660e01b81526004016119f19190613f08565b60206040518083038186803b158015611a0957600080fd5b505afa158015611a1d573d6000803e3d6000fd5b505050506040513d601f19601f82011682018060405250810190611a4191906138c5565b9050611a71600a60009054906101000a900473ffffffffffffffffffffffffffffffffffffffff1633308961313a565b600081600a60009054906101000a900473ffffffffffffffffffffffffffffffffffffffff1673ffffffffffffffffffffffffffffffffffffffff166370a08231306040518263ffffffff1660e01b8152600401611acf9190613f08565b60206040518083038186803b158015611ae757600080fd5b505afa158015611afb573d6000803e3d6000fd5b505050506040513d601f19601f82011682018060405250810190611b1f91906138c5565b611b29919061460f565b9050868114611b6d576040517f08c379a0000000000000000000000000000000000000000000000000000000008152600401611b6490614159565b60405180910390fd5b600954871015611bb2576040517f08c379a0000000000000000000000000000000000000000000000000000000008152600401611ba9906141b9565b60405180910390fd5b611bba61356b565b60085481600001818152505088816020019073ffffffffffffffffffffffffffffffffffffffff16908173ffffffffffffffffffffffffffffffffffffffff1681525050611c12896003612bf590919063ffffffff16565b5087816040018181525050848160a00181815250508581608001818152505086816060018181525050806010600060085481526020019081526020016000206000820151816000015560208201518160010160006101000a81548173ffffffffffffffffffffffffffffffffffffffff021916908373ffffffffffffffffffffffffffffffffffffffff16021790555060408201518160020155606082015181600301556080820151816004015560a08201518160050155905050806060015160076000828254611ce3919061455f565b9250508190555060116000826020015173ffffffffffffffffffffffffffffffffffffffff1673ffffffffffffffffffffffffffffffffffffffff1681526020019081526020016000208160000151908060018154018082558091505060019003906000526020600020016000909190919091505560086000815480929190611d6b90614744565b91905055507f6337427d37645be57e8273f668c9fce8964bc71afd738d87ce6d14bf85258bec8160000151826020015183604001518460600151604051611db5949392919061438b565b60405180910390a1600193505050509695505050505050565b600b8060000160009054906101000a900460ff16908060000160019054906101000a900460ff16908060000160029054906101000a900460ff16908060000160039054906101000a900460ff16908060000160049054906101000a900460ff16908060010154908060020160009054906101000a900473ffffffffffffffffffffffffffffffffffffffff16908060030160009054906101000a900473ffffffffffffffffffffffffffffffffffffffff16908060040160009054906101000a900473ffffffffffffffffffffffffffffffffffffffff16905089565b611eb3612439565b73ffffffffffffffffffffffffffffffffffffffff16611ed1610b11565b73ffffffffffffffffffffffffffffffffffffffff1614611f27576040517f08c379a0000000000000000000000000000000000000000000000000000000008152600401611f1e906141f9565b60405180910390fd5b80600b60000160036101000a81548160ff021916908360ff16021790555050565b60085481565b6000611f58612439565b73ffffffffffffffffffffffffffffffffffffffff16611f76610b11565b73ffffffffffffffffffffffffffffffffffffffff1614611fcc576040517f08c379a0000000000000000000000000000000000000000000000000000000008152600401611fc3906141f9565b60405180910390fd5b88600b60000160006101000a81548160ff021916908360ff16021790555087600b60000160016101000a81548160ff021916908360ff16021790555086600b60000160026101000a81548160ff021916908360ff16021790555085600b60000160036101000a81548160ff021916908360ff16021790555084600b6001018190555082600b60020160006101000a81548173ffffffffffffffffffffffffffffffffffffffff021916908373ffffffffffffffffffffffffffffffffffffffff16021790555081600b60030160006101000a81548173ffffffffffffffffffffffffffffffffffffffff021916908373ffffffffffffffffffffffffffffffffffffffff16021790555083600b60000160046101000a81548160ff021916908360ff1602179055506001905098975050505050505050565b61210c612439565b73ffffffffffffffffffffffffffffffffffffffff1661212a610b11565b73ffffffffffffffffffffffffffffffffffffffff1614612180576040517f08c379a0000000000000000000000000000000000000000000000000000000008152600401612177906141f9565b60405180910390fd5b8060ff16600b6001018190555050565b60095481565b61219e612439565b73ffffffffffffffffffffffffffffffffffffffff166121bc610b11565b73ffffffffffffffffffffffffffffffffffffffff1614612212576040517f08c379a0000000000000000000000000000000000000000000000000000000008152600401612209906141f9565b60405180910390fd5b80600b60020160006101000a81548173ffffffffffffffffffffffffffffffffffffffff021916908373ffffffffffffffffffffffffffffffffffffffff16021790555050565b612261612439565b73ffffffffffffffffffffffffffffffffffffffff1661227f610b11565b73ffffffffffffffffffffffffffffffffffffffff16146122d5576040517f08c379a00000000000000000000000000000000000000000000000000000000081526004016122cc906141f9565b60405180910390fd5b600073ffffffffffffffffffffffffffffffffffffffff168173ffffffffffffffffffffffffffffffffffffffff161415612345576040517f08c379a000000000000000000000000000000000000000000000000000000000815260040161233c90614039565b60405180910390fd5b8073ffffffffffffffffffffffffffffffffffffffff1660008054906101000a900473ffffffffffffffffffffffffffffffffffffffff1673ffffffffffffffffffffffffffffffffffffffff167f8be0079c531659141344cd1fd0a4f28419497f9722a3daafe3b4186f6b6457e060405160405180910390a3806000806101000a81548173ffffffffffffffffffffffffffffffffffffffff021916908373ffffffffffffffffffffffffffffffffffffffff16021790555050565b60075481565b6011602052816000526040600020818154811061242457600080fd5b90600052602060002001600091509150505481565b600033905090565b60026001541415612487576040517f08c379a000000000000000000000000000000000000000000000000000000000815260040161247e906142f9565b60405180910390fd5b6002600181905550600b60020160009054906101000a900473ffffffffffffffffffffffffffffffffffffffff1673ffffffffffffffffffffffffffffffffffffffff163373ffffffffffffffffffffffffffffffffffffffff1614612522576040517f08c379a000000000000000000000000000000000000000000000000000000000815260040161251990614319565b60405180910390fd5b6000815111612566576040517f08c379a000000000000000000000000000000000000000000000000000000000815260040161255d90614259565b60405180910390fd5b6000805b825181101561271357600073ffffffffffffffffffffffffffffffffffffffff168382815181106125c4577f4e487b7100000000000000000000000000000000000000000000000000000000600052603260045260246000fd5b60200260200101516000015173ffffffffffffffffffffffffffffffffffffffff161415612627576040517f08c379a000000000000000000000000000000000000000000000000000000000815260040161261e90614279565b60405180910390fd5b6000838281518110612662577f4e487b7100000000000000000000000000000000000000000000000000000000600052603260045260246000fd5b602002602001015160200151116126ae576040517f08c379a00000000000000000000000000000000000000000000000000000000081526004016126a590614199565b60405180910390fd5b8281815181106126e7577f4e487b7100000000000000000000000000000000000000000000000000000000600052603260045260246000fd5b602002602001015160200151826126fe919061455f565b9150808061270b90614744565b91505061256a565b506000600a60009054906101000a900473ffffffffffffffffffffffffffffffffffffffff1673ffffffffffffffffffffffffffffffffffffffff166370a08231306040518263ffffffff1660e01b81526004016127719190613f08565b60206040518083038186803b15801561278957600080fd5b505afa15801561279d573d6000803e3d6000fd5b505050506040513d601f19601f820116820180604052508101906127c191906138c5565b90506127f1600a60009054906101000a900473ffffffffffffffffffffffffffffffffffffffff1633308561313a565b600081600a60009054906101000a900473ffffffffffffffffffffffffffffffffffffffff1673ffffffffffffffffffffffffffffffffffffffff166370a08231306040518263ffffffff1660e01b815260040161284f9190613f08565b60206040518083038186803b15801561286757600080fd5b505afa15801561287b573d6000803e3d6000fd5b505050506040513d601f19601f8201168201806040525081019061289f91906138c5565b6128a9919061460f565b90508281146128ed576040517f08c379a00000000000000000000000000000000000000000000000000000000081526004016128e490614159565b60405180910390fd5b60005b8451811015612be7576000858281518110612934577f4e487b7100000000000000000000000000000000000000000000000000000000600052603260045260246000fd5b6020026020010151905060095481602001511015612987576040517f08c379a000000000000000000000000000000000000000000000000000000000815260040161297e906141b9565b60405180910390fd5b61298f61356b565b6008548160000181815250508160000151816020019073ffffffffffffffffffffffffffffffffffffffff16908173ffffffffffffffffffffffffffffffffffffffff16815250506129ef82600001516003612bf590919063ffffffff16565b508160200151816040018181525050428160a0018181525050600b6001015442612a19919061455f565b816080018181525050600b60000160019054906101000a900460ff1660ff168260200151612a4791906145b5565b816060018181525050806010600060085481526020019081526020016000206000820151816000015560208201518160010160006101000a81548173ffffffffffffffffffffffffffffffffffffffff021916908373ffffffffffffffffffffffffffffffffffffffff16021790555060408201518160020155606082015181600301556080820151816004015560a08201518160050155905050806060015160076000828254612af8919061455f565b9250508190555060116000826020015173ffffffffffffffffffffffffffffffffffffffff1673ffffffffffffffffffffffffffffffffffffffff1681526020019081526020016000208160000151908060018154018082558091505060019003906000526020600020016000909190919091505560086000815480929190612b8090614744565b91905055507f6337427d37645be57e8273f668c9fce8964bc71afd738d87ce6d14bf85258bec8160000151826020015183604001518460600151604051612bca949392919061438b565b60405180910390a150508080612bdf90614744565b9150506128f0565b505050506001808190555050565b6000612c1d836000018373ffffffffffffffffffffffffffffffffffffffff1660001b613273565b905092915050565b6000612c4d836000018373ffffffffffffffffffffffffffffffffffffffff1660001b6132e3565b905092915050565b6000612c64836000018361346d565b60001c905092915050565b6000806000805b601160008673ffffffffffffffffffffffffffffffffffffffff1673ffffffffffffffffffffffffffffffffffffffff16815260200190815260200160002080549050811015612d7e57600060106000601160008973ffffffffffffffffffffffffffffffffffffffff1673ffffffffffffffffffffffffffffffffffffffff1681526020019081526020016000208481548110612d3d577f4e487b7100000000000000000000000000000000000000000000000000000000600052603260045260246000fd5b906000526020600020015481526020019081526020016000209050806003015483612d68919061455f565b9250508080612d7690614744565b915050612c76565b50806007549250925050915091565b6000612d9b82600001613507565b9050919050565b600080600080198587098587029250828110838203039150506000811415612ddd5760008411612dd157600080fd5b83820492505050612e97565b808411612de957600080fd5b60008486880990508281118203915080830392506000856001877fffffffffffffffffffffffffffffffffffffffffffffffffffffffffffffffff0301169050808604955080840493506001818260000304019050808302841793506000600287600302189050808702600203810290508087026002038102905080870260020381029050808702600203810290508087026002038102905080870260020381029050808502955050505050505b9392505050565b6000808473ffffffffffffffffffffffffffffffffffffffff1663a9059cbb8585604051602401612ed0929190613f5a565b6040516020818303038152906040529060e01b6020820180517bffffffffffffffffffffffffffffffffffffffffffffffffffffffff8381831617835250505050604051612f1e9190613ef1565b6000604051808303816000865af19150503d8060008114612f5b576040519150601f19603f3d011682016040523d82523d6000602084013e612f60565b606091505b5091509150818015612f8e5750600081511480612f8d575080806020019051810190612f8c919061384a565b5b5b612fcd576040517f08c379a0000000000000000000000000000000000000000000000000000000008152600401612fc490613fd9565b60405180910390fd5b5050505050565b6000808473ffffffffffffffffffffffffffffffffffffffff1663095ea7b38585604051602401613006929190613f5a565b6040516020818303038152906040529060e01b6020820180517bffffffffffffffffffffffffffffffffffffffffffffffffffffffff83818316178352505050506040516130549190613ef1565b6000604051808303816000865af19150503d8060008114613091576040519150601f19603f3d011682016040523d82523d6000602084013e613096565b606091505b50915091508180156130c457506000815114806130c35750808060200190518101906130c2919061384a565b5b5b613103576040517f08c379a00000000000000000000000000000000000000000000000000000000081526004016130fa906140b9565b60405180910390fd5b5050505050565b6000613132836000018373ffffffffffffffffffffffffffffffffffffffff1660001b613518565b905092915050565b6000808573ffffffffffffffffffffffffffffffffffffffff166323b872dd86868660405160240161316e93929190613f23565b6040516020818303038152906040529060e01b6020820180517bffffffffffffffffffffffffffffffffffffffffffffffffffffffff83818316178352505050506040516131bc9190613ef1565b6000604051808303816000865af19150503d80600081146131f9576040519150601f19603f3d011682016040523d82523d6000602084013e6131fe565b606091505b509150915081801561322c575060008151148061322b57508080602001905181019061322a919061384a565b5b5b61326b576040517f08c379a0000000000000000000000000000000000000000000000000000000008152600401613262906142d9565b60405180910390fd5b505050505050565b600061327f8383613518565b6132d85782600001829080600181540180825580915050600190039060005260206000200160009091909190915055826000018054905083600101600084815260200190815260200160002081905550600190506132dd565b600090505b92915050565b60008083600101600084815260200190815260200160002054905060008114613461576000600182613315919061460f565b905060006001866000018054905061332d919061460f565b9050600086600001828154811061336d577f4e487b7100000000000000000000000000000000000000000000000000000000600052603260045260246000fd5b90600052602060002001549050808760000184815481106133b7577f4e487b7100000000000000000000000000000000000000000000000000000000600052603260045260246000fd5b90600052602060002001819055506001836133d2919061455f565b8760010160008381526020019081526020016000208190555086600001805480613425577f4e487b7100000000000000000000000000000000000000000000000000000000600052603160045260246000fd5b60019003818190600052602060002001600090559055866001016000878152602001908152602001600020600090556001945050505050613467565b60009150505b92915050565b6000818360000180549050116134b8576040517f08c379a00000000000000000000000000000000000000000000000000000000081526004016134af90613fb9565b60405180910390fd5b8260000182815481106134f4577f4e487b7100000000000000000000000000000000000000000000000000000000600052603260045260246000fd5b9060005260206000200154905092915050565b600081600001805490509050919050565b600080836001016000848152602001908152602001600020541415905092915050565b6040518060400160405280600073ffffffffffffffffffffffffffffffffffffffff168152602001600081525090565b6040518060c0016040528060008152602001600073ffffffffffffffffffffffffffffffffffffffff168152602001600081526020016000815260200160008152602001600081525090565b60006135ca6135c58461450c565b6144e7565b905080838252602082019050828560408602820111156135e957600080fd5b60005b8581101561361957816135ff88826136a1565b8452602084019350604083019250506001810190506135ec565b5050509392505050565b60008135905061363281614d10565b92915050565b60008135905061364781614d27565b92915050565b600082601f83011261365e57600080fd5b813561366e8482602086016135b7565b91505092915050565b60008151905061368681614d3e565b92915050565b60008135905061369b81614d55565b92915050565b6000604082840312156136b357600080fd5b6136bd60406144e7565b905060006136cd84828501613638565b60008301525060206136e1848285016136ed565b60208301525092915050565b6000813590506136fc81614d6c565b92915050565b60008151905061371181614d6c565b92915050565b60008135905061372681614d83565b92915050565b60006020828403121561373e57600080fd5b600061374c84828501613623565b91505092915050565b6000806040838503121561376857600080fd5b600061377685828601613638565b9250506020613787858286016136ed565b9150509250929050565b600080604083850312156137a457600080fd5b60006137b285828601613623565b92505060206137c3858286016136ed565b9150509250929050565b600080604083850312156137e057600080fd5b60006137ee85828601613623565b92505060206137ff85828601613717565b9150509250929050565b60006020828403121561381b57600080fd5b600082013567ffffffffffffffff81111561383557600080fd5b6138418482850161364d565b91505092915050565b60006020828403121561385c57600080fd5b600061386a84828501613677565b91505092915050565b60006020828403121561388557600080fd5b60006138938482850161368c565b91505092915050565b6000602082840312156138ae57600080fd5b60006138bc848285016136ed565b91505092915050565b6000602082840312156138d757600080fd5b60006138e584828501613702565b91505092915050565b60008060008060008060c0878903121561390757600080fd5b600061391589828a016136ed565b965050602061392689828a01613623565b955050604061393789828a016136ed565b945050606061394889828a016136ed565b935050608061395989828a016136ed565b92505060a061396a89828a016136ed565b9150509295509295509295565b60008060006060848603121561398c57600080fd5b600061399a868287016136ed565b93505060206139ab868287016136ed565b92505060406139bc868287016136ed565b9150509250925092565b6000602082840312156139d857600080fd5b60006139e684828501613717565b91505092915050565b600080600080600080600080610100898b031215613a0c57600080fd5b6000613a1a8b828c01613717565b9850506020613a2b8b828c01613717565b9750506040613a3c8b828c01613717565b9650506060613a4d8b828c01613717565b9550506080613a5e8b828c016136ed565b94505060a0613a6f8b828c01613717565b93505060c0613a808b828c01613623565b92505060e0613a918b828c01613623565b9150509295985092959890939650565b613aaa81614643565b82525050565b613ab981614667565b82525050565b6000613aca82614538565b613ad48185614543565b9350613ae48185602086016146e0565b80840191505092915050565b613af9816146bc565b82525050565b6000613b0c60228361454e565b9150613b17826147fc565b604082019050919050565b6000613b2f601f8361454e565b9150613b3a8261484b565b602082019050919050565b6000613b5260068361454e565b9150613b5d82614874565b602082019050919050565b6000613b75600a8361454e565b9150613b808261489d565b602082019050919050565b6000613b9860268361454e565b9150613ba3826148c6565b604082019050919050565b6000613bbb601c8361454e565b9150613bc682614915565b602082019050919050565b6000613bde60098361454e565b9150613be98261493e565b602082019050919050565b6000613c0160098361454e565b9150613c0c82614967565b602082019050919050565b6000613c24601e8361454e565b9150613c2f82614990565b602082019050919050565b6000613c4760078361454e565b9150613c52826149b9565b602082019050919050565b6000613c6a60078361454e565b9150613c75826149e2565b602082019050919050565b6000613c8d60058361454e565b9150613c9882614a0b565b602082019050919050565b6000613cb060098361454e565b9150613cbb82614a34565b602082019050919050565b6000613cd360108361454e565b9150613cde82614a5d565b602082019050919050565b6000613cf6600f8361454e565b9150613d0182614a86565b602082019050919050565b6000613d1960068361454e565b9150613d2482614aaf565b602082019050919050565b6000613d3c600b8361454e565b9150613d4782614ad8565b602082019050919050565b6000613d5f60118361454e565b9150613d6a82614b01565b602082019050919050565b6000613d8260208361454e565b9150613d8d82614b2a565b602082019050919050565b6000613da560088361454e565b9150613db082614b53565b602082019050919050565b6000613dc860128361454e565b9150613dd382614b7c565b602082019050919050565b6000613deb60098361454e565b9150613df682614ba5565b602082019050919050565b6000613e0e60078361454e565b9150613e1982614bce565b602082019050919050565b6000613e31600b8361454e565b9150613e3c82614bf7565b602082019050919050565b6000613e54600c8361454e565b9150613e5f82614c20565b602082019050919050565b6000613e7760248361454e565b9150613e8282614c49565b604082019050919050565b6000613e9a601f8361454e565b9150613ea582614c98565b602082019050919050565b6000613ebd60258361454e565b9150613ec882614cc1565b604082019050919050565b613edc816146a5565b82525050565b613eeb816146af565b82525050565b6000613efd8284613abf565b915081905092915050565b6000602082019050613f1d6000830184613aa1565b92915050565b6000606082019050613f386000830186613aa1565b613f456020830185613aa1565b613f526040830184613ed3565b949350505050565b6000604082019050613f6f6000830185613aa1565b613f7c6020830184613ed3565b9392505050565b6000602082019050613f986000830184613ab0565b92915050565b6000602082019050613fb36000830184613af0565b92915050565b60006020820190508181036000830152613fd281613aff565b9050919050565b60006020820190508181036000830152613ff281613b22565b9050919050565b6000602082019050818103600083015261401281613b45565b9050919050565b6000602082019050818103600083015261403281613b68565b9050919050565b6000602082019050818103600083015261405281613b8b565b9050919050565b6000602082019050818103600083015261407281613bae565b9050919050565b6000602082019050818103600083015261409281613bd1565b9050919050565b600060208201905081810360008301526140b281613bf4565b9050919050565b600060208201905081810360008301526140d281613c17565b9050919050565b600060208201905081810360008301526140f281613c3a565b9050919050565b6000602082019050818103600083015261411281613c5d565b9050919050565b6000602082019050818103600083015261413281613c80565b9050919050565b6000602082019050818103600083015261415281613ca3565b9050919050565b6000602082019050818103600083015261417281613cc6565b9050919050565b6000602082019050818103600083015261419281613ce9565b9050919050565b600060208201905081810360008301526141b281613d0c565b9050919050565b600060208201905081810360008301526141d281613d2f565b9050919050565b600060208201905081810360008301526141f281613d52565b9050919050565b6000602082019050818103600083015261421281613d75565b9050919050565b6000602082019050818103600083015261423281613d98565b9050919050565b6000602082019050818103600083015261425281613dbb565b9050919050565b6000602082019050818103600083015261427281613dde565b9050919050565b6000602082019050818103600083015261429281613e01565b9050919050565b600060208201905081810360008301526142b281613e24565b9050919050565b600060208201905081810360008301526142d281613e47565b9050919050565b600060208201905081810360008301526142f281613e6a565b9050919050565b6000602082019050818103600083015261431281613e8d565b9050919050565b6000602082019050818103600083015261433281613eb0565b9050919050565b600060208201905061434e6000830184613ed3565b92915050565b60006060820190506143696000830186613ed3565b6143766020830185613aa1565b6143836040830184613ed3565b949350505050565b60006080820190506143a06000830187613ed3565b6143ad6020830186613aa1565b6143ba6040830185613ed3565b6143c76060830184613ed3565b95945050505050565b600060c0820190506143e56000830189613ed3565b6143f26020830188613aa1565b6143ff6040830187613ed3565b61440c6060830186613ed3565b6144196080830185613ed3565b61442660a0830184613ed3565b979650505050505050565b60006040820190506144466000830185613ed3565b6144536020830184613ed3565b9392505050565b600061012082019050614470600083018c613ee2565b61447d602083018b613ee2565b61448a604083018a613ee2565b6144976060830189613ee2565b6144a46080830188613ee2565b6144b160a0830187613ed3565b6144be60c0830186613aa1565b6144cb60e0830185613aa1565b6144d9610100830184613aa1565b9a9950505050505050505050565b60006144f1614502565b90506144fd8282614713565b919050565b6000604051905090565b600067ffffffffffffffff821115614527576145266147bc565b5b602082029050602081019050919050565b600081519050919050565b600081905092915050565b600082825260208201905092915050565b600061456a826146a5565b9150614575836146a5565b9250827fffffffffffffffffffffffffffffffffffffffffffffffffffffffffffffffff038211156145aa576145a961478d565b5b828201905092915050565b60006145c0826146a5565b91506145cb836146a5565b9250817fffffffffffffffffffffffffffffffffffffffffffffffffffffffffffffffff04831182151516156146045761460361478d565b5b828202905092915050565b600061461a826146a5565b9150614625836146a5565b9250828210156146385761463761478d565b5b828203905092915050565b600061464e82614685565b9050919050565b600061466082614685565b9050919050565b60008115159050919050565b600061467e82614643565b9050919050565b600073ffffffffffffffffffffffffffffffffffffffff82169050919050565b6000819050919050565b600060ff82169050919050565b60006146c7826146ce565b9050919050565b60006146d982614685565b9050919050565b60005b838110156146fe5780820151818401526020810190506146e3565b8381111561470d576000848401525b50505050565b61471c826147eb565b810181811067ffffffffffffffff8211171561473b5761473a6147bc565b5b80604052505050565b600061474f826146a5565b91507fffffffffffffffffffffffffffffffffffffffffffffffffffffffffffffffff8214156147825761478161478d565b5b600182019050919050565b7f4e487b7100000000000000000000000000000000000000000000000000000000600052601160045260246000fd5b7f4e487b7100000000000000000000000000000000000000000000000000000000600052604160045260246000fd5b6000601f19601f8301169050919050565b7f456e756d657261626c655365743a20696e646578206f7574206f6620626f756e60008201527f6473000000000000000000000000000000000000000000000000000000000000602082015250565b7f5472616e7366657248656c7065723a205452414e534645525f4641494c454400600082015250565b7f414d4f554e540000000000000000000000000000000000000000000000000000600082015250565b7f756e6c6f636b54696d6500000000000000000000000000000000000000000000600082015250565b7f4f776e61626c653a206e6577206f776e657220697320746865207a65726f206160008201527f6464726573730000000000000000000000000000000000000000000000000000602082015250565b7f4561726c79207769746864726177616c2069732064697361626c656400000000600082015250565b7f496e646578204f4f420000000000000000000000000000000000000000000000600082015250565b7f4e4f20544f4b454e530000000000000000000000000000000000000000000000600082015250565b7f5472616e7366657248656c7065723a20415050524f56455f4641494c45440000600082015250565b7f4144445245535300000000000000000000000000000000000000000000000000600082015250565b7f4e4f542053455400000000000000000000000000000000000000000000000000600082015250565b7f4f574e4552000000000000000000000000000000000000000000000000000000600082015250565b7f464f5242494444454e0000000000000000000000000000000000000000000000600082015250565b7f4e4f5420454e4f55474820544f4b454e00000000000000000000000000000000600082015250565b7f504f534954495645204c4f434b49440000000000000000000000000000000000600082015250565b7f4e6f20414d540000000000000000000000000000000000000000000000000000600082015250565b7f4d494e204445504f534954000000000000000000000000000000000000000000600082015250565b7f4e4f5420454e4f55474820544f4b454e53000000000000000000000000000000600082015250565b7f4f776e61626c653a2063616c6c6572206973206e6f7420746865206f776e6572600082015250565b7f6c6f636b54696d65000000000000000000000000000000000000000000000000600082015250565b7f6c6f636b4964204e4f54204d4154434845440000000000000000000000000000600082015250565b7f4e4f20504152414d530000000000000000000000000000000000000000000000600082015250565b7f4e6f204144445200000000000000000000000000000000000000000000000000600082015250565b7f4e4f5420414c4c4f574544000000000000000000000000000000000000000000600082015250565b7f414d4f554e543c57414d4e540000000000000000000000000000000000000000600082015250565b7f5472616e7366657248656c7065723a205452414e534645525f46524f4d5f464160008201527f494c454400000000000000000000000000000000000000000000000000000000602082015250565b7f5265656e7472616e637947756172643a207265656e7472616e742063616c6c00600082015250565b7f4f6e6c79206465706f7369746f722063616e2063616c6c20746869732066756e60008201527f6374696f6e000000000000000000000000000000000000000000000000000000602082015250565b614d1981614643565b8114614d2457600080fd5b50565b614d3081614655565b8114614d3b57600080fd5b50565b614d4781614667565b8114614d5257600080fd5b50565b614d5e81614673565b8114614d6957600080fd5b50565b614d75816146a5565b8114614d8057600080fd5b50565b614d8c816146af565b8114614d9757600080fd5b5056fea26469706673582212203a70830494f7fb1eba2c6fd9cfcaa869b243cb7e4fabed85022c4e7faf6112c364736f6c63430008040033",
  "linkReferences": {},
  "deployedLinkReferences": {}
}