{
  "_format": "hh-sol-artifact-1",
  "contractName": "GoldTierStakingContract",
  "sourceName": "contracts/GoldTierStakingContract.sol",
  "abi": [
    {
      "inputs": [
        {
          "internalType": "address",
          "name": "_depositor",
          "type": "address"
        },
        {
          "internalType": "address",
          "name": "_tokenAddress",
          "type": "address"
        },
        {
          "internalType": "address",
          "name": "_feeAddress",
          "type": "address"
        },
        {
          "internalType": "address",
          "name": "_stakingHelper",
          "type": "address"
        }
      ],
      "stateMutability": "nonpayable",
      "type": "constructor"
    },
    {
      "anonymous": false,
      "inputs": [
        {
          "indexed": true,
          "internalType": "address",
          "name": "previousOwner",
          "type": "address"
        },
        {
          "indexed": true,
          "internalType": "address",
          "name": "newOwner",
          "type": "address"
        }
      ],
      "name": "OwnershipTransferred",
      "type": "event"
    },
    {
      "anonymous": false,
      "inputs": [
        {
          "indexed": false,
          "internalType": "uint256",
          "name": "lockId",
          "type": "uint256"
        },
        {
          "indexed": false,
          "internalType": "address",
          "name": "owner",
          "type": "address"
        },
        {
          "indexed": false,
          "internalType": "uint256",
          "name": "amountInTokens",
          "type": "uint256"
        }
      ],
      "name": "onFeeCharged",
      "type": "event"
    },
    {
      "anonymous": false,
      "inputs": [
        {
          "indexed": false,
          "internalType": "uint256",
          "name": "lockId",
          "type": "uint256"
        },
        {
          "indexed": false,
          "internalType": "address",
          "name": "owner",
          "type": "address"
        },
        {
          "indexed": false,
          "internalType": "uint256",
          "name": "amountInTokens",
          "type": "uint256"
        },
        {
          "indexed": false,
          "internalType": "uint256",
          "name": "iPP",
          "type": "uint256"
        }
      ],
      "name": "onLock",
      "type": "event"
    },
    {
      "anonymous": false,
      "inputs": [
        {
          "indexed": false,
          "internalType": "uint256",
          "name": "lockId",
          "type": "uint256"
        },
        {
          "indexed": false,
          "internalType": "address",
          "name": "owner",
          "type": "address"
        },
        {
          "indexed": false,
          "internalType": "uint256",
          "name": "amountInTokens",
          "type": "uint256"
        },
        {
          "indexed": false,
          "internalType": "uint256",
          "name": "tierId",
          "type": "uint256"
        }
      ],
      "name": "onLockUpdated",
      "type": "event"
    },
    {
      "anonymous": false,
      "inputs": [
        {
          "indexed": false,
          "internalType": "uint256",
          "name": "lockId",
          "type": "uint256"
        },
        {
          "indexed": false,
          "internalType": "address",
          "name": "owner",
          "type": "address"
        },
        {
          "indexed": false,
          "internalType": "uint256",
          "name": "amount",
          "type": "uint256"
        },
        {
          "indexed": false,
          "internalType": "uint256",
          "name": "ipp",
          "type": "uint256"
        },
        {
          "indexed": false,
          "internalType": "uint256",
          "name": "unlockTime",
          "type": "uint256"
        },
        {
          "indexed": false,
          "internalType": "uint256",
          "name": "lockTime",
          "type": "uint256"
        }
      ],
      "name": "onMigrate",
      "type": "event"
    },
    {
      "anonymous": false,
      "inputs": [
        {
          "indexed": false,
          "internalType": "uint256",
          "name": "lockId",
          "type": "uint256"
        },
        {
          "indexed": false,
          "internalType": "address",
          "name": "owner",
          "type": "address"
        },
        {
          "indexed": false,
          "internalType": "uint256",
          "name": "amountInTokens",
          "type": "uint256"
        }
      ],
      "name": "onWithdraw",
      "type": "event"
    },
    {
      "inputs": [],
      "name": "CONFIG",
      "outputs": [
        {
          "internalType": "uint8",
          "name": "tierId",
          "type": "uint8"
        },
        {
          "internalType": "uint8",
          "name": "multiplier",
          "type": "uint8"
        },
        {
          "internalType": "uint8",
          "name": "emergencyWithdrawlFee",
          "type": "uint8"
        },
        {
          "internalType": "uint8",
          "name": "enableEarlyWithdrawal",
          "type": "uint8"
        },
        {
          "internalType": "uint8",
          "name": "enableRewards",
          "type": "uint8"
        },
        {
          "internalType": "uint256",
          "name": "unlockDuration",
          "type": "uint256"
        },
        {
          "internalType": "address",
          "name": "depositor",
          "type": "address"
        },
        {
          "internalType": "address",
          "name": "feeAddress",
          "type": "address"
        },
        {
          "internalType": "address",
          "name": "stakingHelper",
          "type": "address"
        }
      ],
      "stateMutability": "view",
      "type": "function"
    },
    {
      "inputs": [],
      "name": "CONTRACT_VERSION",
      "outputs": [
        {
          "internalType": "uint256",
          "name": "",
          "type": "uint256"
        }
      ],
      "stateMutability": "view",
      "type": "function"
    },
    {
      "inputs": [
        {
          "internalType": "uint256",
          "name": "",
          "type": "uint256"
        }
      ],
      "name": "LOCKS",
      "outputs": [
        {
          "internalType": "uint256",
          "name": "lockId",
          "type": "uint256"
        },
        {
          "internalType": "address",
          "name": "owner",
          "type": "address"
        },
        {
          "internalType": "uint256",
          "name": "amount",
          "type": "uint256"
        },
        {
          "internalType": "uint256",
          "name": "iPP",
          "type": "uint256"
        },
        {
          "internalType": "uint256",
          "name": "unlockTime",
          "type": "uint256"
        },
        {
          "internalType": "uint256",
          "name": "lockTime",
          "type": "uint256"
        }
      ],
      "stateMutability": "view",
      "type": "function"
    },
    {
      "inputs": [],
      "name": "MIGRATOR",
      "outputs": [
        {
          "internalType": "contract IMigrator",
          "name": "",
          "type": "address"
        }
      ],
      "stateMutability": "view",
      "type": "function"
    },
    {
      "inputs": [],
      "name": "MINIMUM_DEPOSIT",
      "outputs": [
        {
          "internalType": "uint256",
          "name": "",
          "type": "uint256"
        }
      ],
      "stateMutability": "view",
      "type": "function"
    },
    {
      "inputs": [],
      "name": "NONCE",
      "outputs": [
        {
          "internalType": "uint256",
          "name": "",
          "type": "uint256"
        }
      ],
      "stateMutability": "view",
      "type": "function"
    },
    {
      "inputs": [
        {
          "internalType": "address",
          "name": "",
          "type": "address"
        },
        {
          "internalType": "uint256",
          "name": "",
          "type": "uint256"
        }
      ],
      "name": "USER_LOCKS",
      "outputs": [
        {
          "internalType": "uint256",
          "name": "",
          "type": "uint256"
        }
      ],
      "stateMutability": "view",
      "type": "function"
    },
    {
      "inputs": [
        {
          "internalType": "uint8",
          "name": "tierId",
          "type": "uint8"
        },
        {
          "internalType": "uint8",
          "name": "multiplier",
          "type": "uint8"
        },
        {
          "internalType": "uint8",
          "name": "emergencyWithdrawlFee",
          "type": "uint8"
        },
        {
          "internalType": "uint8",
          "name": "enableEarlyWithdrawal",
          "type": "uint8"
        },
        {
          "internalType": "uint256",
          "name": "unlockDuration",
          "type": "uint256"
        },
        {
          "internalType": "uint8",
          "name": "enableRewards",
          "type": "uint8"
        },
        {
          "internalType": "address",
          "name": "depositor",
          "type": "address"
        },
        {
          "internalType": "address",
          "name": "feeAddress",
          "type": "address"
        }
      ],
      "name": "changeConfig",
      "outputs": [
        {
          "internalType": "bool",
          "name": "",
          "type": "bool"
        }
      ],
      "stateMutability": "nonpayable",
      "type": "function"
    },
    {
      "inputs": [
        {
          "internalType": "uint8",
          "name": "_enableEarlyWithdrawal",
          "type": "uint8"
        }
      ],
      "name": "changeEarlyWithdrawl",
      "outputs": [],
      "stateMutability": "nonpayable",
      "type": "function"
    },
    {
      "inputs": [
        {
          "internalType": "uint8",
          "name": "_unlockDuration",
          "type": "uint8"
        }
      ],
      "name": "changeUnlockDuration",
      "outputs": [],
      "stateMutability": "nonpayable",
      "type": "function"
    },
    {
      "inputs": [],
      "name": "emergencyWithdrawlFee",
      "outputs": [
        {
          "internalType": "uint8",
          "name": "",
          "type": "uint8"
        }
      ],
      "stateMutability": "view",
      "type": "function"
    },
    {
      "inputs": [],
      "name": "enableEmergencyWithdrawl",
      "outputs": [
        {
          "internalType": "uint8",
          "name": "",
          "type": "uint8"
        }
      ],
      "stateMutability": "view",
      "type": "function"
    },
    {
      "inputs": [],
      "name": "enableRewards",
      "outputs": [
        {
          "internalType": "uint8",
          "name": "",
          "type": "uint8"
        }
      ],
      "stateMutability": "view",
      "type": "function"
    },
    {
      "inputs": [
        {
          "internalType": "uint256",
          "name": "_index",
          "type": "uint256"
        }
      ],
      "name": "getLockedUserAt",
      "outputs": [
        {
          "internalType": "address",
          "name": "",
          "type": "address"
        }
      ],
      "stateMutability": "view",
      "type": "function"
    },
    {
      "inputs": [],
      "name": "getLockedUsersLength",
      "outputs": [
        {
          "internalType": "uint256",
          "name": "",
          "type": "uint256"
        }
      ],
      "stateMutability": "view",
      "type": "function"
    },
    {
      "inputs": [
        {
          "internalType": "uint256",
          "name": "_index",
          "type": "uint256"
        }
      ],
      "name": "getMigratorAt",
      "outputs": [
        {
          "internalType": "address",
          "name": "",
          "type": "address"
        }
      ],
      "stateMutability": "view",
      "type": "function"
    },
    {
      "inputs": [],
      "name": "getMigratorsLength",
      "outputs": [
        {
          "internalType": "uint256",
          "name": "",
          "type": "uint256"
        }
      ],
      "stateMutability": "view",
      "type": "function"
    },
    {
      "inputs": [
        {
          "internalType": "address",
          "name": "_user",
          "type": "address"
        }
      ],
      "name": "getPoolPercentagesWithUser",
      "outputs": [
        {
          "internalType": "uint256",
          "name": "",
          "type": "uint256"
        },
        {
          "internalType": "uint256",
          "name": "",
          "type": "uint256"
        }
      ],
      "stateMutability": "view",
      "type": "function"
    },
    {
      "inputs": [
        {
          "internalType": "address",
          "name": "_user",
          "type": "address"
        }
      ],
      "name": "getUserLocksLength",
      "outputs": [
        {
          "internalType": "uint256",
          "name": "",
          "type": "uint256"
        }
      ],
      "stateMutability": "view",
      "type": "function"
    },
    {
      "inputs": [
        {
          "components": [
            {
              "internalType": "address payable",
              "name": "owner",
              "type": "address"
            },
            {
              "internalType": "uint256",
              "name": "amount",
              "type": "uint256"
            }
          ],
          "internalType": "struct BaseTierStakingContract.LockParams[]",
          "name": "_lock_params",
          "type": "tuple[]"
        }
      ],
      "name": "lock",
      "outputs": [],
      "stateMutability": "nonpayable",
      "type": "function"
    },
    {
      "inputs": [
        {
          "internalType": "uint256",
          "name": "lockId",
          "type": "uint256"
        },
        {
          "internalType": "address",
          "name": "owner",
          "type": "address"
        },
        {
          "internalType": "uint256",
          "name": "amount",
          "type": "uint256"
        },
        {
          "internalType": "uint256",
          "name": "ipp",
          "type": "uint256"
        },
        {
          "internalType": "uint256",
          "name": "unlockTime",
          "type": "uint256"
        },
        {
          "internalType": "uint256",
          "name": "lockTime",
          "type": "uint256"
        }
      ],
      "name": "migrate",
      "outputs": [
        {
          "internalType": "bool",
          "name": "",
          "type": "bool"
        }
      ],
      "stateMutability": "nonpayable",
      "type": "function"
    },
    {
      "inputs": [
        {
          "internalType": "uint256",
          "name": "_lockId",
          "type": "uint256"
        }
      ],
      "name": "migrateToNewVersion",
      "outputs": [],
      "stateMutability": "nonpayable",
      "type": "function"
    },
    {
      "inputs": [],
      "name": "multiplier",
      "outputs": [
        {
          "internalType": "uint8",
          "name": "",
          "type": "uint8"
        }
      ],
      "stateMutability": "view",
      "type": "function"
    },
    {
      "inputs": [],
      "name": "owner",
      "outputs": [
        {
          "internalType": "address",
          "name": "",
          "type": "address"
        }
      ],
      "stateMutability": "view",
      "type": "function"
    },
    {
      "inputs": [],
      "name": "renounceOwnership",
      "outputs": [],
      "stateMutability": "nonpayable",
      "type": "function"
    },
    {
      "inputs": [
        {
          "internalType": "address",
          "name": "_depositor",
          "type": "address"
        }
      ],
      "name": "setDepositor",
      "outputs": [],
      "stateMutability": "nonpayable",
      "type": "function"
    },
    {
      "inputs": [
        {
          "internalType": "contract IMigrator",
          "name": "_migrator",
          "type": "address"
        }
      ],
      "name": "setMigrator",
      "outputs": [],
      "stateMutability": "nonpayable",
      "type": "function"
    },
    {
      "inputs": [
        {
          "internalType": "address",
          "name": "_stakingHelper",
          "type": "address"
        }
      ],
      "name": "setStakingHelper",
      "outputs": [],
      "stateMutability": "nonpayable",
      "type": "function"
    },
    {
      "inputs": [
        {
          "internalType": "address payable",
          "name": "_owner",
          "type": "address"
        },
        {
          "internalType": "uint256",
          "name": "_amount",
          "type": "uint256"
        }
      ],
      "name": "singleLock",
      "outputs": [],
      "stateMutability": "nonpayable",
      "type": "function"
    },
    {
      "inputs": [],
      "name": "tierId",
      "outputs": [
        {
          "internalType": "uint8",
          "name": "",
          "type": "uint8"
        }
      ],
      "stateMutability": "view",
      "type": "function"
    },
    {
      "inputs": [],
      "name": "tierTotalParticipationPoints",
      "outputs": [
        {
          "internalType": "uint256",
          "name": "",
          "type": "uint256"
        }
      ],
      "stateMutability": "view",
      "type": "function"
    },
    {
      "inputs": [
        {
          "internalType": "address",
          "name": "_migrator",
          "type": "address"
        },
        {
          "internalType": "uint8",
          "name": "add",
          "type": "uint8"
        }
      ],
      "name": "toggleMigrator",
      "outputs": [],
      "stateMutability": "nonpayable",
      "type": "function"
    },
    {
      "inputs": [],
      "name": "tokenAddress",
      "outputs": [
        {
          "internalType": "address",
          "name": "",
          "type": "address"
        }
      ],
      "stateMutability": "view",
      "type": "function"
    },
    {
      "inputs": [
        {
          "internalType": "address",
          "name": "newOwner",
          "type": "address"
        }
      ],
      "name": "transferOwnership",
      "outputs": [],
      "stateMutability": "nonpayable",
      "type": "function"
    },
    {
      "inputs": [],
      "name": "unlockDuration",
      "outputs": [
        {
          "internalType": "uint256",
          "name": "",
          "type": "uint256"
        }
      ],
      "stateMutability": "view",
      "type": "function"
    },
    {
      "inputs": [
        {
          "internalType": "uint256",
          "name": "_lockId",
          "type": "uint256"
        },
        {
          "internalType": "uint256",
          "name": "_index",
          "type": "uint256"
        },
        {
          "internalType": "uint256",
          "name": "_amount",
          "type": "uint256"
        }
      ],
      "name": "withdraw",
      "outputs": [],
      "stateMutability": "nonpayable",
      "type": "function"
    }
  ],
  "bytecode": "0x608060405260016002556001600855683635c9adc5dea000006009556003601260146101000a81548160ff021916908360ff1602179055506032601260156101000a81548160ff021916908360ff1602179055506032601260166101000a81548160ff021916908360ff1602179055506000601260176101000a81548160ff021916908360ff1602179055506001601260186101000a81548160ff021916908360ff1602179055506303b53800601355348015620000bc57600080fd5b50604051620053e0380380620053e08339818101604052810190620000e29190620003d0565b601260149054906101000a900460ff16601260159054906101000a900460ff16601260169054906101000a900460ff16601260179054906101000a900460ff16601354601260189054906101000a900460ff168989898960006200014b620003b160201b60201c565b9050806000806101000a81548173ffffffffffffffffffffffffffffffffffffffff021916908373ffffffffffffffffffffffffffffffffffffffff1602179055508073ffffffffffffffffffffffffffffffffffffffff16600073ffffffffffffffffffffffffffffffffffffffff167f8be0079c531659141344cd1fd0a4f28419497f9722a3daafe3b4186f6b6457e060405160405180910390a3506001808190555082600a60006101000a81548173ffffffffffffffffffffffffffffffffffffffff021916908373ffffffffffffffffffffffffffffffffffffffff16021790555089600b60000160006101000a81548160ff021916908360ff16021790555088600b60000160016101000a81548160ff021916908360ff16021790555087600b60000160026101000a81548160ff021916908360ff16021790555085600b6001018190555086600b60000160036101000a81548160ff021916908360ff16021790555083600b60020160006101000a81548173ffffffffffffffffffffffffffffffffffffffff021916908373ffffffffffffffffffffffffffffffffffffffff16021790555080600b60040160006101000a81548173ffffffffffffffffffffffffffffffffffffffff021916908373ffffffffffffffffffffffffffffffffffffffff16021790555081600b60030160006101000a81548173ffffffffffffffffffffffffffffffffffffffff021916908373ffffffffffffffffffffffffffffffffffffffff16021790555084600b60000160046101000a81548160ff021916908360ff16021790555050505050505050505050505050506200048a565b600033905090565b600081519050620003ca8162000470565b92915050565b60008060008060808587031215620003e757600080fd5b6000620003f787828801620003b9565b94505060206200040a87828801620003b9565b93505060406200041d87828801620003b9565b92505060606200043087828801620003b9565b91505092959194509250565b6000620004498262000450565b9050919050565b600073ffffffffffffffffffffffffffffffffffffffff82169050919050565b6200047b816200043c565b81146200048757600080fd5b50565b614f46806200049a6000396000f3fe608060405234801561001057600080fd5b506004361061021c5760003560e01c8063998910e511610125578063e091dd1a116100ad578063f2c098b71161007c578063f2c098b714610629578063f2fde38b14610645578063f442676614610661578063f99c80151461067f578063fb67e12a1461069d5761021c565b8063e091dd1a146105a1578063e8c57817146105bf578063ed18fb7a146105ef578063f19451d81461060b5761021c565b8063cbb1ef35116100f4578063cbb1ef35146104de578063cf0d5af3146104fa578063d117eed71461052f578063d92e82e41461055f578063dae30749146105855761021c565b8063998910e5146104685780639d76ea58146104865780639ecd7472146104a4578063a41fe49f146104c25761021c565b8063416d848c116101a85780638185e9fd116101775780638185e9fd146103c05780638a1fcd60146103de5780638a34249d146103fc5780638d85bb501461041a5780638da5cb5b1461044a5761021c565b8063416d848c1461033757806346a7ceb2146103675780635491b80414610385578063715018a6146103b65761021c565b806323cf3118116101ef57806323cf31181461029557806329878e5c146102b157806338b90333146102cd5780633b37c470146102eb57806340387024146103075761021c565b806303db3d1c146102215780631b3ed7221461023f5780631d7f64d91461025d5780631e3e151914610279575b600080fd5b6102296106cd565b60405161023691906145b5565b60405180910390f35b6102476106e0565b60405161025491906145b5565b60405180910390f35b61027760048036038101906102729190613887565b6106f3565b005b610293600480360381019061028e91906138b0565b6107b6565b005b6102af60048036038101906102aa91906139ce565b6108b9565b005b6102cb60048036038101906102c69190613928565b610979565b005b6102d5610a35565b6040516102e29190614494565b60405180910390f35b61030560048036038101906103009190613964565b610a3b565b005b610321600480360381019061031c91906139f7565b610a47565b60405161032e9190614063565b60405180910390f35b610351600480360381019061034c91906139f7565b610a64565b60405161035e9190614063565b60405180910390f35b61036f610a81565b60405161037c91906145b5565b60405180910390f35b61039f600480360381019061039a9190613887565b610a94565b6040516103ad92919061458c565b60405180910390f35b6103be610aa9565b005b6103c8610be3565b6040516103d591906145b5565b60405180910390f35b6103e6610bf6565b6040516103f39190614494565b60405180910390f35b610404610bfc565b6040516104119190614494565b60405180910390f35b610434600480360381019061042f9190613887565b610c0d565b6040516104419190614494565b60405180910390f35b610452610c59565b60405161045f9190614063565b60405180910390f35b610470610c82565b60405161047d9190614494565b60405180910390f35b61048e610c93565b60405161049b9190614063565b60405180910390f35b6104ac610cb9565b6040516104b991906140f9565b60405180910390f35b6104dc60048036038101906104d79190613ad2565b610cdf565b005b6104f860048036038101906104f391906139f7565b6113f2565b005b610514600480360381019061050f91906139f7565b6118af565b6040516105269695949392919061452b565b60405180910390f35b61054960048036038101906105449190613a49565b61190b565b60405161055691906140de565b60405180910390f35b610567611f16565b60405161057c999897969594939291906145d0565b60405180910390f35b61059f600480360381019061059a9190613b21565b611ff3565b005b6105a9612090565b6040516105b69190614494565b60405180910390f35b6105d960048036038101906105d49190613b4a565b612096565b6040516105e691906140de565b60405180910390f35b61060960048036038101906106049190613b21565b61224c565b005b6106136122d8565b6040516106209190614494565b60405180910390f35b610643600480360381019061063e9190613887565b6122de565b005b61065f600480360381019061065a9190613887565b6123a1565b005b61066961254a565b60405161067691906145b5565b60405180910390f35b61068761255d565b6040516106949190614494565b60405180910390f35b6106b760048036038101906106b291906138ec565b612563565b6040516106c49190614494565b60405180910390f35b601260149054906101000a900460ff1681565b601260159054906101000a900460ff1681565b6106fb612594565b73ffffffffffffffffffffffffffffffffffffffff16610719610c59565b73ffffffffffffffffffffffffffffffffffffffff161461076f576040517f08c379a000000000000000000000000000000000000000000000000000000000815260040161076690614354565b60405180910390fd5b80600b60040160006101000a81548173ffffffffffffffffffffffffffffffffffffffff021916908373ffffffffffffffffffffffffffffffffffffffff16021790555050565b600060405180604001604052808473ffffffffffffffffffffffffffffffffffffffff1681526020018381525090506000600167ffffffffffffffff811115610828577f4e487b7100000000000000000000000000000000000000000000000000000000600052604160045260246000fd5b60405190808252806020026020018201604052801561086157816020015b61084e613696565b8152602001906001900390816108465790505b509050818160008151811061089f577f4e487b7100000000000000000000000000000000000000000000000000000000600052603260045260246000fd5b60200260200101819052506108b38161259c565b50505050565b6108c1612594565b73ffffffffffffffffffffffffffffffffffffffff166108df610c59565b73ffffffffffffffffffffffffffffffffffffffff1614610935576040517f08c379a000000000000000000000000000000000000000000000000000000000815260040161092c90614354565b60405180910390fd5b80601260006101000a81548173ffffffffffffffffffffffffffffffffffffffff021916908373ffffffffffffffffffffffffffffffffffffffff16021790555050565b610981612594565b73ffffffffffffffffffffffffffffffffffffffff1661099f610c59565b73ffffffffffffffffffffffffffffffffffffffff16146109f5576040517f08c379a00000000000000000000000000000000000000000000000000000000081526004016109ec90614354565b60405180910390fd5b60018160ff161415610a1b57610a15826005612d5090919063ffffffff16565b50610a31565b610a2f826005612d8090919063ffffffff16565b505b5050565b60025481565b610a448161259c565b50565b6000610a5d826003612db090919063ffffffff16565b9050919050565b6000610a7a826005612db090919063ffffffff16565b9050919050565b601260169054906101000a900460ff1681565b600080610aa083612dca565b91509150915091565b610ab1612594565b73ffffffffffffffffffffffffffffffffffffffff16610acf610c59565b73ffffffffffffffffffffffffffffffffffffffff1614610b25576040517f08c379a0000000000000000000000000000000000000000000000000000000008152600401610b1c90614354565b60405180910390fd5b600073ffffffffffffffffffffffffffffffffffffffff1660008054906101000a900473ffffffffffffffffffffffffffffffffffffffff1673ffffffffffffffffffffffffffffffffffffffff167f8be0079c531659141344cd1fd0a4f28419497f9722a3daafe3b4186f6b6457e060405160405180910390a360008060006101000a81548173ffffffffffffffffffffffffffffffffffffffff021916908373ffffffffffffffffffffffffffffffffffffffff160217905550565b601260179054906101000a900460ff1681565b60135481565b6000610c086005612ee8565b905090565b6000601160008373ffffffffffffffffffffffffffffffffffffffff1673ffffffffffffffffffffffffffffffffffffffff168152602001908152602001600020805490509050919050565b60008060009054906101000a900473ffffffffffffffffffffffffffffffffffffffff16905090565b6000610c8e6003612ee8565b905090565b600a60009054906101000a900473ffffffffffffffffffffffffffffffffffffffff1681565b601260009054906101000a900473ffffffffffffffffffffffffffffffffffffffff1681565b60026001541415610d25576040517f08c379a0000000000000000000000000000000000000000000000000000000008152600401610d1c90614454565b60405180910390fd5b6002600181905550600b60040160009054906101000a900473ffffffffffffffffffffffffffffffffffffffff1673ffffffffffffffffffffffffffffffffffffffff16638731725e6040518163ffffffff1660e01b815260040160206040518083038186803b158015610d9857600080fd5b505afa158015610dac573d6000803e3d6000fd5b505050506040513d601f19601f82011682018060405250810190610dd091906139a5565b610e0f576040517f08c379a0000000000000000000000000000000000000000000000000000000008152600401610e06906143f4565b60405180910390fd5b6000601060008581526020019081526020016000209050428160040154111580610e4e57506001600b60000160039054906101000a900460ff1660ff16145b610e8d576040517f08c379a0000000000000000000000000000000000000000000000000000000008152600401610e84906141b4565b60405180910390fd5b82601160003373ffffffffffffffffffffffffffffffffffffffff1673ffffffffffffffffffffffffffffffffffffffff1681526020019081526020016000208054905011610f11576040517f08c379a0000000000000000000000000000000000000000000000000000000008152600401610f08906141d4565b60405180910390fd5b83601160003373ffffffffffffffffffffffffffffffffffffffff1673ffffffffffffffffffffffffffffffffffffffff1681526020019081526020016000208481548110610f89577f4e487b7100000000000000000000000000000000000000000000000000000000600052603260045260246000fd5b906000526020600020015414610fd4576040517f08c379a0000000000000000000000000000000000000000000000000000000008152600401610fcb90614394565b60405180910390fd5b3373ffffffffffffffffffffffffffffffffffffffff168160010160009054906101000a900473ffffffffffffffffffffffffffffffffffffffff1673ffffffffffffffffffffffffffffffffffffffff1614611066576040517f08c379a000000000000000000000000000000000000000000000000000000000815260040161105d90614274565b60405180910390fd5b6000600a60009054906101000a900473ffffffffffffffffffffffffffffffffffffffff1673ffffffffffffffffffffffffffffffffffffffff166370a08231306040518263ffffffff1660e01b81526004016110c39190614063565b60206040518083038186803b1580156110db57600080fd5b505afa1580156110ef573d6000803e3d6000fd5b505050506040513d601f19601f820116820180604052508101906111139190613a20565b905060006010600087815260200190815260200160002060020154905060008111611173576040517f08c379a000000000000000000000000000000000000000000000000000000000815260040161116a906141f4565b60405180910390fd5b808411156111b6576040517f08c379a00000000000000000000000000000000000000000000000000000000081526004016111ad90614414565b60405180910390fd5b818411156111f9576040517f08c379a00000000000000000000000000000000000000000000000000000000081526004016111f090614334565b60405180910390fd5b83816112059190614785565b60106000888152602001908152602001600020600201819055506000600b60000160019054906101000a900460ff1660ff1685611242919061472b565b905080600760008282546112569190614785565b92505081905550806010600089815260200190815260200160002060030160008282546112839190614785565b925050819055504284600401541180156112b257506000600b60000160029054906101000a900460ff1660ff16115b1561137a5760006112db86600b60000160029054906101000a900460ff1660ff166103e8612efd565b905061132f600a60009054906101000a900473ffffffffffffffffffffffffffffffffffffffff16600b60030160009054906101000a900473ffffffffffffffffffffffffffffffffffffffff1683612ff9565b808661133b9190614785565b95507fcf9cbb4d6b0f2e9b4c33906691d001c23980dccca431d218f2966e64d767bcb8883383604051611370939291906144af565b60405180910390a1505b6113a7600a60009054906101000a900473ffffffffffffffffffffffffffffffffffffffff163387612ff9565b7fffb7a058f3489b3f4215d0517dd9bd49ccec359af5bf041d75894d2cb84385ca8733876040516113da939291906144af565b60405180910390a15050505060018081905550505050565b60026001541415611438576040517f08c379a000000000000000000000000000000000000000000000000000000000815260040161142f90614454565b60405180910390fd5b6002600181905550600073ffffffffffffffffffffffffffffffffffffffff16601260009054906101000a900473ffffffffffffffffffffffffffffffffffffffff1673ffffffffffffffffffffffffffffffffffffffff1614156114d2576040517f08c379a00000000000000000000000000000000000000000000000000000000081526004016114c990614254565b60405180910390fd5b60006010600083815260200190815260200160002090503373ffffffffffffffffffffffffffffffffffffffff168160010160009054906101000a900473ffffffffffffffffffffffffffffffffffffffff1673ffffffffffffffffffffffffffffffffffffffff161461157b576040517f08c379a000000000000000000000000000000000000000000000000000000000815260040161157290614274565b60405180910390fd5b600081600201549050600081116115c7576040517f08c379a00000000000000000000000000000000000000000000000000000000081526004016115be90614154565b60405180910390fd5b6000600a60009054906101000a900473ffffffffffffffffffffffffffffffffffffffff1673ffffffffffffffffffffffffffffffffffffffff166370a08231306040518263ffffffff1660e01b81526004016116249190614063565b60206040518083038186803b15801561163c57600080fd5b505afa158015611650573d6000803e3d6000fd5b505050506040513d601f19601f820116820180604052508101906116749190613a20565b9050808211156116b9576040517f08c379a00000000000000000000000000000000000000000000000000000000081526004016116b090614334565b60405180910390fd5b611708600a60009054906101000a900473ffffffffffffffffffffffffffffffffffffffff16601260009054906101000a900473ffffffffffffffffffffffffffffffffffffffff168461312f565b601260009054906101000a900473ffffffffffffffffffffffffffffffffffffffff1673ffffffffffffffffffffffffffffffffffffffff1663d117eed784600001548560010160009054906101000a900473ffffffffffffffffffffffffffffffffffffffff1686600201548760030154886004015489600501546040518763ffffffff1660e01b81526004016117a59695949392919061452b565b602060405180830381600087803b1580156117bf57600080fd5b505af11580156117d3573d6000803e3d6000fd5b505050506040513d601f19601f820116820180604052508101906117f791906139a5565b507fb49be7e93a82b18e6cba4d224eba6c19aa72f3f07ce29beea3ca6788b8dbd15383600001548460010160009054906101000a900473ffffffffffffffffffffffffffffffffffffffff1685600201548660030154876004015488600501546040516118699695949392919061452b565b60405180910390a1600083600201819055508260030154600760008282546118919190614785565b92505081905550600083600301819055505050506001808190555050565b60106020528060005260406000206000915090508060000154908060010160009054906101000a900473ffffffffffffffffffffffffffffffffffffffff16908060020154908060030154908060040154908060050154905086565b600061192133600561326590919063ffffffff16565b611960576040517f08c379a000000000000000000000000000000000000000000000000000000000815260040161195790614294565b60405180910390fd5b600087116119a3576040517f08c379a000000000000000000000000000000000000000000000000000000000815260040161199a906142d4565b60405180910390fd5b600073ffffffffffffffffffffffffffffffffffffffff168673ffffffffffffffffffffffffffffffffffffffff161415611a13576040517f08c379a0000000000000000000000000000000000000000000000000000000008152600401611a0a90614234565b60405180910390fd5b60008511611a56576040517f08c379a0000000000000000000000000000000000000000000000000000000008152600401611a4d90614154565b60405180910390fd5b60008311611a99576040517f08c379a0000000000000000000000000000000000000000000000000000000008152600401611a9090614174565b60405180910390fd5b60008211611adc576040517f08c379a0000000000000000000000000000000000000000000000000000000008152600401611ad390614374565b60405180910390fd5b6000600a60009054906101000a900473ffffffffffffffffffffffffffffffffffffffff1673ffffffffffffffffffffffffffffffffffffffff166370a08231306040518263ffffffff1660e01b8152600401611b399190614063565b60206040518083038186803b158015611b5157600080fd5b505afa158015611b65573d6000803e3d6000fd5b505050506040513d601f19601f82011682018060405250810190611b899190613a20565b9050611bb9600a60009054906101000a900473ffffffffffffffffffffffffffffffffffffffff16333089613295565b600081600a60009054906101000a900473ffffffffffffffffffffffffffffffffffffffff1673ffffffffffffffffffffffffffffffffffffffff166370a08231306040518263ffffffff1660e01b8152600401611c179190614063565b60206040518083038186803b158015611c2f57600080fd5b505afa158015611c43573d6000803e3d6000fd5b505050506040513d601f19601f82011682018060405250810190611c679190613a20565b611c719190614785565b9050868114611cb5576040517f08c379a0000000000000000000000000000000000000000000000000000000008152600401611cac906142b4565b60405180910390fd5b600954871015611cfa576040517f08c379a0000000000000000000000000000000000000000000000000000000008152600401611cf190614314565b60405180910390fd5b611d026136c6565b60085481600001818152505088816020019073ffffffffffffffffffffffffffffffffffffffff16908173ffffffffffffffffffffffffffffffffffffffff1681525050611d5a896003612d5090919063ffffffff16565b5087816040018181525050848160a00181815250508581608001818152505086816060018181525050806010600060085481526020019081526020016000206000820151816000015560208201518160010160006101000a81548173ffffffffffffffffffffffffffffffffffffffff021916908373ffffffffffffffffffffffffffffffffffffffff16021790555060408201518160020155606082015181600301556080820151816004015560a08201518160050155905050806060015160076000828254611e2b91906146d5565b9250508190555060116000826020015173ffffffffffffffffffffffffffffffffffffffff1673ffffffffffffffffffffffffffffffffffffffff1681526020019081526020016000208160000151908060018154018082558091505060019003906000526020600020016000909190919091505560086000815480929190611eb3906148ba565b91905055507f6337427d37645be57e8273f668c9fce8964bc71afd738d87ce6d14bf85258bec8160000151826020015183604001518460600151604051611efd94939291906144e6565b60405180910390a1600193505050509695505050505050565b600b8060000160009054906101000a900460ff16908060000160019054906101000a900460ff16908060000160029054906101000a900460ff16908060000160039054906101000a900460ff16908060000160049054906101000a900460ff16908060010154908060020160009054906101000a900473ffffffffffffffffffffffffffffffffffffffff16908060030160009054906101000a900473ffffffffffffffffffffffffffffffffffffffff16908060040160009054906101000a900473ffffffffffffffffffffffffffffffffffffffff16905089565b611ffb612594565b73ffffffffffffffffffffffffffffffffffffffff16612019610c59565b73ffffffffffffffffffffffffffffffffffffffff161461206f576040517f08c379a000000000000000000000000000000000000000000000000000000000815260040161206690614354565b60405180910390fd5b80600b60000160036101000a81548160ff021916908360ff16021790555050565b60085481565b60006120a0612594565b73ffffffffffffffffffffffffffffffffffffffff166120be610c59565b73ffffffffffffffffffffffffffffffffffffffff1614612114576040517f08c379a000000000000000000000000000000000000000000000000000000000815260040161210b90614354565b60405180910390fd5b88600b60000160006101000a81548160ff021916908360ff16021790555087600b60000160016101000a81548160ff021916908360ff16021790555086600b60000160026101000a81548160ff021916908360ff16021790555085600b60000160036101000a81548160ff021916908360ff16021790555084600b6001018190555082600b60020160006101000a81548173ffffffffffffffffffffffffffffffffffffffff021916908373ffffffffffffffffffffffffffffffffffffffff16021790555081600b60030160006101000a81548173ffffffffffffffffffffffffffffffffffffffff021916908373ffffffffffffffffffffffffffffffffffffffff16021790555083600b60000160046101000a81548160ff021916908360ff1602179055506001905098975050505050505050565b612254612594565b73ffffffffffffffffffffffffffffffffffffffff16612272610c59565b73ffffffffffffffffffffffffffffffffffffffff16146122c8576040517f08c379a00000000000000000000000000000000000000000000000000000000081526004016122bf90614354565b60405180910390fd5b8060ff16600b6001018190555050565b60095481565b6122e6612594565b73ffffffffffffffffffffffffffffffffffffffff16612304610c59565b73ffffffffffffffffffffffffffffffffffffffff161461235a576040517f08c379a000000000000000000000000000000000000000000000000000000000815260040161235190614354565b60405180910390fd5b80600b60020160006101000a81548173ffffffffffffffffffffffffffffffffffffffff021916908373ffffffffffffffffffffffffffffffffffffffff16021790555050565b6123a9612594565b73ffffffffffffffffffffffffffffffffffffffff166123c7610c59565b73ffffffffffffffffffffffffffffffffffffffff161461241d576040517f08c379a000000000000000000000000000000000000000000000000000000000815260040161241490614354565b60405180910390fd5b600073ffffffffffffffffffffffffffffffffffffffff168173ffffffffffffffffffffffffffffffffffffffff16141561248d576040517f08c379a000000000000000000000000000000000000000000000000000000000815260040161248490614194565b60405180910390fd5b8073ffffffffffffffffffffffffffffffffffffffff1660008054906101000a900473ffffffffffffffffffffffffffffffffffffffff1673ffffffffffffffffffffffffffffffffffffffff167f8be0079c531659141344cd1fd0a4f28419497f9722a3daafe3b4186f6b6457e060405160405180910390a3806000806101000a81548173ffffffffffffffffffffffffffffffffffffffff021916908373ffffffffffffffffffffffffffffffffffffffff16021790555050565b601260189054906101000a900460ff1681565b60075481565b6011602052816000526040600020818154811061257f57600080fd5b90600052602060002001600091509150505481565b600033905090565b600260015414156125e2576040517f08c379a00000000000000000000000000000000000000000000000000000000081526004016125d990614454565b60405180910390fd5b6002600181905550600b60020160009054906101000a900473ffffffffffffffffffffffffffffffffffffffff1673ffffffffffffffffffffffffffffffffffffffff163373ffffffffffffffffffffffffffffffffffffffff161461267d576040517f08c379a000000000000000000000000000000000000000000000000000000000815260040161267490614474565b60405180910390fd5b60008151116126c1576040517f08c379a00000000000000000000000000000000000000000000000000000000081526004016126b8906143b4565b60405180910390fd5b6000805b825181101561286e57600073ffffffffffffffffffffffffffffffffffffffff1683828151811061271f577f4e487b7100000000000000000000000000000000000000000000000000000000600052603260045260246000fd5b60200260200101516000015173ffffffffffffffffffffffffffffffffffffffff161415612782576040517f08c379a0000000000000000000000000000000000000000000000000000000008152600401612779906143d4565b60405180910390fd5b60008382815181106127bd577f4e487b7100000000000000000000000000000000000000000000000000000000600052603260045260246000fd5b60200260200101516020015111612809576040517f08c379a0000000000000000000000000000000000000000000000000000000008152600401612800906142f4565b60405180910390fd5b828181518110612842577f4e487b7100000000000000000000000000000000000000000000000000000000600052603260045260246000fd5b6020026020010151602001518261285991906146d5565b91508080612866906148ba565b9150506126c5565b506000600a60009054906101000a900473ffffffffffffffffffffffffffffffffffffffff1673ffffffffffffffffffffffffffffffffffffffff166370a08231306040518263ffffffff1660e01b81526004016128cc9190614063565b60206040518083038186803b1580156128e457600080fd5b505afa1580156128f8573d6000803e3d6000fd5b505050506040513d601f19601f8201168201806040525081019061291c9190613a20565b905061294c600a60009054906101000a900473ffffffffffffffffffffffffffffffffffffffff16333085613295565b600081600a60009054906101000a900473ffffffffffffffffffffffffffffffffffffffff1673ffffffffffffffffffffffffffffffffffffffff166370a08231306040518263ffffffff1660e01b81526004016129aa9190614063565b60206040518083038186803b1580156129c257600080fd5b505afa1580156129d6573d6000803e3d6000fd5b505050506040513d601f19601f820116820180604052508101906129fa9190613a20565b612a049190614785565b9050828114612a48576040517f08c379a0000000000000000000000000000000000000000000000000000000008152600401612a3f906142b4565b60405180910390fd5b60005b8451811015612d42576000858281518110612a8f577f4e487b7100000000000000000000000000000000000000000000000000000000600052603260045260246000fd5b6020026020010151905060095481602001511015612ae2576040517f08c379a0000000000000000000000000000000000000000000000000000000008152600401612ad990614314565b60405180910390fd5b612aea6136c6565b6008548160000181815250508160000151816020019073ffffffffffffffffffffffffffffffffffffffff16908173ffffffffffffffffffffffffffffffffffffffff1681525050612b4a82600001516003612d5090919063ffffffff16565b508160200151816040018181525050428160a0018181525050600b6001015442612b7491906146d5565b816080018181525050600b60000160019054906101000a900460ff1660ff168260200151612ba2919061472b565b816060018181525050806010600060085481526020019081526020016000206000820151816000015560208201518160010160006101000a81548173ffffffffffffffffffffffffffffffffffffffff021916908373ffffffffffffffffffffffffffffffffffffffff16021790555060408201518160020155606082015181600301556080820151816004015560a08201518160050155905050806060015160076000828254612c5391906146d5565b9250508190555060116000826020015173ffffffffffffffffffffffffffffffffffffffff1673ffffffffffffffffffffffffffffffffffffffff1681526020019081526020016000208160000151908060018154018082558091505060019003906000526020600020016000909190919091505560086000815480929190612cdb906148ba565b91905055507f6337427d37645be57e8273f668c9fce8964bc71afd738d87ce6d14bf85258bec8160000151826020015183604001518460600151604051612d2594939291906144e6565b60405180910390a150508080612d3a906148ba565b915050612a4b565b505050506001808190555050565b6000612d78836000018373ffffffffffffffffffffffffffffffffffffffff1660001b6133ce565b905092915050565b6000612da8836000018373ffffffffffffffffffffffffffffffffffffffff1660001b61343e565b905092915050565b6000612dbf83600001836135c8565b60001c905092915050565b6000806000805b601160008673ffffffffffffffffffffffffffffffffffffffff1673ffffffffffffffffffffffffffffffffffffffff16815260200190815260200160002080549050811015612ed957600060106000601160008973ffffffffffffffffffffffffffffffffffffffff1673ffffffffffffffffffffffffffffffffffffffff1681526020019081526020016000208481548110612e98577f4e487b7100000000000000000000000000000000000000000000000000000000600052603260045260246000fd5b906000526020600020015481526020019081526020016000209050806003015483612ec391906146d5565b9250508080612ed1906148ba565b915050612dd1565b50806007549250925050915091565b6000612ef682600001613662565b9050919050565b600080600080198587098587029250828110838203039150506000811415612f385760008411612f2c57600080fd5b83820492505050612ff2565b808411612f4457600080fd5b60008486880990508281118203915080830392506000856001877fffffffffffffffffffffffffffffffffffffffffffffffffffffffffffffffff0301169050808604955080840493506001818260000304019050808302841793506000600287600302189050808702600203810290508087026002038102905080870260020381029050808702600203810290508087026002038102905080870260020381029050808502955050505050505b9392505050565b6000808473ffffffffffffffffffffffffffffffffffffffff1663a9059cbb858560405160240161302b9291906140b5565b6040516020818303038152906040529060e01b6020820180517bffffffffffffffffffffffffffffffffffffffffffffffffffffffff8381831617835250505050604051613079919061404c565b6000604051808303816000865af19150503d80600081146130b6576040519150601f19603f3d011682016040523d82523d6000602084013e6130bb565b606091505b50915091508180156130e957506000815114806130e85750808060200190518101906130e791906139a5565b5b5b613128576040517f08c379a000000000000000000000000000000000000000000000000000000000815260040161311f90614134565b60405180910390fd5b5050505050565b6000808473ffffffffffffffffffffffffffffffffffffffff1663095ea7b385856040516024016131619291906140b5565b6040516020818303038152906040529060e01b6020820180517bffffffffffffffffffffffffffffffffffffffffffffffffffffffff83818316178352505050506040516131af919061404c565b6000604051808303816000865af19150503d80600081146131ec576040519150601f19603f3d011682016040523d82523d6000602084013e6131f1565b606091505b509150915081801561321f575060008151148061321e57508080602001905181019061321d91906139a5565b5b5b61325e576040517f08c379a000000000000000000000000000000000000000000000000000000000815260040161325590614214565b60405180910390fd5b5050505050565b600061328d836000018373ffffffffffffffffffffffffffffffffffffffff1660001b613673565b905092915050565b6000808573ffffffffffffffffffffffffffffffffffffffff166323b872dd8686866040516024016132c99392919061407e565b6040516020818303038152906040529060e01b6020820180517bffffffffffffffffffffffffffffffffffffffffffffffffffffffff8381831617835250505050604051613317919061404c565b6000604051808303816000865af19150503d8060008114613354576040519150601f19603f3d011682016040523d82523d6000602084013e613359565b606091505b5091509150818015613387575060008151148061338657508080602001905181019061338591906139a5565b5b5b6133c6576040517f08c379a00000000000000000000000000000000000000000000000000000000081526004016133bd90614434565b60405180910390fd5b505050505050565b60006133da8383613673565b613433578260000182908060018154018082558091505060019003906000526020600020016000909190919091505582600001805490508360010160008481526020019081526020016000208190555060019050613438565b600090505b92915050565b600080836001016000848152602001908152602001600020549050600081146135bc5760006001826134709190614785565b90506000600186600001805490506134889190614785565b905060008660000182815481106134c8577f4e487b7100000000000000000000000000000000000000000000000000000000600052603260045260246000fd5b9060005260206000200154905080876000018481548110613512577f4e487b7100000000000000000000000000000000000000000000000000000000600052603260045260246000fd5b906000526020600020018190555060018361352d91906146d5565b8760010160008381526020019081526020016000208190555086600001805480613580577f4e487b7100000000000000000000000000000000000000000000000000000000600052603160045260246000fd5b600190038181906000526020600020016000905590558660010160008781526020019081526020016000206000905560019450505050506135c2565b60009150505b92915050565b600081836000018054905011613613576040517f08c379a000000000000000000000000000000000000000000000000000000000815260040161360a90614114565b60405180910390fd5b82600001828154811061364f577f4e487b7100000000000000000000000000000000000000000000000000000000600052603260045260246000fd5b9060005260206000200154905092915050565b600081600001805490509050919050565b600080836001016000848152602001908152602001600020541415905092915050565b6040518060400160405280600073ffffffffffffffffffffffffffffffffffffffff168152602001600081525090565b6040518060c0016040528060008152602001600073ffffffffffffffffffffffffffffffffffffffff168152602001600081526020016000815260200160008152602001600081525090565b600061372561372084614682565b61465d565b9050808382526020820190508285604086028201111561374457600080fd5b60005b85811015613774578161375a88826137fc565b845260208401935060408301925050600181019050613747565b5050509392505050565b60008135905061378d81614e86565b92915050565b6000813590506137a281614e9d565b92915050565b600082601f8301126137b957600080fd5b81356137c9848260208601613712565b91505092915050565b6000815190506137e181614eb4565b92915050565b6000813590506137f681614ecb565b92915050565b60006040828403121561380e57600080fd5b613818604061465d565b9050600061382884828501613793565b600083015250602061383c84828501613848565b60208301525092915050565b60008135905061385781614ee2565b92915050565b60008151905061386c81614ee2565b92915050565b60008135905061388181614ef9565b92915050565b60006020828403121561389957600080fd5b60006138a78482850161377e565b91505092915050565b600080604083850312156138c357600080fd5b60006138d185828601613793565b92505060206138e285828601613848565b9150509250929050565b600080604083850312156138ff57600080fd5b600061390d8582860161377e565b925050602061391e85828601613848565b9150509250929050565b6000806040838503121561393b57600080fd5b60006139498582860161377e565b925050602061395a85828601613872565b9150509250929050565b60006020828403121561397657600080fd5b600082013567ffffffffffffffff81111561399057600080fd5b61399c848285016137a8565b91505092915050565b6000602082840312156139b757600080fd5b60006139c5848285016137d2565b91505092915050565b6000602082840312156139e057600080fd5b60006139ee848285016137e7565b91505092915050565b600060208284031215613a0957600080fd5b6000613a1784828501613848565b91505092915050565b600060208284031215613a3257600080fd5b6000613a408482850161385d565b91505092915050565b60008060008060008060c08789031215613a6257600080fd5b6000613a7089828a01613848565b9650506020613a8189828a0161377e565b9550506040613a9289828a01613848565b9450506060613aa389828a01613848565b9350506080613ab489828a01613848565b92505060a0613ac589828a01613848565b9150509295509295509295565b600080600060608486031215613ae757600080fd5b6000613af586828701613848565b9350506020613b0686828701613848565b9250506040613b1786828701613848565b9150509250925092565b600060208284031215613b3357600080fd5b6000613b4184828501613872565b91505092915050565b600080600080600080600080610100898b031215613b6757600080fd5b6000613b758b828c01613872565b9850506020613b868b828c01613872565b9750506040613b978b828c01613872565b9650506060613ba88b828c01613872565b9550506080613bb98b828c01613848565b94505060a0613bca8b828c01613872565b93505060c0613bdb8b828c0161377e565b92505060e0613bec8b828c0161377e565b9150509295985092959890939650565b613c05816147b9565b82525050565b613c14816147dd565b82525050565b6000613c25826146ae565b613c2f81856146b9565b9350613c3f818560208601614856565b80840191505092915050565b613c5481614832565b82525050565b6000613c676022836146c4565b9150613c7282614972565b604082019050919050565b6000613c8a601f836146c4565b9150613c95826149c1565b602082019050919050565b6000613cad6006836146c4565b9150613cb8826149ea565b602082019050919050565b6000613cd0600a836146c4565b9150613cdb82614a13565b602082019050919050565b6000613cf36026836146c4565b9150613cfe82614a3c565b604082019050919050565b6000613d16601c836146c4565b9150613d2182614a8b565b602082019050919050565b6000613d396009836146c4565b9150613d4482614ab4565b602082019050919050565b6000613d5c6009836146c4565b9150613d6782614add565b602082019050919050565b6000613d7f601e836146c4565b9150613d8a82614b06565b602082019050919050565b6000613da26007836146c4565b9150613dad82614b2f565b602082019050919050565b6000613dc56007836146c4565b9150613dd082614b58565b602082019050919050565b6000613de86005836146c4565b9150613df382614b81565b602082019050919050565b6000613e0b6009836146c4565b9150613e1682614baa565b602082019050919050565b6000613e2e6010836146c4565b9150613e3982614bd3565b602082019050919050565b6000613e51600f836146c4565b9150613e5c82614bfc565b602082019050919050565b6000613e746006836146c4565b9150613e7f82614c25565b602082019050919050565b6000613e97600b836146c4565b9150613ea282614c4e565b602082019050919050565b6000613eba6011836146c4565b9150613ec582614c77565b602082019050919050565b6000613edd6020836146c4565b9150613ee882614ca0565b602082019050919050565b6000613f006008836146c4565b9150613f0b82614cc9565b602082019050919050565b6000613f236012836146c4565b9150613f2e82614cf2565b602082019050919050565b6000613f466009836146c4565b9150613f5182614d1b565b602082019050919050565b6000613f696007836146c4565b9150613f7482614d44565b602082019050919050565b6000613f8c600b836146c4565b9150613f9782614d6d565b602082019050919050565b6000613faf600c836146c4565b9150613fba82614d96565b602082019050919050565b6000613fd26024836146c4565b9150613fdd82614dbf565b604082019050919050565b6000613ff5601f836146c4565b915061400082614e0e565b602082019050919050565b60006140186025836146c4565b915061402382614e37565b604082019050919050565b6140378161481b565b82525050565b61404681614825565b82525050565b60006140588284613c1a565b915081905092915050565b60006020820190506140786000830184613bfc565b92915050565b60006060820190506140936000830186613bfc565b6140a06020830185613bfc565b6140ad604083018461402e565b949350505050565b60006040820190506140ca6000830185613bfc565b6140d7602083018461402e565b9392505050565b60006020820190506140f36000830184613c0b565b92915050565b600060208201905061410e6000830184613c4b565b92915050565b6000602082019050818103600083015261412d81613c5a565b9050919050565b6000602082019050818103600083015261414d81613c7d565b9050919050565b6000602082019050818103600083015261416d81613ca0565b9050919050565b6000602082019050818103600083015261418d81613cc3565b9050919050565b600060208201905081810360008301526141ad81613ce6565b9050919050565b600060208201905081810360008301526141cd81613d09565b9050919050565b600060208201905081810360008301526141ed81613d2c565b9050919050565b6000602082019050818103600083015261420d81613d4f565b9050919050565b6000602082019050818103600083015261422d81613d72565b9050919050565b6000602082019050818103600083015261424d81613d95565b9050919050565b6000602082019050818103600083015261426d81613db8565b9050919050565b6000602082019050818103600083015261428d81613ddb565b9050919050565b600060208201905081810360008301526142ad81613dfe565b9050919050565b600060208201905081810360008301526142cd81613e21565b9050919050565b600060208201905081810360008301526142ed81613e44565b9050919050565b6000602082019050818103600083015261430d81613e67565b9050919050565b6000602082019050818103600083015261432d81613e8a565b9050919050565b6000602082019050818103600083015261434d81613ead565b9050919050565b6000602082019050818103600083015261436d81613ed0565b9050919050565b6000602082019050818103600083015261438d81613ef3565b9050919050565b600060208201905081810360008301526143ad81613f16565b9050919050565b600060208201905081810360008301526143cd81613f39565b9050919050565b600060208201905081810360008301526143ed81613f5c565b9050919050565b6000602082019050818103600083015261440d81613f7f565b9050919050565b6000602082019050818103600083015261442d81613fa2565b9050919050565b6000602082019050818103600083015261444d81613fc5565b9050919050565b6000602082019050818103600083015261446d81613fe8565b9050919050565b6000602082019050818103600083015261448d8161400b565b9050919050565b60006020820190506144a9600083018461402e565b92915050565b60006060820190506144c4600083018661402e565b6144d16020830185613bfc565b6144de604083018461402e565b949350505050565b60006080820190506144fb600083018761402e565b6145086020830186613bfc565b614515604083018561402e565b614522606083018461402e565b95945050505050565b600060c082019050614540600083018961402e565b61454d6020830188613bfc565b61455a604083018761402e565b614567606083018661402e565b614574608083018561402e565b61458160a083018461402e565b979650505050505050565b60006040820190506145a1600083018561402e565b6145ae602083018461402e565b9392505050565b60006020820190506145ca600083018461403d565b92915050565b6000610120820190506145e6600083018c61403d565b6145f3602083018b61403d565b614600604083018a61403d565b61460d606083018961403d565b61461a608083018861403d565b61462760a083018761402e565b61463460c0830186613bfc565b61464160e0830185613bfc565b61464f610100830184613bfc565b9a9950505050505050505050565b6000614667614678565b90506146738282614889565b919050565b6000604051905090565b600067ffffffffffffffff82111561469d5761469c614932565b5b602082029050602081019050919050565b600081519050919050565b600081905092915050565b600082825260208201905092915050565b60006146e08261481b565b91506146eb8361481b565b9250827fffffffffffffffffffffffffffffffffffffffffffffffffffffffffffffffff038211156147205761471f614903565b5b828201905092915050565b60006147368261481b565b91506147418361481b565b9250817fffffffffffffffffffffffffffffffffffffffffffffffffffffffffffffffff048311821515161561477a57614779614903565b5b828202905092915050565b60006147908261481b565b915061479b8361481b565b9250828210156147ae576147ad614903565b5b828203905092915050565b60006147c4826147fb565b9050919050565b60006147d6826147fb565b9050919050565b60008115159050919050565b60006147f4826147b9565b9050919050565b600073ffffffffffffffffffffffffffffffffffffffff82169050919050565b6000819050919050565b600060ff82169050919050565b600061483d82614844565b9050919050565b600061484f826147fb565b9050919050565b60005b83811015614874578082015181840152602081019050614859565b83811115614883576000848401525b50505050565b61489282614961565b810181811067ffffffffffffffff821117156148b1576148b0614932565b5b80604052505050565b60006148c58261481b565b91507fffffffffffffffffffffffffffffffffffffffffffffffffffffffffffffffff8214156148f8576148f7614903565b5b600182019050919050565b7f4e487b7100000000000000000000000000000000000000000000000000000000600052601160045260246000fd5b7f4e487b7100000000000000000000000000000000000000000000000000000000600052604160045260246000fd5b6000601f19601f8301169050919050565b7f456e756d657261626c655365743a20696e646578206f7574206f6620626f756e60008201527f6473000000000000000000000000000000000000000000000000000000000000602082015250565b7f5472616e7366657248656c7065723a205452414e534645525f4641494c454400600082015250565b7f414d4f554e540000000000000000000000000000000000000000000000000000600082015250565b7f756e6c6f636b54696d6500000000000000000000000000000000000000000000600082015250565b7f4f776e61626c653a206e6577206f776e657220697320746865207a65726f206160008201527f6464726573730000000000000000000000000000000000000000000000000000602082015250565b7f4561726c79207769746864726177616c2069732064697361626c656400000000600082015250565b7f496e646578204f4f420000000000000000000000000000000000000000000000600082015250565b7f4e4f20544f4b454e530000000000000000000000000000000000000000000000600082015250565b7f5472616e7366657248656c7065723a20415050524f56455f4641494c45440000600082015250565b7f4144445245535300000000000000000000000000000000000000000000000000600082015250565b7f4e4f542053455400000000000000000000000000000000000000000000000000600082015250565b7f4f574e4552000000000000000000000000000000000000000000000000000000600082015250565b7f464f5242494444454e0000000000000000000000000000000000000000000000600082015250565b7f4e4f5420454e4f55474820544f4b454e00000000000000000000000000000000600082015250565b7f504f534954495645204c4f434b49440000000000000000000000000000000000600082015250565b7f4e6f20414d540000000000000000000000000000000000000000000000000000600082015250565b7f4d494e204445504f534954000000000000000000000000000000000000000000600082015250565b7f4e4f5420454e4f55474820544f4b454e53000000000000000000000000000000600082015250565b7f4f776e61626c653a2063616c6c6572206973206e6f7420746865206f776e6572600082015250565b7f6c6f636b54696d65000000000000000000000000000000000000000000000000600082015250565b7f6c6f636b4964204e4f54204d4154434845440000000000000000000000000000600082015250565b7f4e4f20504152414d530000000000000000000000000000000000000000000000600082015250565b7f4e6f204144445200000000000000000000000000000000000000000000000000600082015250565b7f4e4f5420414c4c4f574544000000000000000000000000000000000000000000600082015250565b7f414d4f554e543c57414d4e540000000000000000000000000000000000000000600082015250565b7f5472616e7366657248656c7065723a205452414e534645525f46524f4d5f464160008201527f494c454400000000000000000000000000000000000000000000000000000000602082015250565b7f5265656e7472616e637947756172643a207265656e7472616e742063616c6c00600082015250565b7f4f6e6c79206465706f7369746f722063616e2063616c6c20746869732066756e60008201527f6374696f6e000000000000000000000000000000000000000000000000000000602082015250565b614e8f816147b9565b8114614e9a57600080fd5b50565b614ea6816147cb565b8114614eb157600080fd5b50565b614ebd816147dd565b8114614ec857600080fd5b50565b614ed4816147e9565b8114614edf57600080fd5b50565b614eeb8161481b565b8114614ef657600080fd5b50565b614f0281614825565b8114614f0d57600080fd5b5056fea264697066735822122034150826735a28a70a4eaf0929710562cb58be22fb87fca3cb9b75bc45f3ec0b64736f6c63430008040033",
  "linkReferences": {},
  "deployedLinkReferences": {}
}