{
  "_format": "hh-sol-artifact-1",
  "contractName": "DexPadAdmin",
  "sourceName": "contracts/DexPadAdmin.sol",
  "abi": [
    {
      "anonymous": false,
      "inputs": [
        {
          "indexed": true,
          "internalType": "address",
          "name": "previousOwner",
          "type": "address"
        },
        {
          "indexed": true,
          "internalType": "address",
          "name": "newOwner",
          "type": "address"
        }
      ],
      "name": "OwnershipTransferred",
      "type": "event"
    },
    {
      "inputs": [
        {
          "internalType": "uint256",
          "name": "_index",
          "type": "uint256"
        }
      ],
      "name": "getAdminAtIndex",
      "outputs": [
        {
          "internalType": "address",
          "name": "",
          "type": "address"
        }
      ],
      "stateMutability": "view",
      "type": "function"
    },
    {
      "inputs": [],
      "name": "getAdminsLength",
      "outputs": [
        {
          "internalType": "uint256",
          "name": "",
          "type": "uint256"
        }
      ],
      "stateMutability": "view",
      "type": "function"
    },
    {
      "inputs": [],
      "name": "owner",
      "outputs": [
        {
          "internalType": "address",
          "name": "",
          "type": "address"
        }
      ],
      "stateMutability": "view",
      "type": "function"
    },
    {
      "inputs": [
        {
          "internalType": "address",
          "name": "_user",
          "type": "address"
        },
        {
          "internalType": "bool",
          "name": "_add",
          "type": "bool"
        }
      ],
      "name": "ownerEditAdmin",
      "outputs": [],
      "stateMutability": "nonpayable",
      "type": "function"
    },
    {
      "inputs": [],
      "name": "renounceOwnership",
      "outputs": [],
      "stateMutability": "nonpayable",
      "type": "function"
    },
    {
      "inputs": [
        {
          "internalType": "address",
          "name": "newOwner",
          "type": "address"
        }
      ],
      "name": "transferOwnership",
      "outputs": [],
      "stateMutability": "nonpayable",
      "type": "function"
    },
    {
      "inputs": [
        {
          "internalType": "address",
          "name": "_user",
          "type": "address"
        }
      ],
      "name": "userIsAdmin",
      "outputs": [
        {
          "internalType": "bool",
          "name": "",
          "type": "bool"
        }
      ],
      "stateMutability": "view",
      "type": "function"
    }
  ],
  "bytecode": "0x608060405234801561001057600080fd5b5060006100216100c460201b60201c565b9050806000806101000a81548173ffffffffffffffffffffffffffffffffffffffff021916908373ffffffffffffffffffffffffffffffffffffffff1602179055508073ffffffffffffffffffffffffffffffffffffffff16600073ffffffffffffffffffffffffffffffffffffffff167f8be0079c531659141344cd1fd0a4f28419497f9722a3daafe3b4186f6b6457e060405160405180910390a3506100cc565b600033905090565b610d64806100db6000396000f3fe608060405234801561001057600080fd5b506004361061007d5760003560e01c80638da5cb5b1161005b5780638da5cb5b146100c6578063a8d7bf4c146100e4578063f1c4132e14610114578063f2fde38b146101445761007d565b806336e7b2ed1461008257806337267bc31461009e578063715018a6146100bc575b600080fd5b61009c60048036038101906100979190610964565b610160565b005b6100a6610216565b6040516100b39190610af5565b60405180910390f35b6100c4610227565b005b6100ce610361565b6040516100db9190610a5f565b60405180910390f35b6100fe60048036038101906100f9919061093b565b61038a565b60405161010b9190610a7a565b60405180910390f35b61012e600480360381019061012991906109a0565b6103a7565b60405161013b9190610a5f565b60405180910390f35b61015e6004803603810190610159919061093b565b6103c4565b005b61016861056d565b73ffffffffffffffffffffffffffffffffffffffff16610186610361565b73ffffffffffffffffffffffffffffffffffffffff16146101dc576040517f08c379a00000000000000000000000000000000000000000000000000000000081526004016101d390610ad5565b60405180910390fd5b80156101fc576101f682600161057590919063ffffffff16565b50610212565b6102108260016105a590919063ffffffff16565b505b5050565b600061022260016105d5565b905090565b61022f61056d565b73ffffffffffffffffffffffffffffffffffffffff1661024d610361565b73ffffffffffffffffffffffffffffffffffffffff16146102a3576040517f08c379a000000000000000000000000000000000000000000000000000000000815260040161029a90610ad5565b60405180910390fd5b600073ffffffffffffffffffffffffffffffffffffffff1660008054906101000a900473ffffffffffffffffffffffffffffffffffffffff1673ffffffffffffffffffffffffffffffffffffffff167f8be0079c531659141344cd1fd0a4f28419497f9722a3daafe3b4186f6b6457e060405160405180910390a360008060006101000a81548173ffffffffffffffffffffffffffffffffffffffff021916908373ffffffffffffffffffffffffffffffffffffffff160217905550565b60008060009054906101000a900473ffffffffffffffffffffffffffffffffffffffff16905090565b60006103a08260016105ea90919063ffffffff16565b9050919050565b60006103bd82600161061a90919063ffffffff16565b9050919050565b6103cc61056d565b73ffffffffffffffffffffffffffffffffffffffff166103ea610361565b73ffffffffffffffffffffffffffffffffffffffff1614610440576040517f08c379a000000000000000000000000000000000000000000000000000000000815260040161043790610ad5565b60405180910390fd5b600073ffffffffffffffffffffffffffffffffffffffff168173ffffffffffffffffffffffffffffffffffffffff1614156104b0576040517f08c379a00000000000000000000000000000000000000000000000000000000081526004016104a790610ab5565b60405180910390fd5b8073ffffffffffffffffffffffffffffffffffffffff1660008054906101000a900473ffffffffffffffffffffffffffffffffffffffff1673ffffffffffffffffffffffffffffffffffffffff167f8be0079c531659141344cd1fd0a4f28419497f9722a3daafe3b4186f6b6457e060405160405180910390a3806000806101000a81548173ffffffffffffffffffffffffffffffffffffffff021916908373ffffffffffffffffffffffffffffffffffffffff16021790555050565b600033905090565b600061059d836000018373ffffffffffffffffffffffffffffffffffffffff1660001b610634565b905092915050565b60006105cd836000018373ffffffffffffffffffffffffffffffffffffffff1660001b6106a4565b905092915050565b60006105e38260000161082e565b9050919050565b6000610612836000018373ffffffffffffffffffffffffffffffffffffffff1660001b61083f565b905092915050565b60006106298360000183610862565b60001c905092915050565b6000610640838361083f565b61069957826000018290806001815401808255809150506001900390600052602060002001600090919091909150558260000180549050836001016000848152602001908152602001600020819055506001905061069e565b600090505b92915050565b600080836001016000848152602001908152602001600020549050600081146108225760006001826106d69190610b77565b90506000600186600001805490506106ee9190610b77565b9050600086600001828154811061072e577f4e487b7100000000000000000000000000000000000000000000000000000000600052603260045260246000fd5b9060005260206000200154905080876000018481548110610778577f4e487b7100000000000000000000000000000000000000000000000000000000600052603260045260246000fd5b90600052602060002001819055506001836107939190610b21565b87600101600083815260200190815260200160002081905550866000018054806107e6577f4e487b7100000000000000000000000000000000000000000000000000000000600052603160045260246000fd5b60019003818190600052602060002001600090559055866001016000878152602001908152602001600020600090556001945050505050610828565b60009150505b92915050565b600081600001805490509050919050565b600080836001016000848152602001908152602001600020541415905092915050565b6000818360000180549050116108ad576040517f08c379a00000000000000000000000000000000000000000000000000000000081526004016108a490610a95565b60405180910390fd5b8260000182815481106108e9577f4e487b7100000000000000000000000000000000000000000000000000000000600052603260045260246000fd5b9060005260206000200154905092915050565b60008135905061090b81610ce9565b92915050565b60008135905061092081610d00565b92915050565b60008135905061093581610d17565b92915050565b60006020828403121561094d57600080fd5b600061095b848285016108fc565b91505092915050565b6000806040838503121561097757600080fd5b6000610985858286016108fc565b925050602061099685828601610911565b9150509250929050565b6000602082840312156109b257600080fd5b60006109c084828501610926565b91505092915050565b6109d281610bab565b82525050565b6109e181610bbd565b82525050565b60006109f4602283610b10565b91506109ff82610c22565b604082019050919050565b6000610a17602683610b10565b9150610a2282610c71565b604082019050919050565b6000610a3a602083610b10565b9150610a4582610cc0565b602082019050919050565b610a5981610be9565b82525050565b6000602082019050610a7460008301846109c9565b92915050565b6000602082019050610a8f60008301846109d8565b92915050565b60006020820190508181036000830152610aae816109e7565b9050919050565b60006020820190508181036000830152610ace81610a0a565b9050919050565b60006020820190508181036000830152610aee81610a2d565b9050919050565b6000602082019050610b0a6000830184610a50565b92915050565b600082825260208201905092915050565b6000610b2c82610be9565b9150610b3783610be9565b9250827fffffffffffffffffffffffffffffffffffffffffffffffffffffffffffffffff03821115610b6c57610b6b610bf3565b5b828201905092915050565b6000610b8282610be9565b9150610b8d83610be9565b925082821015610ba057610b9f610bf3565b5b828203905092915050565b6000610bb682610bc9565b9050919050565b60008115159050919050565b600073ffffffffffffffffffffffffffffffffffffffff82169050919050565b6000819050919050565b7f4e487b7100000000000000000000000000000000000000000000000000000000600052601160045260246000fd5b7f456e756d657261626c655365743a20696e646578206f7574206f6620626f756e60008201527f6473000000000000000000000000000000000000000000000000000000000000602082015250565b7f4f776e61626c653a206e6577206f776e657220697320746865207a65726f206160008201527f6464726573730000000000000000000000000000000000000000000000000000602082015250565b7f4f776e61626c653a2063616c6c6572206973206e6f7420746865206f776e6572600082015250565b610cf281610bab565b8114610cfd57600080fd5b50565b610d0981610bbd565b8114610d1457600080fd5b50565b610d2081610be9565b8114610d2b57600080fd5b5056fea26469706673582212200cd36fcd29aec10d46796612bf6b6e39c708cf624bf952503dcf46b12f4f32b664736f6c63430008040033",
  "linkReferences": {},
  "deployedLinkReferences": {}
}