{
  "_format": "hh-sol-artifact-1",
  "contractName": "SimpleAirdropper",
  "sourceName": "contracts/SimpleAirdropper.sol",
  "abi": [
    {
      "anonymous": false,
      "inputs": [
        {
          "indexed": false,
          "internalType": "uint256",
          "name": "total",
          "type": "uint256"
        },
        {
          "indexed": false,
          "internalType": "contract IERC20",
          "name": "token",
          "type": "address"
        },
        {
          "indexed": false,
          "internalType": "address",
          "name": "sender",
          "type": "address"
        }
      ],
      "name": "Airdropped",
      "type": "event"
    },
    {
      "inputs": [
        {
          "internalType": "contract IERC20",
          "name": "_token",
          "type": "address"
        },
        {
          "internalType": "address[]",
          "name": "_recipients",
          "type": "address[]"
        },
        {
          "internalType": "uint256[]",
          "name": "_amounts",
          "type": "uint256[]"
        }
      ],
      "name": "airdropToken",
      "outputs": [],
      "stateMutability": "nonpayable",
      "type": "function"
    },
    {
      "inputs": [
        {
          "internalType": "contract IERC20",
          "name": "_token",
          "type": "address"
        },
        {
          "internalType": "address[]",
          "name": "_recipients",
          "type": "address[]"
        },
        {
          "internalType": "uint256[]",
          "name": "_amounts",
          "type": "uint256[]"
        }
      ],
      "name": "checkAirdropValidity",
      "outputs": [
        {
          "internalType": "bool",
          "name": "isValid",
          "type": "bool"
        },
        {
          "internalType": "string",
          "name": "reason",
          "type": "string"
        },
        {
          "internalType": "uint256",
          "name": "totalAmount",
          "type": "uint256"
        }
      ],
      "stateMutability": "view",
      "type": "function"
    }
  ],
  "bytecode": "0x608060405234801561001057600080fd5b50610df8806100206000396000f3fe608060405234801561001057600080fd5b50600436106100365760003560e01c80633110955e1461003b57806363aedb381461006d575b600080fd5b610055600480360381019061005091906107e5565b610089565b604051610064939291906109f0565b60405180910390f35b610087600480360381019061008291906107e5565b61038b565b005b60006060600080878790509050858590508160ff16146100e9576000806040518060400160405280601381526020017f4d6973746d61746368696e6720617272617973000000000000000000000000008152509093509350935050610380565b60c88160ff16111561013b576000806040518060400160405280601681526020017f4d6178696d756d2032303020726563697069656e7473000000000000000000008152509093509350935050610380565b6000805b8260ff168160ff1610156101b7576101a288888360ff1681811061018c577f4e487b7100000000000000000000000000000000000000000000000000000000600052603260045260246000fd5b905060200201358361069590919063ffffffff16565b915080806101af90610bf5565b91505061013f565b5060008a73ffffffffffffffffffffffffffffffffffffffff1663dd62ed3e33306040518363ffffffff1660e01b81526004016101f5929190610990565b60206040518083038186803b15801561020d57600080fd5b505afa158015610221573d6000803e3d6000fd5b505050506040513d601f19601f82011682018060405250810190610245919061086e565b90508082111561027a57600082604051806080016040528060508152602001610d376050913990955095509550505050610380565b60008b73ffffffffffffffffffffffffffffffffffffffff166370a08231336040518263ffffffff1660e01b81526004016102b59190610975565b60206040518083038186803b1580156102cd57600080fd5b505afa1580156102e1573d6000803e3d6000fd5b505050506040513d601f19601f82011682018060405250810190610305919061086e565b90508083111561033b576000836040518060600160405280603c8152602001610d87603c91399096509650965050505050610380565b6001836040518060400160405280600d81526020017f526561647920746f2064726f700000000000000000000000000000000000000081525090965096509650505050505b955095509592505050565b6000848490509050828290508160ff16146103db576040517f08c379a00000000000000000000000000000000000000000000000000000000081526004016103d290610a6e565b60405180910390fd5b60c88160ff161115610422576040517f08c379a000000000000000000000000000000000000000000000000000000000815260040161041990610a2e565b60405180910390fd5b60008673ffffffffffffffffffffffffffffffffffffffff166318160ddd6040518163ffffffff1660e01b815260040160206040518083038186803b15801561046a57600080fd5b505afa15801561047e573d6000803e3d6000fd5b505050506040513d601f19601f820116820180604052508101906104a2919061086e565b9050600081116104e7576040517f08c379a00000000000000000000000000000000000000000000000000000000081526004016104de90610a4e565b60405180910390fd5b6000805b8360ff168160ff16101561064f57600086868360ff16818110610537577f4e487b7100000000000000000000000000000000000000000000000000000000600052603260045260246000fd5b905060200201359050600089898460ff1681811061057e577f4e487b7100000000000000000000000000000000000000000000000000000000600052603260045260246000fd5b90506020020160208101906105939190610793565b90508a73ffffffffffffffffffffffffffffffffffffffff166323b872dd3383856040518463ffffffff1660e01b81526004016105d2939291906109b9565b602060405180830381600087803b1580156105ec57600080fd5b505af1158015610600573d6000803e3d6000fd5b505050506040513d601f19601f8201168201806040525081019061062491906107bc565b50610638828561069590919063ffffffff16565b93505050808061064790610bf5565b9150506104eb565b507ff5abbc25485583d3dc7ab3d5f8c9640c049c7c798462f2c5364c881b6415d05d81893360405161068393929190610a8e565b60405180910390a15050505050505050565b600081836106a39190610ae1565b905092915050565b6000813590506106ba81610cda565b92915050565b60008083601f8401126106d257600080fd5b8235905067ffffffffffffffff8111156106eb57600080fd5b60208301915083602082028301111561070357600080fd5b9250929050565b60008083601f84011261071c57600080fd5b8235905067ffffffffffffffff81111561073557600080fd5b60208301915083602082028301111561074d57600080fd5b9250929050565b60008151905061076381610cf1565b92915050565b60008135905061077881610d08565b92915050565b60008151905061078d81610d1f565b92915050565b6000602082840312156107a557600080fd5b60006107b3848285016106ab565b91505092915050565b6000602082840312156107ce57600080fd5b60006107dc84828501610754565b91505092915050565b6000806000806000606086880312156107fd57600080fd5b600061080b88828901610769565b955050602086013567ffffffffffffffff81111561082857600080fd5b610834888289016106c0565b9450945050604086013567ffffffffffffffff81111561085357600080fd5b61085f8882890161070a565b92509250509295509295909350565b60006020828403121561088057600080fd5b600061088e8482850161077e565b91505092915050565b6108a081610b37565b82525050565b6108af81610b49565b82525050565b6108be81610b9e565b82525050565b60006108cf82610ac5565b6108d98185610ad0565b93506108e9818560208601610bc2565b6108f281610c4e565b840191505092915050565b600061090a601383610ad0565b915061091582610c5f565b602082019050919050565b600061092d600d83610ad0565b915061093882610c88565b602082019050919050565b6000610950601283610ad0565b915061095b82610cb1565b602082019050919050565b61096f81610b87565b82525050565b600060208201905061098a6000830184610897565b92915050565b60006040820190506109a56000830185610897565b6109b26020830184610897565b9392505050565b60006060820190506109ce6000830186610897565b6109db6020830185610897565b6109e86040830184610966565b949350505050565b6000606082019050610a0560008301866108a6565b8181036020830152610a1781856108c4565b9050610a266040830184610966565b949350505050565b60006020820190508181036000830152610a47816108fd565b9050919050565b60006020820190508181036000830152610a6781610920565b9050919050565b60006020820190508181036000830152610a8781610943565b9050919050565b6000606082019050610aa36000830186610966565b610ab060208301856108b5565b610abd6040830184610897565b949350505050565b600081519050919050565b600082825260208201905092915050565b6000610aec82610b87565b9150610af783610b87565b9250827fffffffffffffffffffffffffffffffffffffffffffffffffffffffffffffffff03821115610b2c57610b2b610c1f565b5b828201905092915050565b6000610b4282610b67565b9050919050565b60008115159050919050565b6000610b6082610b37565b9050919050565b600073ffffffffffffffffffffffffffffffffffffffff82169050919050565b6000819050919050565b600060ff82169050919050565b6000610ba982610bb0565b9050919050565b6000610bbb82610b67565b9050919050565b60005b83811015610be0578082015181840152602081019050610bc5565b83811115610bef576000848401525b50505050565b6000610c0082610b91565b915060ff821415610c1457610c13610c1f565b5b600182019050919050565b7f4e487b7100000000000000000000000000000000000000000000000000000000600052601160045260246000fd5b6000601f19601f8301169050919050565b7f546f6f206d616e7920726563697069656e747300000000000000000000000000600082015250565b7f496e76616c696420746f6b656e00000000000000000000000000000000000000600082015250565b7f4d69736d61746368696e67206172726179730000000000000000000000000000600082015250565b610ce381610b37565b8114610cee57600080fd5b50565b610cfa81610b49565b8114610d0557600080fd5b50565b610d1181610b55565b8114610d1c57600080fd5b50565b610d2881610b87565b8114610d3357600080fd5b5056fe496e73756666696369656e7420616c6c6f77616e6365202d20796f75206d75737420666972737420617070726f7665207468697320636f6e747261637420746f207370656e642074686520746f6b656e496e73756666696369656e742062616c616e6365202d20796f7520646f206e6f74206861766520656e6f75676820746f6b656e20746f207370656e64a264697066735822122018ec6d3ab8bb308ae78dd59eb54cce5f97b0bf5c455655077f13ec0613f935ae64736f6c63430008040033",
  "linkReferences": {},
  "deployedLinkReferences": {}
}