{
  "_format": "hh-sol-artifact-1",
  "contractName": "myBasicMCFCoin",
  "sourceName": "contracts/MyMCFcoinsimple.sol",
  "abi": [
    {
      "inputs": [
        {
          "internalType": "string",
          "name": "_NAME",
          "type": "string"
        },
        {
          "internalType": "string",
          "name": "_SYMBOL",
          "type": "string"
        },
        {
          "internalType": "uint256",
          "name": "_DECIMALS",
          "type": "uint256"
        },
        {
          "internalType": "uint256",
          "name": "_supply",
          "type": "uint256"
        },
        {
          "internalType": "address",
          "name": "routerAddress",
          "type": "address"
        },
        {
          "internalType": "address",
          "name": "tokenOwner",
          "type": "address"
        }
      ],
      "stateMutability": "payable",
      "type": "constructor"
    },
    {
      "anonymous": false,
      "inputs": [
        {
          "indexed": true,
          "internalType": "address",
          "name": "owner",
          "type": "address"
        },
        {
          "indexed": true,
          "internalType": "address",
          "name": "spender",
          "type": "address"
        },
        {
          "indexed": false,
          "internalType": "uint256",
          "name": "value",
          "type": "uint256"
        }
      ],
      "name": "Approval",
      "type": "event"
    },
    {
      "anonymous": false,
      "inputs": [
        {
          "indexed": true,
          "internalType": "address",
          "name": "previousOwner",
          "type": "address"
        },
        {
          "indexed": true,
          "internalType": "address",
          "name": "newOwner",
          "type": "address"
        }
      ],
      "name": "OwnershipTransferred",
      "type": "event"
    },
    {
      "anonymous": false,
      "inputs": [
        {
          "indexed": true,
          "internalType": "address",
          "name": "from",
          "type": "address"
        },
        {
          "indexed": true,
          "internalType": "address",
          "name": "to",
          "type": "address"
        },
        {
          "indexed": false,
          "internalType": "uint256",
          "name": "value",
          "type": "uint256"
        }
      ],
      "name": "Transfer",
      "type": "event"
    },
    {
      "inputs": [
        {
          "internalType": "address",
          "name": "owner",
          "type": "address"
        },
        {
          "internalType": "address",
          "name": "spender",
          "type": "address"
        }
      ],
      "name": "allowance",
      "outputs": [
        {
          "internalType": "uint256",
          "name": "",
          "type": "uint256"
        }
      ],
      "stateMutability": "view",
      "type": "function"
    },
    {
      "inputs": [
        {
          "internalType": "address",
          "name": "spender",
          "type": "address"
        },
        {
          "internalType": "uint256",
          "name": "amount",
          "type": "uint256"
        }
      ],
      "name": "approve",
      "outputs": [
        {
          "internalType": "bool",
          "name": "",
          "type": "bool"
        }
      ],
      "stateMutability": "nonpayable",
      "type": "function"
    },
    {
      "inputs": [
        {
          "internalType": "address",
          "name": "account",
          "type": "address"
        }
      ],
      "name": "balanceOf",
      "outputs": [
        {
          "internalType": "uint256",
          "name": "",
          "type": "uint256"
        }
      ],
      "stateMutability": "view",
      "type": "function"
    },
    {
      "inputs": [],
      "name": "decimals",
      "outputs": [
        {
          "internalType": "uint256",
          "name": "",
          "type": "uint256"
        }
      ],
      "stateMutability": "view",
      "type": "function"
    },
    {
      "inputs": [],
      "name": "getOwner",
      "outputs": [
        {
          "internalType": "address",
          "name": "",
          "type": "address"
        }
      ],
      "stateMutability": "view",
      "type": "function"
    },
    {
      "inputs": [],
      "name": "name",
      "outputs": [
        {
          "internalType": "string",
          "name": "",
          "type": "string"
        }
      ],
      "stateMutability": "view",
      "type": "function"
    },
    {
      "inputs": [],
      "name": "owner",
      "outputs": [
        {
          "internalType": "address",
          "name": "",
          "type": "address"
        }
      ],
      "stateMutability": "view",
      "type": "function"
    },
    {
      "inputs": [],
      "name": "renounceOwnership",
      "outputs": [],
      "stateMutability": "nonpayable",
      "type": "function"
    },
    {
      "inputs": [],
      "name": "symbol",
      "outputs": [
        {
          "internalType": "string",
          "name": "",
          "type": "string"
        }
      ],
      "stateMutability": "view",
      "type": "function"
    },
    {
      "inputs": [],
      "name": "totalSupply",
      "outputs": [
        {
          "internalType": "uint256",
          "name": "",
          "type": "uint256"
        }
      ],
      "stateMutability": "view",
      "type": "function"
    },
    {
      "inputs": [
        {
          "internalType": "address",
          "name": "recipient",
          "type": "address"
        },
        {
          "internalType": "uint256",
          "name": "amount",
          "type": "uint256"
        }
      ],
      "name": "transfer",
      "outputs": [
        {
          "internalType": "bool",
          "name": "",
          "type": "bool"
        }
      ],
      "stateMutability": "nonpayable",
      "type": "function"
    },
    {
      "inputs": [
        {
          "internalType": "address",
          "name": "sender",
          "type": "address"
        },
        {
          "internalType": "address",
          "name": "recipient",
          "type": "address"
        },
        {
          "internalType": "uint256",
          "name": "amount",
          "type": "uint256"
        }
      ],
      "name": "transferFrom",
      "outputs": [
        {
          "internalType": "bool",
          "name": "",
          "type": "bool"
        }
      ],
      "stateMutability": "nonpayable",
      "type": "function"
    },
    {
      "inputs": [
        {
          "internalType": "address",
          "name": "newOwner",
          "type": "address"
        }
      ],
      "name": "transferOwnership",
      "outputs": [],
      "stateMutability": "nonpayable",
      "type": "function"
    },
    {
      "inputs": [],
      "name": "uniswapV2Pair",
      "outputs": [
        {
          "internalType": "address",
          "name": "",
          "type": "address"
        }
      ],
      "stateMutability": "view",
      "type": "function"
    },
    {
      "inputs": [],
      "name": "uniswapV2Router",
      "outputs": [
        {
          "internalType": "contract IUniswapV2Router02",
          "name": "",
          "type": "address"
        }
      ],
      "stateMutability": "view",
      "type": "function"
    },
    {
      "stateMutability": "payable",
      "type": "receive"
    }
  ],
  "bytecode": "0x60806040526012600655604051620023e6380380620023e683398181016040528101906200002e919062000650565b6200004e620000426200040860201b60201c565b6200041060201b60201c565b856004908051906020019062000066929190620004d4565b5084600590805190602001906200007f929190620004d4565b5083600681905550600654600a6200009891906200083e565b83620000a591906200097b565b60078190555060008290508073ffffffffffffffffffffffffffffffffffffffff1663c45a01556040518163ffffffff1660e01b815260040160206040518083038186803b158015620000f757600080fd5b505afa1580156200010c573d6000803e3d6000fd5b505050506040513d601f19601f8201168201806040525081019062000132919062000624565b73ffffffffffffffffffffffffffffffffffffffff1663c9c65396308373ffffffffffffffffffffffffffffffffffffffff1663ad5c46486040518163ffffffff1660e01b815260040160206040518083038186803b1580156200019557600080fd5b505afa158015620001aa573d6000803e3d6000fd5b505050506040513d601f19601f82011682018060405250810190620001d0919062000624565b6040518363ffffffff1660e01b8152600401620001ef9291906200073a565b602060405180830381600087803b1580156200020a57600080fd5b505af11580156200021f573d6000803e3d6000fd5b505050506040513d601f19601f8201168201806040525081019062000245919062000624565b600960006101000a81548173ffffffffffffffffffffffffffffffffffffffff021916908373ffffffffffffffffffffffffffffffffffffffff16021790555080600860006101000a81548173ffffffffffffffffffffffffffffffffffffffff021916908373ffffffffffffffffffffffffffffffffffffffff16021790555081600360006101000a81548173ffffffffffffffffffffffffffffffffffffffff021916908373ffffffffffffffffffffffffffffffffffffffff16021790555060075460016000600360009054906101000a900473ffffffffffffffffffffffffffffffffffffffff1673ffffffffffffffffffffffffffffffffffffffff1673ffffffffffffffffffffffffffffffffffffffff16815260200190815260200160002081905550600360009054906101000a900473ffffffffffffffffffffffffffffffffffffffff1673ffffffffffffffffffffffffffffffffffffffff16600073ffffffffffffffffffffffffffffffffffffffff167fddf252ad1be2c89b69c2b068fc378daa952ba7f163c4a11628f55a4df523b3ef600754604051620003f3919062000767565b60405180910390a35050505050505062000b9b565b600033905090565b60008060009054906101000a900473ffffffffffffffffffffffffffffffffffffffff169050816000806101000a81548173ffffffffffffffffffffffffffffffffffffffff021916908373ffffffffffffffffffffffffffffffffffffffff1602179055508173ffffffffffffffffffffffffffffffffffffffff168173ffffffffffffffffffffffffffffffffffffffff167f8be0079c531659141344cd1fd0a4f28419497f9722a3daafe3b4186f6b6457e060405160405180910390a35050565b828054620004e29062000a50565b90600052602060002090601f01602090048101928262000506576000855562000552565b82601f106200052157805160ff191683800117855562000552565b8280016001018555821562000552579182015b828111156200055157825182559160200191906001019062000534565b5b50905062000561919062000565565b5090565b5b808211156200058057600081600090555060010162000566565b5090565b60006200059b6200059584620007ad565b62000784565b905082815260208101848484011115620005b457600080fd5b620005c184828562000a1a565b509392505050565b600081519050620005da8162000b67565b92915050565b600082601f830112620005f257600080fd5b81516200060484826020860162000584565b91505092915050565b6000815190506200061e8162000b81565b92915050565b6000602082840312156200063757600080fd5b60006200064784828501620005c9565b91505092915050565b60008060008060008060c087890312156200066a57600080fd5b600087015167ffffffffffffffff8111156200068557600080fd5b6200069389828a01620005e0565b965050602087015167ffffffffffffffff811115620006b157600080fd5b620006bf89828a01620005e0565b9550506040620006d289828a016200060d565b9450506060620006e589828a016200060d565b9350506080620006f889828a01620005c9565b92505060a06200070b89828a01620005c9565b9150509295509295509295565b6200072381620009dc565b82525050565b620007348162000a10565b82525050565b600060408201905062000751600083018562000718565b62000760602083018462000718565b9392505050565b60006020820190506200077e600083018462000729565b92915050565b600062000790620007a3565b90506200079e828262000a86565b919050565b6000604051905090565b600067ffffffffffffffff821115620007cb57620007ca62000b1a565b5b620007d68262000b49565b9050602081019050919050565b6000808291508390505b600185111562000835578086048111156200080d576200080c62000abc565b5b60018516156200081d5780820291505b80810290506200082d8562000b5a565b9450620007ed565b94509492505050565b60006200084b8262000a10565b9150620008588362000a10565b9250620008877fffffffffffffffffffffffffffffffffffffffffffffffffffffffffffffffff84846200088f565b905092915050565b600082620008a1576001905062000974565b81620008b1576000905062000974565b8160018114620008ca5760028114620008d5576200090b565b600191505062000974565b60ff841115620008ea57620008e962000abc565b5b8360020a91508482111562000904576200090362000abc565b5b5062000974565b5060208310610133831016604e8410600b8410161715620009455782820a9050838111156200093f576200093e62000abc565b5b62000974565b620009548484846001620007e3565b925090508184048111156200096e576200096d62000abc565b5b81810290505b9392505050565b6000620009888262000a10565b9150620009958362000a10565b9250817fffffffffffffffffffffffffffffffffffffffffffffffffffffffffffffffff0483118215151615620009d157620009d062000abc565b5b828202905092915050565b6000620009e982620009f0565b9050919050565b600073ffffffffffffffffffffffffffffffffffffffff82169050919050565b6000819050919050565b60005b8381101562000a3a57808201518184015260208101905062000a1d565b8381111562000a4a576000848401525b50505050565b6000600282049050600182168062000a6957607f821691505b6020821081141562000a805762000a7f62000aeb565b5b50919050565b62000a918262000b49565b810181811067ffffffffffffffff8211171562000ab35762000ab262000b1a565b5b80604052505050565b7f4e487b7100000000000000000000000000000000000000000000000000000000600052601160045260246000fd5b7f4e487b7100000000000000000000000000000000000000000000000000000000600052602260045260246000fd5b7f4e487b7100000000000000000000000000000000000000000000000000000000600052604160045260246000fd5b6000601f19601f8301169050919050565b60008160011c9050919050565b62000b7281620009dc565b811462000b7e57600080fd5b50565b62000b8c8162000a10565b811462000b9857600080fd5b50565b61183b8062000bab6000396000f3fe6080604052600436106100ec5760003560e01c806370a082311161008a57806395d89b411161005957806395d89b41146102f3578063a9059cbb1461031e578063dd62ed3e1461035b578063f2fde38b14610398576100f3565b806370a0823114610249578063715018a614610286578063893d20e81461029d5780638da5cb5b146102c8576100f3565b806318160ddd116100c657806318160ddd1461018b57806323b872dd146101b6578063313ce567146101f357806349bd5a5e1461021e576100f3565b806306fdde03146100f8578063095ea7b3146101235780631694505e14610160576100f3565b366100f357005b600080fd5b34801561010457600080fd5b5061010d6103c1565b60405161011a91906111f3565b60405180910390f35b34801561012f57600080fd5b5061014a60048036038101906101459190610fb6565b610453565b60405161015791906111bd565b60405180910390f35b34801561016c57600080fd5b50610175610471565b60405161018291906111d8565b60405180910390f35b34801561019757600080fd5b506101a0610497565b6040516101ad9190611335565b60405180910390f35b3480156101c257600080fd5b506101dd60048036038101906101d89190610f67565b6104a1565b6040516101ea91906111bd565b60405180910390f35b3480156101ff57600080fd5b5061020861061f565b6040516102159190611335565b60405180910390f35b34801561022a57600080fd5b50610233610629565b60405161024091906111a2565b60405180910390f35b34801561025557600080fd5b50610270600480360381019061026b9190610f02565b61064f565b60405161027d9190611335565b60405180910390f35b34801561029257600080fd5b5061029b610698565b005b3480156102a957600080fd5b506102b2610720565b6040516102bf91906111a2565b60405180910390f35b3480156102d457600080fd5b506102dd61072f565b6040516102ea91906111a2565b60405180910390f35b3480156102ff57600080fd5b50610308610758565b60405161031591906111f3565b60405180910390f35b34801561032a57600080fd5b5061034560048036038101906103409190610fb6565b6107ea565b60405161035291906111bd565b60405180910390f35b34801561036757600080fd5b50610382600480360381019061037d9190610f2b565b610808565b60405161038f9190611335565b60405180910390f35b3480156103a457600080fd5b506103bf60048036038101906103ba9190610f02565b61088f565b005b6060600480546103d090611495565b80601f01602080910402602001604051908101604052809291908181526020018280546103fc90611495565b80156104495780601f1061041e57610100808354040283529160200191610449565b820191906000526020600020905b81548152906001019060200180831161042c57829003601f168201915b5050505050905090565b6000610467610460610987565b848461098f565b6001905092915050565b600860009054906101000a900473ffffffffffffffffffffffffffffffffffffffff1681565b6000600754905090565b6000600260008573ffffffffffffffffffffffffffffffffffffffff1673ffffffffffffffffffffffffffffffffffffffff16815260200190815260200160002060006104ec610987565b73ffffffffffffffffffffffffffffffffffffffff1673ffffffffffffffffffffffffffffffffffffffff16815260200190815260200160002054821115610569576040517f08c379a000000000000000000000000000000000000000000000000000000000815260040161056090611295565b60405180910390fd5b610574848484610b5a565b61061484610580610987565b84600260008973ffffffffffffffffffffffffffffffffffffffff1673ffffffffffffffffffffffffffffffffffffffff16815260200190815260200160002060006105ca610987565b73ffffffffffffffffffffffffffffffffffffffff1673ffffffffffffffffffffffffffffffffffffffff1681526020019081526020016000205461060f91906113c2565b61098f565b600190509392505050565b6000600654905090565b600960009054906101000a900473ffffffffffffffffffffffffffffffffffffffff1681565b6000600160008373ffffffffffffffffffffffffffffffffffffffff1673ffffffffffffffffffffffffffffffffffffffff168152602001908152602001600020549050919050565b6106a0610987565b73ffffffffffffffffffffffffffffffffffffffff166106be61072f565b73ffffffffffffffffffffffffffffffffffffffff1614610714576040517f08c379a000000000000000000000000000000000000000000000000000000000815260040161070b906112f5565b60405180910390fd5b61071e6000610e14565b565b600061072a61072f565b905090565b60008060009054906101000a900473ffffffffffffffffffffffffffffffffffffffff16905090565b60606005805461076790611495565b80601f016020809104026020016040519081016040528092919081815260200182805461079390611495565b80156107e05780601f106107b5576101008083540402835291602001916107e0565b820191906000526020600020905b8154815290600101906020018083116107c357829003601f168201915b5050505050905090565b60006107fe6107f7610987565b8484610b5a565b6001905092915050565b6000600260008473ffffffffffffffffffffffffffffffffffffffff1673ffffffffffffffffffffffffffffffffffffffff16815260200190815260200160002060008373ffffffffffffffffffffffffffffffffffffffff1673ffffffffffffffffffffffffffffffffffffffff16815260200190815260200160002054905092915050565b610897610987565b73ffffffffffffffffffffffffffffffffffffffff166108b561072f565b73ffffffffffffffffffffffffffffffffffffffff161461090b576040517f08c379a0000000000000000000000000000000000000000000000000000000008152600401610902906112f5565b60405180910390fd5b600073ffffffffffffffffffffffffffffffffffffffff168173ffffffffffffffffffffffffffffffffffffffff16141561097b576040517f08c379a000000000000000000000000000000000000000000000000000000000815260040161097290611275565b60405180910390fd5b61098481610e14565b50565b600033905090565b600073ffffffffffffffffffffffffffffffffffffffff168373ffffffffffffffffffffffffffffffffffffffff1614156109ff576040517f08c379a00000000000000000000000000000000000000000000000000000000081526004016109f690611215565b60405180910390fd5b600073ffffffffffffffffffffffffffffffffffffffff168273ffffffffffffffffffffffffffffffffffffffff161415610a6f576040517f08c379a0000000000000000000000000000000000000000000000000000000008152600401610a6690611255565b60405180910390fd5b80600260008573ffffffffffffffffffffffffffffffffffffffff1673ffffffffffffffffffffffffffffffffffffffff16815260200190815260200160002060008473ffffffffffffffffffffffffffffffffffffffff1673ffffffffffffffffffffffffffffffffffffffff168152602001908152602001600020819055508173ffffffffffffffffffffffffffffffffffffffff168373ffffffffffffffffffffffffffffffffffffffff167f8c5be1e5ebec7d5bd14f71427d1e84f3dd0314c0f7b2291e5b200ac8c7c3b92583604051610b4d9190611335565b60405180910390a3505050565b600073ffffffffffffffffffffffffffffffffffffffff168373ffffffffffffffffffffffffffffffffffffffff161415610bca576040517f08c379a0000000000000000000000000000000000000000000000000000000008152600401610bc190611235565b60405180910390fd5b600073ffffffffffffffffffffffffffffffffffffffff168273ffffffffffffffffffffffffffffffffffffffff161415610c3a576040517f08c379a0000000000000000000000000000000000000000000000000000000008152600401610c31906112b5565b60405180910390fd5b60008111610c7d576040517f08c379a0000000000000000000000000000000000000000000000000000000008152600401610c74906112d5565b60405180910390fd5b6000600160008573ffffffffffffffffffffffffffffffffffffffff1673ffffffffffffffffffffffffffffffffffffffff16815260200190815260200160002054905081811015610d04576040517f08c379a0000000000000000000000000000000000000000000000000000000008152600401610cfb90611315565b60405180910390fd5b8181610d1091906113c2565b600160008673ffffffffffffffffffffffffffffffffffffffff1673ffffffffffffffffffffffffffffffffffffffff1681526020019081526020016000208190555081600160008573ffffffffffffffffffffffffffffffffffffffff1673ffffffffffffffffffffffffffffffffffffffff1681526020019081526020016000206000828254610da2919061136c565b925050819055508273ffffffffffffffffffffffffffffffffffffffff168473ffffffffffffffffffffffffffffffffffffffff167fddf252ad1be2c89b69c2b068fc378daa952ba7f163c4a11628f55a4df523b3ef84604051610e069190611335565b60405180910390a350505050565b60008060009054906101000a900473ffffffffffffffffffffffffffffffffffffffff169050816000806101000a81548173ffffffffffffffffffffffffffffffffffffffff021916908373ffffffffffffffffffffffffffffffffffffffff1602179055508173ffffffffffffffffffffffffffffffffffffffff168173ffffffffffffffffffffffffffffffffffffffff167f8be0079c531659141344cd1fd0a4f28419497f9722a3daafe3b4186f6b6457e060405160405180910390a35050565b600081359050610ee7816117d7565b92915050565b600081359050610efc816117ee565b92915050565b600060208284031215610f1457600080fd5b6000610f2284828501610ed8565b91505092915050565b60008060408385031215610f3e57600080fd5b6000610f4c85828601610ed8565b9250506020610f5d85828601610ed8565b9150509250929050565b600080600060608486031215610f7c57600080fd5b6000610f8a86828701610ed8565b9350506020610f9b86828701610ed8565b9250506040610fac86828701610eed565b9150509250925092565b60008060408385031215610fc957600080fd5b6000610fd785828601610ed8565b9250506020610fe885828601610eed565b9150509250929050565b610ffb816113f6565b82525050565b61100a81611408565b82525050565b6110198161143e565b82525050565b600061102a82611350565b611034818561135b565b9350611044818560208601611462565b61104d81611525565b840191505092915050565b600061106560258361135b565b915061107082611536565b604082019050919050565b600061108860268361135b565b915061109382611585565b604082019050919050565b60006110ab60238361135b565b91506110b6826115d4565b604082019050919050565b60006110ce60268361135b565b91506110d982611623565b604082019050919050565b60006110f160298361135b565b91506110fc82611672565b604082019050919050565b600061111460248361135b565b915061111f826116c1565b604082019050919050565b600061113760338361135b565b915061114282611710565b604082019050919050565b600061115a60208361135b565b91506111658261175f565b602082019050919050565b600061117d60278361135b565b915061118882611788565b604082019050919050565b61119c81611434565b82525050565b60006020820190506111b76000830184610ff2565b92915050565b60006020820190506111d26000830184611001565b92915050565b60006020820190506111ed6000830184611010565b92915050565b6000602082019050818103600083015261120d818461101f565b905092915050565b6000602082019050818103600083015261122e81611058565b9050919050565b6000602082019050818103600083015261124e8161107b565b9050919050565b6000602082019050818103600083015261126e8161109e565b9050919050565b6000602082019050818103600083015261128e816110c1565b9050919050565b600060208201905081810360008301526112ae816110e4565b9050919050565b600060208201905081810360008301526112ce81611107565b9050919050565b600060208201905081810360008301526112ee8161112a565b9050919050565b6000602082019050818103600083015261130e8161114d565b9050919050565b6000602082019050818103600083015261132e81611170565b9050919050565b600060208201905061134a6000830184611193565b92915050565b600081519050919050565b600082825260208201905092915050565b600061137782611434565b915061138283611434565b9250827fffffffffffffffffffffffffffffffffffffffffffffffffffffffffffffffff038211156113b7576113b66114c7565b5b828201905092915050565b60006113cd82611434565b91506113d883611434565b9250828210156113eb576113ea6114c7565b5b828203905092915050565b600061140182611414565b9050919050565b60008115159050919050565b600073ffffffffffffffffffffffffffffffffffffffff82169050919050565b6000819050919050565b600061144982611450565b9050919050565b600061145b82611414565b9050919050565b60005b83811015611480578082015181840152602081019050611465565b8381111561148f576000848401525b50505050565b600060028204905060018216806114ad57607f821691505b602082108114156114c1576114c06114f6565b5b50919050565b7f4e487b7100000000000000000000000000000000000000000000000000000000600052601160045260246000fd5b7f4e487b7100000000000000000000000000000000000000000000000000000000600052602260045260246000fd5b6000601f19601f8301169050919050565b7f43524f4e4f533a20617070726f76652066726f6d20746865207a65726f20616460008201527f6472657373000000000000000000000000000000000000000000000000000000602082015250565b7f43524f4e4f533a207472616e736665722066726f6d20746865207a65726f206160008201527f6464726573730000000000000000000000000000000000000000000000000000602082015250565b7f43524f4e4f533a20617070726f766520746f20746865207a65726f206164647260008201527f6573730000000000000000000000000000000000000000000000000000000000602082015250565b7f4f776e61626c653a206e6577206f776e657220697320746865207a65726f206160008201527f6464726573730000000000000000000000000000000000000000000000000000602082015250565b7f43524f4e4f533a207472616e7366657220616d6f756e7420657863656564732060008201527f616c6c6f77616e63650000000000000000000000000000000000000000000000602082015250565b7f43524f4e4f533a207472616e7366657220746f20746865207a65726f2061646460008201527f7265737300000000000000000000000000000000000000000000000000000000602082015250565b7f43524f4e4f533a207472616e73666572656420616d6f756e74206d757374206260008201527f652067726561746572207468616e207a65726f00000000000000000000000000602082015250565b7f4f776e61626c653a2063616c6c6572206973206e6f7420746865206f776e6572600082015250565b7f43524f4e4f533a207472616e7366657220616d6f756e7420657863656564732060008201527f62616c616e636500000000000000000000000000000000000000000000000000602082015250565b6117e0816113f6565b81146117eb57600080fd5b50565b6117f781611434565b811461180257600080fd5b5056fea2646970667358221220d14bbc62bbe259fa42f480e543a3ad163a764f7ece62528b16c181b12faf601d64736f6c63430008040033",
  "linkReferences": {},
  "deployedLinkReferences": {}
}