{
  "_format": "hh-sol-artifact-1",
  "contractName": "MockTokenLocker",
  "sourceName": "contracts/MockTokenLocker.sol",
  "abi": [
    {
      "inputs": [
        {
          "internalType": "uint256",
          "name": "_lockID",
          "type": "uint256"
        }
      ],
      "name": "getWithdrawableTokens",
      "outputs": [
        {
          "internalType": "uint256",
          "name": "",
          "type": "uint256"
        }
      ],
      "stateMutability": "view",
      "type": "function"
    }
  ],
  "bytecode": "0x608060405234801561001057600080fd5b50610227806100206000396000f3fe608060405234801561001057600080fd5b506004361061002b5760003560e01c8063d323cdbf14610030575b600080fd5b61004a6004803603810190610045919061009e565b610060565b60405161005791906100d6565b60405180910390f35b6000670de0b6b3a764000060018361007891906100f1565b6100829190610147565b9050919050565b600081359050610098816101da565b92915050565b6000602082840312156100b057600080fd5b60006100be84828501610089565b91505092915050565b6100d0816101a1565b82525050565b60006020820190506100eb60008301846100c7565b92915050565b60006100fc826101a1565b9150610107836101a1565b9250827fffffffffffffffffffffffffffffffffffffffffffffffffffffffffffffffff0382111561013c5761013b6101ab565b5b828201905092915050565b6000610152826101a1565b915061015d836101a1565b9250817fffffffffffffffffffffffffffffffffffffffffffffffffffffffffffffffff0483118215151615610196576101956101ab565b5b828202905092915050565b6000819050919050565b7f4e487b7100000000000000000000000000000000000000000000000000000000600052601160045260246000fd5b6101e3816101a1565b81146101ee57600080fd5b5056fea2646970667358221220001d657447b9d409be97081e8cd013c6dae7a276bcbdfb8468d91486e7b0ceab64736f6c63430008040033",
  "linkReferences": {},
  "deployedLinkReferences": {}
}