{
  "_format": "hh-sol-artifact-1",
  "contractName": "StakingHelper",
  "sourceName": "contracts/StakingHelper.sol",
  "abi": [
    {
      "inputs": [
        {
          "internalType": "uint256",
          "name": "_startTimeForDeposit",
          "type": "uint256"
        },
        {
          "internalType": "uint256",
          "name": "_endTimeForDeposit",
          "type": "uint256"
        },
        {
          "internalType": "address",
          "name": "_tokenAddress",
          "type": "address"
        },
        {
          "internalType": "uint256",
          "name": "_ppMultiplier",
          "type": "uint256"
        },
        {
          "internalType": "uint256",
          "name": "_privateSaleMultiplier",
          "type": "uint256"
        },
        {
          "internalType": "address",
          "name": "_privateSaleLockerAddress",
          "type": "address"
        }
      ],
      "stateMutability": "nonpayable",
      "type": "constructor"
    },
    {
      "anonymous": false,
      "inputs": [
        {
          "indexed": true,
          "internalType": "address",
          "name": "previousOwner",
          "type": "address"
        },
        {
          "indexed": true,
          "internalType": "address",
          "name": "newOwner",
          "type": "address"
        }
      ],
      "name": "OwnershipTransferred",
      "type": "event"
    },
    {
      "anonymous": false,
      "inputs": [
        {
          "indexed": false,
          "internalType": "bool",
          "name": "isPaused",
          "type": "bool"
        }
      ],
      "name": "PauseChanged",
      "type": "event"
    },
    {
      "inputs": [],
      "name": "SETTINGS",
      "outputs": [
        {
          "internalType": "uint256",
          "name": "startTimeForDeposit",
          "type": "uint256"
        },
        {
          "internalType": "uint256",
          "name": "endTimeForDeposit",
          "type": "uint256"
        },
        {
          "internalType": "uint256",
          "name": "ppMultiplier",
          "type": "uint256"
        },
        {
          "internalType": "uint256",
          "name": "privateSaleMultiplier",
          "type": "uint256"
        },
        {
          "internalType": "uint256",
          "name": "privateSaleTotalPP",
          "type": "uint256"
        },
        {
          "internalType": "uint256",
          "name": "withdrawalSuspensionStartTime",
          "type": "uint256"
        },
        {
          "internalType": "uint256",
          "name": "withdrawalSuspensionEndTime",
          "type": "uint256"
        },
        {
          "internalType": "address",
          "name": "tokenAddress",
          "type": "address"
        }
      ],
      "stateMutability": "view",
      "type": "function"
    },
    {
      "inputs": [],
      "name": "depositEnabled",
      "outputs": [
        {
          "internalType": "bool",
          "name": "",
          "type": "bool"
        }
      ],
      "stateMutability": "view",
      "type": "function"
    },
    {
      "inputs": [
        {
          "internalType": "uint256",
          "name": "lockerId",
          "type": "uint256"
        }
      ],
      "name": "getLockedPrivateSaleTokens",
      "outputs": [
        {
          "internalType": "uint256",
          "name": "",
          "type": "uint256"
        }
      ],
      "stateMutability": "view",
      "type": "function"
    },
    {
      "inputs": [
        {
          "internalType": "address",
          "name": "_user",
          "type": "address"
        }
      ],
      "name": "getUserSPP",
      "outputs": [
        {
          "internalType": "uint256",
          "name": "",
          "type": "uint256"
        }
      ],
      "stateMutability": "view",
      "type": "function"
    },
    {
      "inputs": [],
      "name": "isWithdrawlAllowed",
      "outputs": [
        {
          "internalType": "bool",
          "name": "",
          "type": "bool"
        }
      ],
      "stateMutability": "view",
      "type": "function"
    },
    {
      "inputs": [],
      "name": "lastPauseTime",
      "outputs": [
        {
          "internalType": "uint256",
          "name": "",
          "type": "uint256"
        }
      ],
      "stateMutability": "view",
      "type": "function"
    },
    {
      "inputs": [],
      "name": "owner",
      "outputs": [
        {
          "internalType": "address",
          "name": "",
          "type": "address"
        }
      ],
      "stateMutability": "view",
      "type": "function"
    },
    {
      "inputs": [],
      "name": "paused",
      "outputs": [
        {
          "internalType": "bool",
          "name": "",
          "type": "bool"
        }
      ],
      "stateMutability": "view",
      "type": "function"
    },
    {
      "inputs": [],
      "name": "privateSaleLockerAddress",
      "outputs": [
        {
          "internalType": "address",
          "name": "",
          "type": "address"
        }
      ],
      "stateMutability": "view",
      "type": "function"
    },
    {
      "inputs": [
        {
          "internalType": "uint256",
          "name": "",
          "type": "uint256"
        }
      ],
      "name": "privateSaleLockerIds",
      "outputs": [
        {
          "internalType": "uint256",
          "name": "",
          "type": "uint256"
        }
      ],
      "stateMutability": "view",
      "type": "function"
    },
    {
      "inputs": [
        {
          "internalType": "address",
          "name": "",
          "type": "address"
        },
        {
          "internalType": "uint256",
          "name": "",
          "type": "uint256"
        }
      ],
      "name": "privateSaleUserLockerIds",
      "outputs": [
        {
          "internalType": "uint256",
          "name": "",
          "type": "uint256"
        }
      ],
      "stateMutability": "view",
      "type": "function"
    },
    {
      "inputs": [],
      "name": "renounceOwnership",
      "outputs": [],
      "stateMutability": "nonpayable",
      "type": "function"
    },
    {
      "inputs": [
        {
          "internalType": "bool",
          "name": "_paused",
          "type": "bool"
        }
      ],
      "name": "setPaused",
      "outputs": [],
      "stateMutability": "nonpayable",
      "type": "function"
    },
    {
      "inputs": [
        {
          "internalType": "uint256[]",
          "name": "_privateSaleLockerIds",
          "type": "uint256[]"
        },
        {
          "internalType": "address[]",
          "name": "_privateSaleLockerOwners",
          "type": "address[]"
        }
      ],
      "name": "setPrivateSaleLockerIds",
      "outputs": [],
      "stateMutability": "nonpayable",
      "type": "function"
    },
    {
      "inputs": [
        {
          "internalType": "address[]",
          "name": "_stakingTierAddresses",
          "type": "address[]"
        }
      ],
      "name": "setTierAddress",
      "outputs": [],
      "stateMutability": "nonpayable",
      "type": "function"
    },
    {
      "inputs": [
        {
          "internalType": "uint256",
          "name": "_withdrawalSuspensionStartTime",
          "type": "uint256"
        },
        {
          "internalType": "uint256",
          "name": "_withdrawalSuspensionEndTime",
          "type": "uint256"
        }
      ],
      "name": "setWithdrawalSuspension",
      "outputs": [],
      "stateMutability": "nonpayable",
      "type": "function"
    },
    {
      "inputs": [
        {
          "internalType": "address payable",
          "name": "_owner",
          "type": "address"
        },
        {
          "internalType": "uint256",
          "name": "_amount",
          "type": "uint256"
        },
        {
          "internalType": "uint8",
          "name": "_tierId",
          "type": "uint8"
        }
      ],
      "name": "stake",
      "outputs": [],
      "stateMutability": "nonpayable",
      "type": "function"
    },
    {
      "inputs": [
        {
          "internalType": "uint256",
          "name": "",
          "type": "uint256"
        }
      ],
      "name": "stakingTierAddresses",
      "outputs": [
        {
          "internalType": "address",
          "name": "",
          "type": "address"
        }
      ],
      "stateMutability": "view",
      "type": "function"
    },
    {
      "inputs": [
        {
          "internalType": "address",
          "name": "_token",
          "type": "address"
        },
        {
          "internalType": "address",
          "name": "_to",
          "type": "address"
        },
        {
          "internalType": "uint256",
          "name": "_amount",
          "type": "uint256"
        }
      ],
      "name": "transferExtraTokens",
      "outputs": [],
      "stateMutability": "nonpayable",
      "type": "function"
    },
    {
      "inputs": [
        {
          "internalType": "address",
          "name": "newOwner",
          "type": "address"
        }
      ],
      "name": "transferOwnership",
      "outputs": [],
      "stateMutability": "nonpayable",
      "type": "function"
    },
    {
      "inputs": [
        {
          "internalType": "uint256",
          "name": "_privateSaleTotalPP",
          "type": "uint256"
        }
      ],
      "name": "updatePrivateSaleTotalPP",
      "outputs": [],
      "stateMutability": "nonpayable",
      "type": "function"
    },
    {
      "inputs": [],
      "name": "updatePrivateSaleTotalPPFromContract",
      "outputs": [],
      "stateMutability": "nonpayable",
      "type": "function"
    },
    {
      "inputs": [
        {
          "internalType": "uint256",
          "name": "_startTimeForDeposit",
          "type": "uint256"
        },
        {
          "internalType": "uint256",
          "name": "_endTimeForDeposit",
          "type": "uint256"
        }
      ],
      "name": "updateTime",
      "outputs": [],
      "stateMutability": "nonpayable",
      "type": "function"
    },
    {
      "stateMutability": "payable",
      "type": "receive"
    }
  ],
  "bytecode": "0x60806040523480156200001157600080fd5b50604051620033bf380380620033bf83398181016040528101906200003791906200029e565b6000620000496200023f60201b60201c565b9050806000806101000a81548173ffffffffffffffffffffffffffffffffffffffff021916908373ffffffffffffffffffffffffffffffffffffffff1602179055508073ffffffffffffffffffffffffffffffffffffffff16600073ffffffffffffffffffffffffffffffffffffffff167f8be0079c531659141344cd1fd0a4f28419497f9722a3daafe3b4186f6b6457e060405160405180910390a35060018081905550600073ffffffffffffffffffffffffffffffffffffffff16620001166200024760201b60201c565b73ffffffffffffffffffffffffffffffffffffffff16141562000170576040517f08c379a000000000000000000000000000000000000000000000000000000000815260040162000167906200035b565b60405180910390fd5b856009600001819055508460096001018190555083600960070160006101000a81548173ffffffffffffffffffffffffffffffffffffffff021916908373ffffffffffffffffffffffffffffffffffffffff16021790555082600960020181905550816009600301819055506000600960060181905550600060096005018190555080600760006101000a81548173ffffffffffffffffffffffffffffffffffffffff021916908373ffffffffffffffffffffffffffffffffffffffff16021790555050505050505062000429565b600033905090565b60008060009054906101000a900473ffffffffffffffffffffffffffffffffffffffff16905090565b6000815190506200028181620003f5565b92915050565b60008151905062000298816200040f565b92915050565b60008060008060008060c08789031215620002b857600080fd5b6000620002c889828a0162000287565b9650506020620002db89828a0162000287565b9550506040620002ee89828a0162000270565b94505060606200030189828a0162000287565b93505060806200031489828a0162000287565b92505060a06200032789828a0162000270565b9150509295509295509295565b6000620003436011836200037d565b91506200035082620003cc565b602082019050919050565b60006020820190508181036000830152620003768162000334565b9050919050565b600082825260208201905092915050565b60006200039b82620003a2565b9050919050565b600073ffffffffffffffffffffffffffffffffffffffff82169050919050565b6000819050919050565b7f4f776e6572206d75737420626520736574000000000000000000000000000000600082015250565b62000400816200038e565b81146200040c57600080fd5b50565b6200041a81620003c2565b81146200042657600080fd5b50565b612f8680620004396000396000f3fe6080604052600436106101445760003560e01c806383abb74b116100b6578063ade97ab51161006f578063ade97ab514610466578063c07d66b614610498578063c6063cf1146104d5578063d5fcd2a6146104fe578063ecc4e5dd14610527578063f2fde38b1461056457610184565b806383abb74b146103565780638731725e1461037f5780638da5cb5b146103aa57806391b4ded9146103d55780639988f13414610400578063a930115c1461043d57610184565b80634e6433e0116101085780634e6433e01461025a578063527cae71146102975780635c975abb146102d45780636341c060146102ff578063715018a61461032857806379cf1ba81461033f57610184565b8063080316691461018957806316c38b3c146101b457806321f1b677146101dd5780632eebe78e146102065780634123d27d1461023157610184565b36610184576040517f08c379a000000000000000000000000000000000000000000000000000000000815260040161017b9061288a565b60405180910390fd5b600080fd5b34801561019557600080fd5b5061019e61058d565b6040516101ab919061266b565b60405180910390f35b3480156101c057600080fd5b506101db60048036038101906101d69190612327565b6105b3565b005b3480156101e957600080fd5b5061020460048036038101906101ff91906123cb565b6106d0565b005b34801561021257600080fd5b5061021b610764565b604051610228919061270f565b60405180910390f35b34801561023d57600080fd5b5061025860048036038101906102539190612125565b610773565b005b34801561026657600080fd5b50610281600480360381019061027c9190612379565b610882565b60405161028e919061266b565b60405180910390f35b3480156102a357600080fd5b506102be60048036038101906102b991906120ad565b6108c1565b6040516102cb91906128aa565b60405180910390f35b3480156102e057600080fd5b506102e9610b32565b6040516102f6919061270f565b60405180910390f35b34801561030b57600080fd5b50610326600480360381019061032191906120d6565b610b45565b005b34801561033457600080fd5b5061033d610ecf565b005b34801561034b57600080fd5b50610354611009565b005b34801561036257600080fd5b5061037d600480360381019061037891906122bb565b611121565b005b34801561038b57600080fd5b506103946113bf565b6040516103a1919061270f565b60405180910390f35b3480156103b657600080fd5b506103bf6113dd565b6040516103cc919061266b565b60405180910390f35b3480156103e157600080fd5b506103ea611406565b6040516103f791906128aa565b60405180910390f35b34801561040c57600080fd5b5061042760048036038101906104229190612174565b61140c565b60405161043491906128aa565b60405180910390f35b34801561044957600080fd5b50610464600480360381019061045f919061227a565b61143d565b005b34801561047257600080fd5b5061047b6114d3565b60405161048f9897969594939291906128c5565b60405180910390f35b3480156104a457600080fd5b506104bf60048036038101906104ba9190612379565b611529565b6040516104cc91906128aa565b60405180910390f35b3480156104e157600080fd5b506104fc60048036038101906104f79190612379565b61153b565b005b34801561050a57600080fd5b50610525600480360381019061052091906123cb565b6115c4565b005b34801561053357600080fd5b5061054e60048036038101906105499190612379565b611658565b60405161055b91906128aa565b60405180910390f35b34801561057057600080fd5b5061058b600480360381019061058691906120ad565b61167c565b005b600760009054906101000a900473ffffffffffffffffffffffffffffffffffffffff1681565b6105bb611825565b73ffffffffffffffffffffffffffffffffffffffff166105d96113dd565b73ffffffffffffffffffffffffffffffffffffffff161461062f576040517f08c379a0000000000000000000000000000000000000000000000000000000008152600401610626906127aa565b60405180910390fd5b600360009054906101000a900460ff161515811515141561064f576106cd565b80600360006101000a81548160ff021916908315150217905550600360009054906101000a900460ff161561068657426002819055505b7f8fb6c181ee25a520cf3dd6565006ef91229fcfe5a989566c2a3b8c115570cec5600360009054906101000a900460ff166040516106c4919061270f565b60405180910390a15b50565b6106d8611825565b73ffffffffffffffffffffffffffffffffffffffff166106f66113dd565b73ffffffffffffffffffffffffffffffffffffffff161461074c576040517f08c379a0000000000000000000000000000000000000000000000000000000008152600401610743906127aa565b60405180910390fd5b81600960000181905550806009600101819055505050565b600061076e61182d565b905090565b61077b611825565b73ffffffffffffffffffffffffffffffffffffffff166107996113dd565b73ffffffffffffffffffffffffffffffffffffffff16146107ef576040517f08c379a00000000000000000000000000000000000000000000000000000000081526004016107e6906127aa565b60405180910390fd5b8273ffffffffffffffffffffffffffffffffffffffff1663a9059cbb83836040518363ffffffff1660e01b815260040161082a9291906126e6565b602060405180830381600087803b15801561084457600080fd5b505af1158015610858573d6000803e3d6000fd5b505050506040513d601f19601f8201168201806040525081019061087c9190612350565b50505050565b6004818154811061089257600080fd5b906000526020600020016000915054906101000a900473ffffffffffffffffffffffffffffffffffffffff1681565b600080600090506000805b6004805490508110156109fd5760008060048381548110610916577f4e487b7100000000000000000000000000000000000000000000000000000000600052603260045260246000fd5b9060005260206000200160009054906101000a900473ffffffffffffffffffffffffffffffffffffffff1673ffffffffffffffffffffffffffffffffffffffff16635491b804886040518263ffffffff1660e01b8152600401610979919061266b565b604080518083038186803b15801561099057600080fd5b505afa1580156109a4573d6000803e3d6000fd5b505050506040513d601f19601f820116820180604052508101906109c89190612407565b9150915081856109d89190612a18565b945080846109e69190612a18565b9350505080806109f590612bc7565b9150506108cc565b5060005b600560008673ffffffffffffffffffffffffffffffffffffffff1673ffffffffffffffffffffffffffffffffffffffff16815260200190815260200160002080549050811015610b0557600960030154610adb600560008873ffffffffffffffffffffffffffffffffffffffff1673ffffffffffffffffffffffffffffffffffffffff1681526020019081526020016000208381548110610acb577f4e487b7100000000000000000000000000000000000000000000000000000000600052603260045260246000fd5b906000526020600020015461184c565b610ae59190612a6e565b83610af09190612a18565b92508080610afd90612bc7565b915050610a01565b5060096004015481610b179190612a18565b9050610b2982600960020154836119f1565b92505050919050565b600360009054906101000a900460ff1681565b60026001541415610b8b576040517f08c379a0000000000000000000000000000000000000000000000000000000008152600401610b829061286a565b60405180910390fd5b6002600181905550600360009054906101000a900460ff1615610be3576040517f08c379a0000000000000000000000000000000000000000000000000000000008152600401610bda906127ea565b60405180910390fd5b6004805490508160ff1610610c2d576040517f08c379a0000000000000000000000000000000000000000000000000000000008152600401610c249061282a565b60405180910390fd5b610c3561182d565b610c74576040517f08c379a0000000000000000000000000000000000000000000000000000000008152600401610c6b9061272a565b60405180910390fd5b600073ffffffffffffffffffffffffffffffffffffffff168373ffffffffffffffffffffffffffffffffffffffff161415610ce4576040517f08c379a0000000000000000000000000000000000000000000000000000000008152600401610cdb9061280a565b60405180910390fd5b60008211610d27576040517f08c379a0000000000000000000000000000000000000000000000000000000008152600401610d1e9061278a565b60405180910390fd5b610d58600960070160009054906101000a900473ffffffffffffffffffffffffffffffffffffffff16333085611aed565b610def600960070160009054906101000a900473ffffffffffffffffffffffffffffffffffffffff1660048360ff1681548110610dbe577f4e487b7100000000000000000000000000000000000000000000000000000000600052603260045260246000fd5b9060005260206000200160009054906101000a900473ffffffffffffffffffffffffffffffffffffffff1684611c26565b60048160ff1681548110610e2c577f4e487b7100000000000000000000000000000000000000000000000000000000600052603260045260246000fd5b9060005260206000200160009054906101000a900473ffffffffffffffffffffffffffffffffffffffff1673ffffffffffffffffffffffffffffffffffffffff16631e3e151984846040518363ffffffff1660e01b8152600401610e91929190612686565b600060405180830381600087803b158015610eab57600080fd5b505af1158015610ebf573d6000803e3d6000fd5b5050505060018081905550505050565b610ed7611825565b73ffffffffffffffffffffffffffffffffffffffff16610ef56113dd565b73ffffffffffffffffffffffffffffffffffffffff1614610f4b576040517f08c379a0000000000000000000000000000000000000000000000000000000008152600401610f42906127aa565b60405180910390fd5b600073ffffffffffffffffffffffffffffffffffffffff1660008054906101000a900473ffffffffffffffffffffffffffffffffffffffff1673ffffffffffffffffffffffffffffffffffffffff167f8be0079c531659141344cd1fd0a4f28419497f9722a3daafe3b4186f6b6457e060405160405180910390a360008060006101000a81548173ffffffffffffffffffffffffffffffffffffffff021916908373ffffffffffffffffffffffffffffffffffffffff160217905550565b611011611825565b73ffffffffffffffffffffffffffffffffffffffff1661102f6113dd565b73ffffffffffffffffffffffffffffffffffffffff1614611085576040517f08c379a000000000000000000000000000000000000000000000000000000000815260040161107c906127aa565b60405180910390fd5b6000805b600680549050811015611113576009600301546110e9600683815481106110d9577f4e487b7100000000000000000000000000000000000000000000000000000000600052603260045260246000fd5b906000526020600020015461184c565b6110f39190612a6e565b826110fe9190612a18565b9150808061110b90612bc7565b915050611089565b508060096004018190555050565b611129611825565b73ffffffffffffffffffffffffffffffffffffffff166111476113dd565b73ffffffffffffffffffffffffffffffffffffffff161461119d576040517f08c379a0000000000000000000000000000000000000000000000000000000008152600401611194906127aa565b60405180910390fd5b80518251146111e1576040517f08c379a00000000000000000000000000000000000000000000000000000000081526004016111d8906127ca565b60405180910390fd5b60005b8151811015611291576000828281518110611228577f4e487b7100000000000000000000000000000000000000000000000000000000600052603260045260246000fd5b60200260200101519050600560008273ffffffffffffffffffffffffffffffffffffffff1673ffffffffffffffffffffffffffffffffffffffff168152602001908152602001600020600061127d9190611d5c565b50808061128990612bc7565b9150506111e4565b5060005b82518110156113a35760008282815181106112d9577f4e487b7100000000000000000000000000000000000000000000000000000000600052603260045260246000fd5b60200260200101519050600084838151811061131e577f4e487b7100000000000000000000000000000000000000000000000000000000600052603260045260246000fd5b60200260200101519050600560008373ffffffffffffffffffffffffffffffffffffffff1673ffffffffffffffffffffffffffffffffffffffff1681526020019081526020016000208190806001815401808255809150506001900390600052602060002001600090919091909150555050808061139b90612bc7565b915050611295565b5081600690805190602001906113ba929190611d7d565b505050565b60006009600501544210806113d8575060096006015442115b905090565b60008060009054906101000a900473ffffffffffffffffffffffffffffffffffffffff16905090565b60025481565b6005602052816000526040600020818154811061142857600080fd5b90600052602060002001600091509150505481565b611445611825565b73ffffffffffffffffffffffffffffffffffffffff166114636113dd565b73ffffffffffffffffffffffffffffffffffffffff16146114b9576040517f08c379a00000000000000000000000000000000000000000000000000000000081526004016114b0906127aa565b60405180910390fd5b80600490805190602001906114cf929190611dca565b5050565b60098060000154908060010154908060020154908060030154908060040154908060050154908060060154908060070160009054906101000a900473ffffffffffffffffffffffffffffffffffffffff16905088565b60006115348261184c565b9050919050565b611543611825565b73ffffffffffffffffffffffffffffffffffffffff166115616113dd565b73ffffffffffffffffffffffffffffffffffffffff16146115b7576040517f08c379a00000000000000000000000000000000000000000000000000000000081526004016115ae906127aa565b60405180910390fd5b8060096004018190555050565b6115cc611825565b73ffffffffffffffffffffffffffffffffffffffff166115ea6113dd565b73ffffffffffffffffffffffffffffffffffffffff1614611640576040517f08c379a0000000000000000000000000000000000000000000000000000000008152600401611637906127aa565b60405180910390fd5b81600960050181905550806009600601819055505050565b6006818154811061166857600080fd5b906000526020600020016000915090505481565b611684611825565b73ffffffffffffffffffffffffffffffffffffffff166116a26113dd565b73ffffffffffffffffffffffffffffffffffffffff16146116f8576040517f08c379a00000000000000000000000000000000000000000000000000000000081526004016116ef906127aa565b60405180910390fd5b600073ffffffffffffffffffffffffffffffffffffffff168173ffffffffffffffffffffffffffffffffffffffff161415611768576040517f08c379a000000000000000000000000000000000000000000000000000000000815260040161175f9061274a565b60405180910390fd5b8073ffffffffffffffffffffffffffffffffffffffff1660008054906101000a900473ffffffffffffffffffffffffffffffffffffffff1673ffffffffffffffffffffffffffffffffffffffff167f8be0079c531659141344cd1fd0a4f28419497f9722a3daafe3b4186f6b6457e060405160405180910390a3806000806101000a81548173ffffffffffffffffffffffffffffffffffffffff021916908373ffffffffffffffffffffffffffffffffffffffff16021790555050565b600033905090565b600060096000015442118015611847575060096001015442105b905090565b6000806000600860009054906101000a900473ffffffffffffffffffffffffffffffffffffffff1673ffffffffffffffffffffffffffffffffffffffff1663cf0d5af3856040518263ffffffff1660e01b81526004016118ac91906128aa565b60006040518083038186803b1580156118c457600080fd5b505afa1580156118d8573d6000803e3d6000fd5b505050506040513d6000823e3d601f19601f8201168201806040525081019061190191906121b0565b50505050509250925050600860009054906101000a900473ffffffffffffffffffffffffffffffffffffffff1673ffffffffffffffffffffffffffffffffffffffff16630cdebc9e600960070160009054906101000a900473ffffffffffffffffffffffffffffffffffffffff16838561197b9190612ac8565b6040518363ffffffff1660e01b81526004016119989291906126e6565b60206040518083038186803b1580156119b057600080fd5b505afa1580156119c4573d6000803e3d6000fd5b505050506040513d601f19601f820116820180604052508101906119e891906123a2565b92505050919050565b600080600080198587098587029250828110838203039150506000811415611a2c5760008411611a2057600080fd5b83820492505050611ae6565b808411611a3857600080fd5b60008486880990508281118203915080830392506000856001877fffffffffffffffffffffffffffffffffffffffffffffffffffffffffffffffff0301169050808604955080840493506001818260000304019050808302841793506000600287600302189050808702600203810290508087026002038102905080870260020381029050808702600203810290508087026002038102905080870260020381029050808502955050505050505b9392505050565b6000808573ffffffffffffffffffffffffffffffffffffffff166323b872dd868686604051602401611b21939291906126af565b6040516020818303038152906040529060e01b6020820180517bffffffffffffffffffffffffffffffffffffffffffffffffffffffff8381831617835250505050604051611b6f9190612654565b6000604051808303816000865af19150503d8060008114611bac576040519150601f19603f3d011682016040523d82523d6000602084013e611bb1565b606091505b5091509150818015611bdf5750600081511480611bde575080806020019051810190611bdd9190612350565b5b5b611c1e576040517f08c379a0000000000000000000000000000000000000000000000000000000008152600401611c159061284a565b60405180910390fd5b505050505050565b6000808473ffffffffffffffffffffffffffffffffffffffff1663095ea7b38585604051602401611c589291906126e6565b6040516020818303038152906040529060e01b6020820180517bffffffffffffffffffffffffffffffffffffffffffffffffffffffff8381831617835250505050604051611ca69190612654565b6000604051808303816000865af19150503d8060008114611ce3576040519150601f19603f3d011682016040523d82523d6000602084013e611ce8565b606091505b5091509150818015611d165750600081511480611d15575080806020019051810190611d149190612350565b5b5b611d55576040517f08c379a0000000000000000000000000000000000000000000000000000000008152600401611d4c9061276a565b60405180910390fd5b5050505050565b5080546000825590600052602060002090810190611d7a9190611e54565b50565b828054828255906000526020600020908101928215611db9579160200282015b82811115611db8578251825591602001919060010190611d9d565b5b509050611dc69190611e54565b5090565b828054828255906000526020600020908101928215611e43579160200282015b82811115611e425782518260006101000a81548173ffffffffffffffffffffffffffffffffffffffff021916908373ffffffffffffffffffffffffffffffffffffffff16021790555091602001919060010190611dea565b5b509050611e509190611e54565b5090565b5b80821115611e6d576000816000905550600101611e55565b5090565b6000611e84611e7f84612968565b612943565b90508083825260208201905082856020860282011115611ea357600080fd5b60005b85811015611ed35781611eb98882611f87565b845260208401935060208301925050600181019050611ea6565b5050509392505050565b6000611ef0611eeb84612994565b612943565b90508083825260208201905082856020860282011115611f0f57600080fd5b60005b85811015611f3f5781611f25888261206e565b845260208401935060208301925050600181019050611f12565b5050509392505050565b6000611f5c611f57846129c0565b612943565b905082815260208101848484011115611f7457600080fd5b611f7f848285612b63565b509392505050565b600081359050611f9681612edd565b92915050565b600081519050611fab81612edd565b92915050565b600081359050611fc081612ef4565b92915050565b600082601f830112611fd757600080fd5b8135611fe7848260208601611e71565b91505092915050565b600082601f83011261200157600080fd5b8135612011848260208601611edd565b91505092915050565b60008135905061202981612f0b565b92915050565b60008151905061203e81612f0b565b92915050565b600082601f83011261205557600080fd5b8151612065848260208601611f49565b91505092915050565b60008135905061207d81612f22565b92915050565b60008151905061209281612f22565b92915050565b6000813590506120a781612f39565b92915050565b6000602082840312156120bf57600080fd5b60006120cd84828501611f87565b91505092915050565b6000806000606084860312156120eb57600080fd5b60006120f986828701611fb1565b935050602061210a8682870161206e565b925050604061211b86828701612098565b9150509250925092565b60008060006060848603121561213a57600080fd5b600061214886828701611f87565b935050602061215986828701611f87565b925050604061216a8682870161206e565b9150509250925092565b6000806040838503121561218757600080fd5b600061219585828601611f87565b92505060206121a68582860161206e565b9150509250929050565b600080600080600080600080610100898b0312156121cd57600080fd5b60006121db8b828c01611f9c565b98505060206121ec8b828c01612083565b97505060406121fd8b828c01612083565b965050606061220e8b828c01612083565b955050608061221f8b828c01612083565b94505060a06122308b828c01612083565b93505060c06122418b828c01611f9c565b92505060e089015167ffffffffffffffff81111561225e57600080fd5b61226a8b828c01612044565b9150509295985092959890939650565b60006020828403121561228c57600080fd5b600082013567ffffffffffffffff8111156122a657600080fd5b6122b284828501611fc6565b91505092915050565b600080604083850312156122ce57600080fd5b600083013567ffffffffffffffff8111156122e857600080fd5b6122f485828601611ff0565b925050602083013567ffffffffffffffff81111561231157600080fd5b61231d85828601611fc6565b9150509250929050565b60006020828403121561233957600080fd5b60006123478482850161201a565b91505092915050565b60006020828403121561236257600080fd5b60006123708482850161202f565b91505092915050565b60006020828403121561238b57600080fd5b60006123998482850161206e565b91505092915050565b6000602082840312156123b457600080fd5b60006123c284828501612083565b91505092915050565b600080604083850312156123de57600080fd5b60006123ec8582860161206e565b92505060206123fd8582860161206e565b9150509250929050565b6000806040838503121561241a57600080fd5b600061242885828601612083565b925050602061243985828601612083565b9150509250929050565b61244c81612b0e565b82525050565b61245b81612afc565b82525050565b61246a81612b20565b82525050565b600061247b826129f1565b61248581856129fc565b9350612495818560208601612b63565b80840191505092915050565b60006124ae601683612a07565b91506124b982612c7f565b602082019050919050565b60006124d1602683612a07565b91506124dc82612ca8565b604082019050919050565b60006124f4601e83612a07565b91506124ff82612cf7565b602082019050919050565b6000612517600683612a07565b915061252282612d20565b602082019050919050565b600061253a602083612a07565b915061254582612d49565b602082019050919050565b600061255d601283612a07565b915061256882612d72565b602082019050919050565b6000612580603c83612a07565b915061258b82612d9b565b604082019050919050565b60006125a3600783612a07565b91506125ae82612dea565b602082019050919050565b60006125c6601683612a07565b91506125d182612e13565b602082019050919050565b60006125e9602483612a07565b91506125f482612e3c565b604082019050919050565b600061260c601f83612a07565b915061261782612e8b565b602082019050919050565b600061262f601283612a07565b915061263a82612eb4565b602082019050919050565b61264e81612b4c565b82525050565b60006126608284612470565b915081905092915050565b60006020820190506126806000830184612452565b92915050565b600060408201905061269b6000830185612443565b6126a86020830184612645565b9392505050565b60006060820190506126c46000830186612452565b6126d16020830185612452565b6126de6040830184612645565b949350505050565b60006040820190506126fb6000830185612452565b6127086020830184612645565b9392505050565b60006020820190506127246000830184612461565b92915050565b60006020820190508181036000830152612743816124a1565b9050919050565b60006020820190508181036000830152612763816124c4565b9050919050565b60006020820190508181036000830152612783816124e7565b9050919050565b600060208201905081810360008301526127a38161250a565b9050919050565b600060208201905081810360008301526127c38161252d565b9050919050565b600060208201905081810360008301526127e381612550565b9050919050565b6000602082019050818103600083015261280381612573565b9050919050565b6000602082019050818103600083015261282381612596565b9050919050565b60006020820190508181036000830152612843816125b9565b9050919050565b60006020820190508181036000830152612863816125dc565b9050919050565b60006020820190508181036000830152612883816125ff565b9050919050565b600060208201905081810360008301526128a381612622565b9050919050565b60006020820190506128bf6000830184612645565b92915050565b6000610100820190506128db600083018b612645565b6128e8602083018a612645565b6128f56040830189612645565b6129026060830188612645565b61290f6080830187612645565b61291c60a0830186612645565b61292960c0830185612645565b61293660e0830184612452565b9998505050505050505050565b600061294d61295e565b90506129598282612b96565b919050565b6000604051905090565b600067ffffffffffffffff82111561298357612982612c3f565b5b602082029050602081019050919050565b600067ffffffffffffffff8211156129af576129ae612c3f565b5b602082029050602081019050919050565b600067ffffffffffffffff8211156129db576129da612c3f565b5b6129e482612c6e565b9050602081019050919050565b600081519050919050565b600081905092915050565b600082825260208201905092915050565b6000612a2382612b4c565b9150612a2e83612b4c565b9250827fffffffffffffffffffffffffffffffffffffffffffffffffffffffffffffffff03821115612a6357612a62612c10565b5b828201905092915050565b6000612a7982612b4c565b9150612a8483612b4c565b9250817fffffffffffffffffffffffffffffffffffffffffffffffffffffffffffffffff0483118215151615612abd57612abc612c10565b5b828202905092915050565b6000612ad382612b4c565b9150612ade83612b4c565b925082821015612af157612af0612c10565b5b828203905092915050565b6000612b0782612b2c565b9050919050565b6000612b1982612b2c565b9050919050565b60008115159050919050565b600073ffffffffffffffffffffffffffffffffffffffff82169050919050565b6000819050919050565b600060ff82169050919050565b60005b83811015612b81578082015181840152602081019050612b66565b83811115612b90576000848401525b50505050565b612b9f82612c6e565b810181811067ffffffffffffffff82111715612bbe57612bbd612c3f565b5b80604052505050565b6000612bd282612b4c565b91507fffffffffffffffffffffffffffffffffffffffffffffffffffffffffffffffff821415612c0557612c04612c10565b5b600182019050919050565b7f4e487b7100000000000000000000000000000000000000000000000000000000600052601160045260246000fd5b7f4e487b7100000000000000000000000000000000000000000000000000000000600052604160045260246000fd5b6000601f19601f8301169050919050565b7f4465706f736974206973206e6f7420656e61626c656400000000000000000000600082015250565b7f4f776e61626c653a206e6577206f776e657220697320746865207a65726f206160008201527f6464726573730000000000000000000000000000000000000000000000000000602082015250565b7f5472616e7366657248656c7065723a20415050524f56455f4641494c45440000600082015250565b7f4e6f20414d540000000000000000000000000000000000000000000000000000600082015250565b7f4f776e61626c653a2063616c6c6572206973206e6f7420746865206f776e6572600082015250565b7f4c656e677468204e6f74204d6174636865640000000000000000000000000000600082015250565b7f5468697320616374696f6e2063616e6e6f7420626520706572666f726d65642060008201527f7768696c652074686520636f6e74726163742069732070617573656400000000602082015250565b7f4e6f204144445200000000000000000000000000000000000000000000000000600082015250565b7f546965724964206973206f7574206f662072616e676500000000000000000000600082015250565b7f5472616e7366657248656c7065723a205452414e534645525f46524f4d5f464160008201527f494c454400000000000000000000000000000000000000000000000000000000602082015250565b7f5265656e7472616e637947756172643a207265656e7472616e742063616c6c00600082015250565b7f4e6f20446972656374205472616e736665720000000000000000000000000000600082015250565b612ee681612afc565b8114612ef157600080fd5b50565b612efd81612b0e565b8114612f0857600080fd5b50565b612f1481612b20565b8114612f1f57600080fd5b50565b612f2b81612b4c565b8114612f3657600080fd5b50565b612f4281612b56565b8114612f4d57600080fd5b5056fea2646970667358221220c2f85c62fd97e4a8ba128b93ad6633a06cbc09a79f311c5b482b0b3ad174da7864736f6c63430008040033",
  "linkReferences": {},
  "deployedLinkReferences": {}
}