{
  "_format": "hh-sol-artifact-1",
  "contractName": "Pausable",
  "sourceName": "contracts/Pausable.sol",
  "abi": [
    {
      "inputs": [],
      "stateMutability": "nonpayable",
      "type": "constructor"
    },
    {
      "anonymous": false,
      "inputs": [
        {
          "indexed": true,
          "internalType": "address",
          "name": "previousOwner",
          "type": "address"
        },
        {
          "indexed": true,
          "internalType": "address",
          "name": "newOwner",
          "type": "address"
        }
      ],
      "name": "OwnershipTransferred",
      "type": "event"
    },
    {
      "anonymous": false,
      "inputs": [
        {
          "indexed": false,
          "internalType": "bool",
          "name": "isPaused",
          "type": "bool"
        }
      ],
      "name": "PauseChanged",
      "type": "event"
    },
    {
      "inputs": [],
      "name": "lastPauseTime",
      "outputs": [
        {
          "internalType": "uint256",
          "name": "",
          "type": "uint256"
        }
      ],
      "stateMutability": "view",
      "type": "function"
    },
    {
      "inputs": [],
      "name": "owner",
      "outputs": [
        {
          "internalType": "address",
          "name": "",
          "type": "address"
        }
      ],
      "stateMutability": "view",
      "type": "function"
    },
    {
      "inputs": [],
      "name": "paused",
      "outputs": [
        {
          "internalType": "bool",
          "name": "",
          "type": "bool"
        }
      ],
      "stateMutability": "view",
      "type": "function"
    },
    {
      "inputs": [],
      "name": "renounceOwnership",
      "outputs": [],
      "stateMutability": "nonpayable",
      "type": "function"
    },
    {
      "inputs": [
        {
          "internalType": "bool",
          "name": "_paused",
          "type": "bool"
        }
      ],
      "name": "setPaused",
      "outputs": [],
      "stateMutability": "nonpayable",
      "type": "function"
    },
    {
      "inputs": [
        {
          "internalType": "address",
          "name": "newOwner",
          "type": "address"
        }
      ],
      "name": "transferOwnership",
      "outputs": [],
      "stateMutability": "nonpayable",
      "type": "function"
    }
  ],
  "bytecode": "0x608060405234801561001057600080fd5b50600061002161014160201b60201c565b9050806000806101000a81548173ffffffffffffffffffffffffffffffffffffffff021916908373ffffffffffffffffffffffffffffffffffffffff1602179055508073ffffffffffffffffffffffffffffffffffffffff16600073ffffffffffffffffffffffffffffffffffffffff167f8be0079c531659141344cd1fd0a4f28419497f9722a3daafe3b4186f6b6457e060405160405180910390a350600073ffffffffffffffffffffffffffffffffffffffff166100e561014960201b60201c565b73ffffffffffffffffffffffffffffffffffffffff16141561013c576040517f08c379a000000000000000000000000000000000000000000000000000000000815260040161013390610195565b60405180910390fd5b6101ef565b600033905090565b60008060009054906101000a900473ffffffffffffffffffffffffffffffffffffffff16905090565b600061017f6011836101b5565b915061018a826101c6565b602082019050919050565b600060208201905081810360008301526101ae81610172565b9050919050565b600082825260208201905092915050565b7f4f776e6572206d75737420626520736574000000000000000000000000000000600082015250565b610802806101fe6000396000f3fe608060405234801561001057600080fd5b50600436106100625760003560e01c806316c38b3c146100675780635c975abb14610083578063715018a6146100a15780638da5cb5b146100ab57806391b4ded9146100c9578063f2fde38b146100e7575b600080fd5b610081600480360381019061007c91906105a0565b610103565b005b61008b610220565b6040516100989190610657565b60405180910390f35b6100a9610233565b005b6100b361036d565b6040516100c0919061063c565b60405180910390f35b6100d1610396565b6040516100de91906106b2565b60405180910390f35b61010160048036038101906100fc9190610577565b61039c565b005b61010b610545565b73ffffffffffffffffffffffffffffffffffffffff1661012961036d565b73ffffffffffffffffffffffffffffffffffffffff161461017f576040517f08c379a000000000000000000000000000000000000000000000000000000000815260040161017690610692565b60405180910390fd5b600260009054906101000a900460ff161515811515141561019f5761021d565b80600260006101000a81548160ff021916908315150217905550600260009054906101000a900460ff16156101d657426001819055505b7f8fb6c181ee25a520cf3dd6565006ef91229fcfe5a989566c2a3b8c115570cec5600260009054906101000a900460ff166040516102149190610657565b60405180910390a15b50565b600260009054906101000a900460ff1681565b61023b610545565b73ffffffffffffffffffffffffffffffffffffffff1661025961036d565b73ffffffffffffffffffffffffffffffffffffffff16146102af576040517f08c379a00000000000000000000000000000000000000000000000000000000081526004016102a690610692565b60405180910390fd5b600073ffffffffffffffffffffffffffffffffffffffff1660008054906101000a900473ffffffffffffffffffffffffffffffffffffffff1673ffffffffffffffffffffffffffffffffffffffff167f8be0079c531659141344cd1fd0a4f28419497f9722a3daafe3b4186f6b6457e060405160405180910390a360008060006101000a81548173ffffffffffffffffffffffffffffffffffffffff021916908373ffffffffffffffffffffffffffffffffffffffff160217905550565b60008060009054906101000a900473ffffffffffffffffffffffffffffffffffffffff16905090565b60015481565b6103a4610545565b73ffffffffffffffffffffffffffffffffffffffff166103c261036d565b73ffffffffffffffffffffffffffffffffffffffff1614610418576040517f08c379a000000000000000000000000000000000000000000000000000000000815260040161040f90610692565b60405180910390fd5b600073ffffffffffffffffffffffffffffffffffffffff168173ffffffffffffffffffffffffffffffffffffffff161415610488576040517f08c379a000000000000000000000000000000000000000000000000000000000815260040161047f90610672565b60405180910390fd5b8073ffffffffffffffffffffffffffffffffffffffff1660008054906101000a900473ffffffffffffffffffffffffffffffffffffffff1673ffffffffffffffffffffffffffffffffffffffff167f8be0079c531659141344cd1fd0a4f28419497f9722a3daafe3b4186f6b6457e060405160405180910390a3806000806101000a81548173ffffffffffffffffffffffffffffffffffffffff021916908373ffffffffffffffffffffffffffffffffffffffff16021790555050565b600033905090565b60008135905061055c8161079e565b92915050565b600081359050610571816107b5565b92915050565b60006020828403121561058957600080fd5b60006105978482850161054d565b91505092915050565b6000602082840312156105b257600080fd5b60006105c084828501610562565b91505092915050565b6105d2816106de565b82525050565b6105e1816106f0565b82525050565b60006105f46026836106cd565b91506105ff82610726565b604082019050919050565b60006106176020836106cd565b915061062282610775565b602082019050919050565b6106368161071c565b82525050565b600060208201905061065160008301846105c9565b92915050565b600060208201905061066c60008301846105d8565b92915050565b6000602082019050818103600083015261068b816105e7565b9050919050565b600060208201905081810360008301526106ab8161060a565b9050919050565b60006020820190506106c7600083018461062d565b92915050565b600082825260208201905092915050565b60006106e9826106fc565b9050919050565b60008115159050919050565b600073ffffffffffffffffffffffffffffffffffffffff82169050919050565b6000819050919050565b7f4f776e61626c653a206e6577206f776e657220697320746865207a65726f206160008201527f6464726573730000000000000000000000000000000000000000000000000000602082015250565b7f4f776e61626c653a2063616c6c6572206973206e6f7420746865206f776e6572600082015250565b6107a7816106de565b81146107b257600080fd5b50565b6107be816106f0565b81146107c957600080fd5b5056fea2646970667358221220f47d6c407dbcfdd1df45e043d4d3878f4fa89e19c25fbb41e6512043e9ab8c7d64736f6c63430008040033",
  "linkReferences": {},
  "deployedLinkReferences": {}
}