{
  "_format": "hh-sol-artifact-1",
  "contractName": "StandardToken",
  "sourceName": "contracts/StandardToken.sol",
  "abi": [
    {
      "inputs": [
        {
          "internalType": "address",
          "name": "creator_",
          "type": "address"
        },
        {
          "internalType": "string",
          "name": "name_",
          "type": "string"
        },
        {
          "internalType": "string",
          "name": "symbol_",
          "type": "string"
        },
        {
          "internalType": "uint8",
          "name": "decimals_",
          "type": "uint8"
        },
        {
          "internalType": "uint256",
          "name": "tokenSupply_",
          "type": "uint256"
        }
      ],
      "stateMutability": "nonpayable",
      "type": "constructor"
    },
    {
      "anonymous": false,
      "inputs": [
        {
          "indexed": true,
          "internalType": "address",
          "name": "owner",
          "type": "address"
        },
        {
          "indexed": true,
          "internalType": "address",
          "name": "spender",
          "type": "address"
        },
        {
          "indexed": false,
          "internalType": "uint256",
          "name": "value",
          "type": "uint256"
        }
      ],
      "name": "Approval",
      "type": "event"
    },
    {
      "anonymous": false,
      "inputs": [
        {
          "indexed": true,
          "internalType": "address",
          "name": "previousOwner",
          "type": "address"
        },
        {
          "indexed": true,
          "internalType": "address",
          "name": "newOwner",
          "type": "address"
        }
      ],
      "name": "OwnershipTransferred",
      "type": "event"
    },
    {
      "anonymous": false,
      "inputs": [
        {
          "indexed": true,
          "internalType": "address",
          "name": "from",
          "type": "address"
        },
        {
          "indexed": true,
          "internalType": "address",
          "name": "to",
          "type": "address"
        },
        {
          "indexed": false,
          "internalType": "uint256",
          "name": "value",
          "type": "uint256"
        }
      ],
      "name": "Transfer",
      "type": "event"
    },
    {
      "inputs": [],
      "name": "_creator",
      "outputs": [
        {
          "internalType": "address",
          "name": "",
          "type": "address"
        }
      ],
      "stateMutability": "view",
      "type": "function"
    },
    {
      "inputs": [
        {
          "internalType": "address",
          "name": "owner",
          "type": "address"
        },
        {
          "internalType": "address",
          "name": "spender",
          "type": "address"
        }
      ],
      "name": "allowance",
      "outputs": [
        {
          "internalType": "uint256",
          "name": "",
          "type": "uint256"
        }
      ],
      "stateMutability": "view",
      "type": "function"
    },
    {
      "inputs": [
        {
          "internalType": "address",
          "name": "spender",
          "type": "address"
        },
        {
          "internalType": "uint256",
          "name": "amount",
          "type": "uint256"
        }
      ],
      "name": "approve",
      "outputs": [
        {
          "internalType": "bool",
          "name": "",
          "type": "bool"
        }
      ],
      "stateMutability": "nonpayable",
      "type": "function"
    },
    {
      "inputs": [
        {
          "internalType": "address",
          "name": "account",
          "type": "address"
        }
      ],
      "name": "balanceOf",
      "outputs": [
        {
          "internalType": "uint256",
          "name": "",
          "type": "uint256"
        }
      ],
      "stateMutability": "view",
      "type": "function"
    },
    {
      "inputs": [],
      "name": "decimals",
      "outputs": [
        {
          "internalType": "uint8",
          "name": "",
          "type": "uint8"
        }
      ],
      "stateMutability": "view",
      "type": "function"
    },
    {
      "inputs": [
        {
          "internalType": "address",
          "name": "spender",
          "type": "address"
        },
        {
          "internalType": "uint256",
          "name": "subtractedValue",
          "type": "uint256"
        }
      ],
      "name": "decreaseAllowance",
      "outputs": [
        {
          "internalType": "bool",
          "name": "",
          "type": "bool"
        }
      ],
      "stateMutability": "nonpayable",
      "type": "function"
    },
    {
      "inputs": [],
      "name": "geUnlockTime",
      "outputs": [
        {
          "internalType": "uint256",
          "name": "",
          "type": "uint256"
        }
      ],
      "stateMutability": "view",
      "type": "function"
    },
    {
      "inputs": [],
      "name": "generatedUsingDxMint",
      "outputs": [
        {
          "internalType": "bool",
          "name": "",
          "type": "bool"
        }
      ],
      "stateMutability": "view",
      "type": "function"
    },
    {
      "inputs": [
        {
          "internalType": "address",
          "name": "spender",
          "type": "address"
        },
        {
          "internalType": "uint256",
          "name": "addedValue",
          "type": "uint256"
        }
      ],
      "name": "increaseAllowance",
      "outputs": [
        {
          "internalType": "bool",
          "name": "",
          "type": "bool"
        }
      ],
      "stateMutability": "nonpayable",
      "type": "function"
    },
    {
      "inputs": [
        {
          "internalType": "uint256",
          "name": "time",
          "type": "uint256"
        }
      ],
      "name": "lock",
      "outputs": [],
      "stateMutability": "nonpayable",
      "type": "function"
    },
    {
      "inputs": [],
      "name": "mintingFinishedPermanent",
      "outputs": [
        {
          "internalType": "bool",
          "name": "",
          "type": "bool"
        }
      ],
      "stateMutability": "view",
      "type": "function"
    },
    {
      "inputs": [],
      "name": "name",
      "outputs": [
        {
          "internalType": "string",
          "name": "",
          "type": "string"
        }
      ],
      "stateMutability": "view",
      "type": "function"
    },
    {
      "inputs": [],
      "name": "owner",
      "outputs": [
        {
          "internalType": "address",
          "name": "",
          "type": "address"
        }
      ],
      "stateMutability": "view",
      "type": "function"
    },
    {
      "inputs": [],
      "name": "renounceOwnership",
      "outputs": [],
      "stateMutability": "nonpayable",
      "type": "function"
    },
    {
      "inputs": [],
      "name": "symbol",
      "outputs": [
        {
          "internalType": "string",
          "name": "",
          "type": "string"
        }
      ],
      "stateMutability": "view",
      "type": "function"
    },
    {
      "inputs": [],
      "name": "totalSupply",
      "outputs": [
        {
          "internalType": "uint256",
          "name": "",
          "type": "uint256"
        }
      ],
      "stateMutability": "view",
      "type": "function"
    },
    {
      "inputs": [
        {
          "internalType": "address",
          "name": "recipient",
          "type": "address"
        },
        {
          "internalType": "uint256",
          "name": "amount",
          "type": "uint256"
        }
      ],
      "name": "transfer",
      "outputs": [
        {
          "internalType": "bool",
          "name": "",
          "type": "bool"
        }
      ],
      "stateMutability": "nonpayable",
      "type": "function"
    },
    {
      "inputs": [
        {
          "internalType": "address",
          "name": "sender",
          "type": "address"
        },
        {
          "internalType": "address",
          "name": "recipient",
          "type": "address"
        },
        {
          "internalType": "uint256",
          "name": "amount",
          "type": "uint256"
        }
      ],
      "name": "transferFrom",
      "outputs": [
        {
          "internalType": "bool",
          "name": "",
          "type": "bool"
        }
      ],
      "stateMutability": "nonpayable",
      "type": "function"
    },
    {
      "inputs": [
        {
          "internalType": "address",
          "name": "newOwner",
          "type": "address"
        }
      ],
      "name": "transferOwnership",
      "outputs": [],
      "stateMutability": "nonpayable",
      "type": "function"
    },
    {
      "inputs": [],
      "name": "unlock",
      "outputs": [],
      "stateMutability": "nonpayable",
      "type": "function"
    }
  ],
  "bytecode": "0x60806040526001600560006101000a81548160ff0219169083151502179055506000600760006101000a81548160ff0219169083151502179055503480156200004757600080fd5b50604051620028773803806200287783398181016040528101906200006d919062000532565b60006200007f6200020560201b60201c565b9050806000806101000a81548173ffffffffffffffffffffffffffffffffffffffff021916908373ffffffffffffffffffffffffffffffffffffffff1602179055508073ffffffffffffffffffffffffffffffffffffffff16600073ffffffffffffffffffffffffffffffffffffffff167f8be0079c531659141344cd1fd0a4f28419497f9722a3daafe3b4186f6b6457e060405160405180910390a350836008908051906020019062000135929190620003cb565b5082600990805190602001906200014e929190620003cb565b5081600a60006101000a81548160ff021916908360ff16021790555084600a60016101000a81548173ffffffffffffffffffffffffffffffffffffffff021916908373ffffffffffffffffffffffffffffffffffffffff160217905550620001df600a60019054906101000a900473ffffffffffffffffffffffffffffffffffffffff16826200020d60201b60201c565b6001600760006101000a81548160ff02191690831515021790555050505050506200099e565b600033905090565b600760009054906101000a900460ff161562000260576040517f08c379a0000000000000000000000000000000000000000000000000000000008152600401620002579062000645565b60405180910390fd5b600073ffffffffffffffffffffffffffffffffffffffff168273ffffffffffffffffffffffffffffffffffffffff161415620002d3576040517f08c379a0000000000000000000000000000000000000000000000000000000008152600401620002ca9062000667565b60405180910390fd5b620002e760008383620003c660201b60201c565b8060066000828254620002fb919062000716565b9250508190555080600360008473ffffffffffffffffffffffffffffffffffffffff1673ffffffffffffffffffffffffffffffffffffffff168152602001908152602001600020600082825462000353919062000716565b925050819055508173ffffffffffffffffffffffffffffffffffffffff16600073ffffffffffffffffffffffffffffffffffffffff167fddf252ad1be2c89b69c2b068fc378daa952ba7f163c4a11628f55a4df523b3ef83604051620003ba919062000689565b60405180910390a35050565b505050565b828054620003d990620007f4565b90600052602060002090601f016020900481019282620003fd576000855562000449565b82601f106200041857805160ff191683800117855562000449565b8280016001018555821562000449579182015b82811115620004485782518255916020019190600101906200042b565b5b5090506200045891906200045c565b5090565b5b80821115620004775760008160009055506001016200045d565b5090565b6000620004926200048c84620006cf565b620006a6565b905082815260208101848484011115620004ab57600080fd5b620004b8848285620007be565b509392505050565b600081519050620004d18162000950565b92915050565b600082601f830112620004e957600080fd5b8151620004fb8482602086016200047b565b91505092915050565b60008151905062000515816200096a565b92915050565b6000815190506200052c8162000984565b92915050565b600080600080600060a086880312156200054b57600080fd5b60006200055b88828901620004c0565b955050602086015167ffffffffffffffff8111156200057957600080fd5b6200058788828901620004d7565b945050604086015167ffffffffffffffff811115620005a557600080fd5b620005b388828901620004d7565b9350506060620005c6888289016200051b565b9250506080620005d98882890162000504565b9150509295509295909350565b6000620005f560178362000705565b91506200060282620008fe565b602082019050919050565b60006200061c601f8362000705565b9150620006298262000927565b602082019050919050565b6200063f81620007a7565b82525050565b600060208201905081810360008301526200066081620005e6565b9050919050565b6000602082019050818103600083015262000682816200060d565b9050919050565b6000602082019050620006a0600083018462000634565b92915050565b6000620006b2620006c5565b9050620006c082826200082a565b919050565b6000604051905090565b600067ffffffffffffffff821115620006ed57620006ec620008be565b5b620006f882620008ed565b9050602081019050919050565b600082825260208201905092915050565b60006200072382620007a7565b91506200073083620007a7565b9250827fffffffffffffffffffffffffffffffffffffffffffffffffffffffffffffffff0382111562000768576200076762000860565b5b828201905092915050565b6000620007808262000787565b9050919050565b600073ffffffffffffffffffffffffffffffffffffffff82169050919050565b6000819050919050565b600060ff82169050919050565b60005b83811015620007de578082015181840152602081019050620007c1565b83811115620007ee576000848401525b50505050565b600060028204905060018216806200080d57607f821691505b602082108114156200082457620008236200088f565b5b50919050565b6200083582620008ed565b810181811067ffffffffffffffff82111715620008575762000856620008be565b5b80604052505050565b7f4e487b7100000000000000000000000000000000000000000000000000000000600052601160045260246000fd5b7f4e487b7100000000000000000000000000000000000000000000000000000000600052602260045260246000fd5b7f4e487b7100000000000000000000000000000000000000000000000000000000600052604160045260246000fd5b6000601f19601f8301169050919050565b7f63616e74206265206d696e74656420616e796d6f726521000000000000000000600082015250565b7f45524332303a206d696e7420746f20746865207a65726f206164647265737300600082015250565b6200095b8162000773565b81146200096757600080fd5b50565b6200097581620007a7565b81146200098157600080fd5b50565b6200098f81620007b1565b81146200099b57600080fd5b50565b611ec980620009ae6000396000f3fe608060405234801561001057600080fd5b506004361061012c5760003560e01c806395d89b41116100ad578063bc8bde6411610071578063bc8bde6414610337578063dd46706414610355578063dd62ed3e14610371578063f2fde38b146103a1578063f5eae936146103bd5761012c565b806395d89b4114610291578063a457c2d7146102af578063a69df4b5146102df578063a9059cbb146102e9578063b6c52324146103195761012c565b806339509351116100f457806339509351146101eb57806370a082311461021b578063715018a61461024b578063787b1191146102555780638da5cb5b146102735761012c565b806306fdde0314610131578063095ea7b31461014f57806318160ddd1461017f57806323b872dd1461019d578063313ce567146101cd575b600080fd5b6101396103db565b60405161014691906117c5565b60405180910390f35b61016960048036038101906101649190611534565b61046d565b60405161017691906117aa565b60405180910390f35b61018761048b565b6040516101949190611947565b60405180910390f35b6101b760048036038101906101b291906114e5565b610495565b6040516101c491906117aa565b60405180910390f35b6101d5610596565b6040516101e29190611962565b60405180910390f35b61020560048036038101906102009190611534565b6105ad565b60405161021291906117aa565b60405180910390f35b61023560048036038101906102309190611480565b610659565b6040516102429190611947565b60405180910390f35b6102536106a2565b005b61025d6107f5565b60405161026a91906117aa565b60405180910390f35b61027b610808565b604051610288919061178f565b60405180910390f35b610299610831565b6040516102a691906117c5565b60405180910390f35b6102c960048036038101906102c49190611534565b6108c3565b6040516102d691906117aa565b60405180910390f35b6102e76109b7565b005b61030360048036038101906102fe9190611534565b610b8b565b60405161031091906117aa565b60405180910390f35b610321610ba9565b60405161032e9190611947565b60405180910390f35b61033f610bb3565b60405161034c919061178f565b60405180910390f35b61036f600480360381019061036a9190611570565b610bd9565b005b61038b600480360381019061038691906114a9565b610da0565b6040516103989190611947565b60405180910390f35b6103bb60048036038101906103b69190611480565b610e27565b005b6103c5610fe9565b6040516103d291906117aa565b60405180910390f35b6060600880546103ea90611aab565b80601f016020809104026020016040519081016040528092919081815260200182805461041690611aab565b80156104635780601f1061043857610100808354040283529160200191610463565b820191906000526020600020905b81548152906001019060200180831161044657829003601f168201915b5050505050905090565b600061048161047a610ffc565b8484611004565b6001905092915050565b6000600654905090565b60006104a28484846111cf565b6000600460008673ffffffffffffffffffffffffffffffffffffffff1673ffffffffffffffffffffffffffffffffffffffff16815260200190815260200160002060006104ed610ffc565b73ffffffffffffffffffffffffffffffffffffffff1673ffffffffffffffffffffffffffffffffffffffff1681526020019081526020016000205490508281101561056d576040517f08c379a000000000000000000000000000000000000000000000000000000000815260040161056490611867565b60405180910390fd5b61058a85610579610ffc565b858461058591906119ef565b611004565b60019150509392505050565b6000600a60009054906101000a900460ff16905090565b600061064f6105ba610ffc565b8484600460006105c8610ffc565b73ffffffffffffffffffffffffffffffffffffffff1673ffffffffffffffffffffffffffffffffffffffff16815260200190815260200160002060008873ffffffffffffffffffffffffffffffffffffffff1673ffffffffffffffffffffffffffffffffffffffff1681526020019081526020016000205461064a9190611999565b611004565b6001905092915050565b6000600360008373ffffffffffffffffffffffffffffffffffffffff1673ffffffffffffffffffffffffffffffffffffffff168152602001908152602001600020549050919050565b6106aa610ffc565b73ffffffffffffffffffffffffffffffffffffffff1660008054906101000a900473ffffffffffffffffffffffffffffffffffffffff1673ffffffffffffffffffffffffffffffffffffffff1614610737576040517f08c379a000000000000000000000000000000000000000000000000000000000815260040161072e90611887565b60405180910390fd5b600073ffffffffffffffffffffffffffffffffffffffff1660008054906101000a900473ffffffffffffffffffffffffffffffffffffffff1673ffffffffffffffffffffffffffffffffffffffff167f8be0079c531659141344cd1fd0a4f28419497f9722a3daafe3b4186f6b6457e060405160405180910390a360008060006101000a81548173ffffffffffffffffffffffffffffffffffffffff021916908373ffffffffffffffffffffffffffffffffffffffff160217905550565b600560009054906101000a900460ff1681565b60008060009054906101000a900473ffffffffffffffffffffffffffffffffffffffff16905090565b60606009805461084090611aab565b80601f016020809104026020016040519081016040528092919081815260200182805461086c90611aab565b80156108b95780601f1061088e576101008083540402835291602001916108b9565b820191906000526020600020905b81548152906001019060200180831161089c57829003601f168201915b5050505050905090565b600080600460006108d2610ffc565b73ffffffffffffffffffffffffffffffffffffffff1673ffffffffffffffffffffffffffffffffffffffff16815260200190815260200160002060008573ffffffffffffffffffffffffffffffffffffffff1673ffffffffffffffffffffffffffffffffffffffff1681526020019081526020016000205490508281101561098f576040517f08c379a000000000000000000000000000000000000000000000000000000000815260040161098690611927565b60405180910390fd5b6109ac61099a610ffc565b8585846109a791906119ef565b611004565b600191505092915050565b3373ffffffffffffffffffffffffffffffffffffffff16600160009054906101000a900473ffffffffffffffffffffffffffffffffffffffff1673ffffffffffffffffffffffffffffffffffffffff1614610a47576040517f08c379a0000000000000000000000000000000000000000000000000000000008152600401610a3e90611907565b60405180910390fd5b6002544211610a8b576040517f08c379a0000000000000000000000000000000000000000000000000000000008152600401610a82906118e7565b60405180910390fd5b600160009054906101000a900473ffffffffffffffffffffffffffffffffffffffff1673ffffffffffffffffffffffffffffffffffffffff1660008054906101000a900473ffffffffffffffffffffffffffffffffffffffff1673ffffffffffffffffffffffffffffffffffffffff167f8be0079c531659141344cd1fd0a4f28419497f9722a3daafe3b4186f6b6457e060405160405180910390a3600160009054906101000a900473ffffffffffffffffffffffffffffffffffffffff166000806101000a81548173ffffffffffffffffffffffffffffffffffffffff021916908373ffffffffffffffffffffffffffffffffffffffff160217905550565b6000610b9f610b98610ffc565b84846111cf565b6001905092915050565b6000600254905090565b600a60019054906101000a900473ffffffffffffffffffffffffffffffffffffffff1681565b610be1610ffc565b73ffffffffffffffffffffffffffffffffffffffff1660008054906101000a900473ffffffffffffffffffffffffffffffffffffffff1673ffffffffffffffffffffffffffffffffffffffff1614610c6e576040517f08c379a0000000000000000000000000000000000000000000000000000000008152600401610c6590611887565b60405180910390fd5b60008054906101000a900473ffffffffffffffffffffffffffffffffffffffff16600160006101000a81548173ffffffffffffffffffffffffffffffffffffffff021916908373ffffffffffffffffffffffffffffffffffffffff16021790555060008060006101000a81548173ffffffffffffffffffffffffffffffffffffffff021916908373ffffffffffffffffffffffffffffffffffffffff1602179055508042610d1c9190611999565b600281905550600073ffffffffffffffffffffffffffffffffffffffff1660008054906101000a900473ffffffffffffffffffffffffffffffffffffffff1673ffffffffffffffffffffffffffffffffffffffff167f8be0079c531659141344cd1fd0a4f28419497f9722a3daafe3b4186f6b6457e060405160405180910390a350565b6000600460008473ffffffffffffffffffffffffffffffffffffffff1673ffffffffffffffffffffffffffffffffffffffff16815260200190815260200160002060008373ffffffffffffffffffffffffffffffffffffffff1673ffffffffffffffffffffffffffffffffffffffff16815260200190815260200160002054905092915050565b610e2f610ffc565b73ffffffffffffffffffffffffffffffffffffffff1660008054906101000a900473ffffffffffffffffffffffffffffffffffffffff1673ffffffffffffffffffffffffffffffffffffffff1614610ebc576040517f08c379a0000000000000000000000000000000000000000000000000000000008152600401610eb390611887565b60405180910390fd5b600073ffffffffffffffffffffffffffffffffffffffff168173ffffffffffffffffffffffffffffffffffffffff161415610f2c576040517f08c379a0000000000000000000000000000000000000000000000000000000008152600401610f2390611807565b60405180910390fd5b8073ffffffffffffffffffffffffffffffffffffffff1660008054906101000a900473ffffffffffffffffffffffffffffffffffffffff1673ffffffffffffffffffffffffffffffffffffffff167f8be0079c531659141344cd1fd0a4f28419497f9722a3daafe3b4186f6b6457e060405160405180910390a3806000806101000a81548173ffffffffffffffffffffffffffffffffffffffff021916908373ffffffffffffffffffffffffffffffffffffffff16021790555050565b600760009054906101000a900460ff1681565b600033905090565b600073ffffffffffffffffffffffffffffffffffffffff168373ffffffffffffffffffffffffffffffffffffffff161415611074576040517f08c379a000000000000000000000000000000000000000000000000000000000815260040161106b906118c7565b60405180910390fd5b600073ffffffffffffffffffffffffffffffffffffffff168273ffffffffffffffffffffffffffffffffffffffff1614156110e4576040517f08c379a00000000000000000000000000000000000000000000000000000000081526004016110db90611827565b60405180910390fd5b80600460008573ffffffffffffffffffffffffffffffffffffffff1673ffffffffffffffffffffffffffffffffffffffff16815260200190815260200160002060008473ffffffffffffffffffffffffffffffffffffffff1673ffffffffffffffffffffffffffffffffffffffff168152602001908152602001600020819055508173ffffffffffffffffffffffffffffffffffffffff168373ffffffffffffffffffffffffffffffffffffffff167f8c5be1e5ebec7d5bd14f71427d1e84f3dd0314c0f7b2291e5b200ac8c7c3b925836040516111c29190611947565b60405180910390a3505050565b600073ffffffffffffffffffffffffffffffffffffffff168373ffffffffffffffffffffffffffffffffffffffff16141561123f576040517f08c379a0000000000000000000000000000000000000000000000000000000008152600401611236906118a7565b60405180910390fd5b600073ffffffffffffffffffffffffffffffffffffffff168273ffffffffffffffffffffffffffffffffffffffff1614156112af576040517f08c379a00000000000000000000000000000000000000000000000000000000081526004016112a6906117e7565b60405180910390fd5b6112ba838383611451565b6000600360008573ffffffffffffffffffffffffffffffffffffffff1673ffffffffffffffffffffffffffffffffffffffff16815260200190815260200160002054905081811015611341576040517f08c379a000000000000000000000000000000000000000000000000000000000815260040161133890611847565b60405180910390fd5b818161134d91906119ef565b600360008673ffffffffffffffffffffffffffffffffffffffff1673ffffffffffffffffffffffffffffffffffffffff1681526020019081526020016000208190555081600360008573ffffffffffffffffffffffffffffffffffffffff1673ffffffffffffffffffffffffffffffffffffffff16815260200190815260200160002060008282546113df9190611999565b925050819055508273ffffffffffffffffffffffffffffffffffffffff168473ffffffffffffffffffffffffffffffffffffffff167fddf252ad1be2c89b69c2b068fc378daa952ba7f163c4a11628f55a4df523b3ef846040516114439190611947565b60405180910390a350505050565b505050565b60008135905061146581611e65565b92915050565b60008135905061147a81611e7c565b92915050565b60006020828403121561149257600080fd5b60006114a084828501611456565b91505092915050565b600080604083850312156114bc57600080fd5b60006114ca85828601611456565b92505060206114db85828601611456565b9150509250929050565b6000806000606084860312156114fa57600080fd5b600061150886828701611456565b935050602061151986828701611456565b925050604061152a8682870161146b565b9150509250925092565b6000806040838503121561154757600080fd5b600061155585828601611456565b92505060206115668582860161146b565b9150509250929050565b60006020828403121561158257600080fd5b60006115908482850161146b565b91505092915050565b6115a281611a23565b82525050565b6115b181611a35565b82525050565b60006115c28261197d565b6115cc8185611988565b93506115dc818560208601611a78565b6115e581611b3b565b840191505092915050565b60006115fd602383611988565b915061160882611b4c565b604082019050919050565b6000611620602683611988565b915061162b82611b9b565b604082019050919050565b6000611643602283611988565b915061164e82611bea565b604082019050919050565b6000611666602683611988565b915061167182611c39565b604082019050919050565b6000611689602883611988565b915061169482611c88565b604082019050919050565b60006116ac602083611988565b91506116b782611cd7565b602082019050919050565b60006116cf602583611988565b91506116da82611d00565b604082019050919050565b60006116f2602483611988565b91506116fd82611d4f565b604082019050919050565b6000611715601f83611988565b915061172082611d9e565b602082019050919050565b6000611738602383611988565b915061174382611dc7565b604082019050919050565b600061175b602583611988565b915061176682611e16565b604082019050919050565b61177a81611a61565b82525050565b61178981611a6b565b82525050565b60006020820190506117a46000830184611599565b92915050565b60006020820190506117bf60008301846115a8565b92915050565b600060208201905081810360008301526117df81846115b7565b905092915050565b60006020820190508181036000830152611800816115f0565b9050919050565b6000602082019050818103600083015261182081611613565b9050919050565b6000602082019050818103600083015261184081611636565b9050919050565b6000602082019050818103600083015261186081611659565b9050919050565b600060208201905081810360008301526118808161167c565b9050919050565b600060208201905081810360008301526118a08161169f565b9050919050565b600060208201905081810360008301526118c0816116c2565b9050919050565b600060208201905081810360008301526118e0816116e5565b9050919050565b6000602082019050818103600083015261190081611708565b9050919050565b600060208201905081810360008301526119208161172b565b9050919050565b600060208201905081810360008301526119408161174e565b9050919050565b600060208201905061195c6000830184611771565b92915050565b60006020820190506119776000830184611780565b92915050565b600081519050919050565b600082825260208201905092915050565b60006119a482611a61565b91506119af83611a61565b9250827fffffffffffffffffffffffffffffffffffffffffffffffffffffffffffffffff038211156119e4576119e3611add565b5b828201905092915050565b60006119fa82611a61565b9150611a0583611a61565b925082821015611a1857611a17611add565b5b828203905092915050565b6000611a2e82611a41565b9050919050565b60008115159050919050565b600073ffffffffffffffffffffffffffffffffffffffff82169050919050565b6000819050919050565b600060ff82169050919050565b60005b83811015611a96578082015181840152602081019050611a7b565b83811115611aa5576000848401525b50505050565b60006002820490506001821680611ac357607f821691505b60208210811415611ad757611ad6611b0c565b5b50919050565b7f4e487b7100000000000000000000000000000000000000000000000000000000600052601160045260246000fd5b7f4e487b7100000000000000000000000000000000000000000000000000000000600052602260045260246000fd5b6000601f19601f8301169050919050565b7f45524332303a207472616e7366657220746f20746865207a65726f206164647260008201527f6573730000000000000000000000000000000000000000000000000000000000602082015250565b7f4f776e61626c653a206e6577206f776e657220697320746865207a65726f206160008201527f6464726573730000000000000000000000000000000000000000000000000000602082015250565b7f45524332303a20617070726f766520746f20746865207a65726f20616464726560008201527f7373000000000000000000000000000000000000000000000000000000000000602082015250565b7f45524332303a207472616e7366657220616d6f756e742065786365656473206260008201527f616c616e63650000000000000000000000000000000000000000000000000000602082015250565b7f45524332303a207472616e7366657220616d6f756e742065786365656473206160008201527f6c6c6f77616e6365000000000000000000000000000000000000000000000000602082015250565b7f4f776e61626c653a2063616c6c6572206973206e6f7420746865206f776e6572600082015250565b7f45524332303a207472616e736665722066726f6d20746865207a65726f20616460008201527f6472657373000000000000000000000000000000000000000000000000000000602082015250565b7f45524332303a20617070726f76652066726f6d20746865207a65726f2061646460008201527f7265737300000000000000000000000000000000000000000000000000000000602082015250565b7f436f6e7472616374206973206c6f636b656420756e74696c2037206461797300600082015250565b7f596f7520646f6e27742068617665207065726d697373696f6e20746f20756e6c60008201527f6f636b0000000000000000000000000000000000000000000000000000000000602082015250565b7f45524332303a2064656372656173656420616c6c6f77616e63652062656c6f7760008201527f207a65726f000000000000000000000000000000000000000000000000000000602082015250565b611e6e81611a23565b8114611e7957600080fd5b50565b611e8581611a61565b8114611e9057600080fd5b5056fea2646970667358221220b86d0819c4e057fb6f30f23c37f6be72669f0b7dd6ccbb609dfffe503bf5d0a764736f6c63430008040033",
  "linkReferences": {},
  "deployedLinkReferences": {}
}