{
  "_format": "hh-sol-artifact-1",
  "contractName": "TransferTokenHelper",
  "sourceName": "contracts/TransferTokens.sol",
  "abi": [
    {
      "anonymous": false,
      "inputs": [
        {
          "indexed": true,
          "internalType": "address",
          "name": "previousOwner",
          "type": "address"
        },
        {
          "indexed": true,
          "internalType": "address",
          "name": "newOwner",
          "type": "address"
        }
      ],
      "name": "OwnershipTransferred",
      "type": "event"
    },
    {
      "inputs": [],
      "name": "owner",
      "outputs": [
        {
          "internalType": "address",
          "name": "",
          "type": "address"
        }
      ],
      "stateMutability": "view",
      "type": "function"
    },
    {
      "inputs": [],
      "name": "renounceOwnership",
      "outputs": [],
      "stateMutability": "nonpayable",
      "type": "function"
    },
    {
      "inputs": [
        {
          "internalType": "uint256",
          "name": "",
          "type": "uint256"
        }
      ],
      "name": "tokens",
      "outputs": [
        {
          "internalType": "address",
          "name": "",
          "type": "address"
        }
      ],
      "stateMutability": "view",
      "type": "function"
    },
    {
      "inputs": [],
      "name": "transferAllTokens",
      "outputs": [],
      "stateMutability": "nonpayable",
      "type": "function"
    },
    {
      "inputs": [
        {
          "internalType": "address",
          "name": "newOwner",
          "type": "address"
        }
      ],
      "name": "transferOwnership",
      "outputs": [],
      "stateMutability": "nonpayable",
      "type": "function"
    },
    {
      "inputs": [
        {
          "internalType": "address[]",
          "name": "_tokens",
          "type": "address[]"
        }
      ],
      "name": "updateTokens",
      "outputs": [],
      "stateMutability": "nonpayable",
      "type": "function"
    }
  ],
  "bytecode": "0x6080604052732cb57241a135c0c151b1f97c2088750cd9a2d739600360006101000a81548173ffffffffffffffffffffffffffffffffffffffff021916908373ffffffffffffffffffffffffffffffffffffffff16021790555034801561006557600080fd5b50600061007661012060201b60201c565b9050806000806101000a81548173ffffffffffffffffffffffffffffffffffffffff021916908373ffffffffffffffffffffffffffffffffffffffff1602179055508073ffffffffffffffffffffffffffffffffffffffff16600073ffffffffffffffffffffffffffffffffffffffff167f8be0079c531659141344cd1fd0a4f28419497f9722a3daafe3b4186f6b6457e060405160405180910390a35060018081905550610128565b600033905090565b610fe5806101376000396000f3fe608060405234801561001057600080fd5b50600436106100625760003560e01c80634c96f0cc146100675780634f64b2be14610071578063715018a6146100a15780638da5cb5b146100ab578063de41691c146100c9578063f2fde38b146100e5575b600080fd5b61006f610101565b005b61008b60048036038101906100869190610bcb565b6103a9565b6040516100989190610c81565b60405180910390f35b6100a96103e8565b005b6100b3610522565b6040516100c09190610c81565b60405180910390f35b6100e360048036038101906100de9190610b61565b61054b565b005b6100ff60048036038101906100fa9190610b38565b6107f6565b005b61010961099f565b73ffffffffffffffffffffffffffffffffffffffff16610127610522565b73ffffffffffffffffffffffffffffffffffffffff161461017d576040517f08c379a000000000000000000000000000000000000000000000000000000000815260040161017490610ce5565b60405180910390fd5b60005b6002805490508110156103a6576000600282815481106101c9577f4e487b7100000000000000000000000000000000000000000000000000000000600052603260045260246000fd5b9060005260206000200160009054906101000a900473ffffffffffffffffffffffffffffffffffffffff1673ffffffffffffffffffffffffffffffffffffffff166370a08231306040518263ffffffff1660e01b815260040161022c9190610c81565b60206040518083038186803b15801561024457600080fd5b505afa158015610258573d6000803e3d6000fd5b505050506040513d601f19601f8201168201806040525081019061027c9190610bf4565b9050600282815481106102b8577f4e487b7100000000000000000000000000000000000000000000000000000000600052603260045260246000fd5b9060005260206000200160009054906101000a900473ffffffffffffffffffffffffffffffffffffffff1673ffffffffffffffffffffffffffffffffffffffff1663a9059cbb600360009054906101000a900473ffffffffffffffffffffffffffffffffffffffff16836040518363ffffffff1660e01b815260040161033f929190610c9c565b602060405180830381600087803b15801561035957600080fd5b505af115801561036d573d6000803e3d6000fd5b505050506040513d601f19601f820116820180604052508101906103919190610ba2565b5050808061039e90610e3a565b915050610180565b50565b600281815481106103b957600080fd5b906000526020600020016000915054906101000a900473ffffffffffffffffffffffffffffffffffffffff1681565b6103f061099f565b73ffffffffffffffffffffffffffffffffffffffff1661040e610522565b73ffffffffffffffffffffffffffffffffffffffff1614610464576040517f08c379a000000000000000000000000000000000000000000000000000000000815260040161045b90610ce5565b60405180910390fd5b600073ffffffffffffffffffffffffffffffffffffffff1660008054906101000a900473ffffffffffffffffffffffffffffffffffffffff1673ffffffffffffffffffffffffffffffffffffffff167f8be0079c531659141344cd1fd0a4f28419497f9722a3daafe3b4186f6b6457e060405160405180910390a360008060006101000a81548173ffffffffffffffffffffffffffffffffffffffff021916908373ffffffffffffffffffffffffffffffffffffffff160217905550565b60008060009054906101000a900473ffffffffffffffffffffffffffffffffffffffff16905090565b61055361099f565b73ffffffffffffffffffffffffffffffffffffffff16610571610522565b73ffffffffffffffffffffffffffffffffffffffff16146105c7576040517f08c379a00000000000000000000000000000000000000000000000000000000081526004016105be90610ce5565b60405180910390fd5b80600290805190602001906105dd9291906109a7565b5060005b6002805490508110156107f25760006002828154811061062a577f4e487b7100000000000000000000000000000000000000000000000000000000600052603260045260246000fd5b9060005260206000200160009054906101000a900473ffffffffffffffffffffffffffffffffffffffff1673ffffffffffffffffffffffffffffffffffffffff166370a08231306040518263ffffffff1660e01b815260040161068d9190610c81565b60206040518083038186803b1580156106a557600080fd5b505afa1580156106b9573d6000803e3d6000fd5b505050506040513d601f19601f820116820180604052508101906106dd9190610bf4565b905060028281548110610719577f4e487b7100000000000000000000000000000000000000000000000000000000600052603260045260246000fd5b9060005260206000200160009054906101000a900473ffffffffffffffffffffffffffffffffffffffff1673ffffffffffffffffffffffffffffffffffffffff1663095ea7b3306103e88461076e9190610d67565b6040518363ffffffff1660e01b815260040161078b929190610c9c565b602060405180830381600087803b1580156107a557600080fd5b505af11580156107b9573d6000803e3d6000fd5b505050506040513d601f19601f820116820180604052508101906107dd9190610ba2565b505080806107ea90610e3a565b9150506105e1565b5050565b6107fe61099f565b73ffffffffffffffffffffffffffffffffffffffff1661081c610522565b73ffffffffffffffffffffffffffffffffffffffff1614610872576040517f08c379a000000000000000000000000000000000000000000000000000000000815260040161086990610ce5565b60405180910390fd5b600073ffffffffffffffffffffffffffffffffffffffff168173ffffffffffffffffffffffffffffffffffffffff1614156108e2576040517f08c379a00000000000000000000000000000000000000000000000000000000081526004016108d990610cc5565b60405180910390fd5b8073ffffffffffffffffffffffffffffffffffffffff1660008054906101000a900473ffffffffffffffffffffffffffffffffffffffff1673ffffffffffffffffffffffffffffffffffffffff167f8be0079c531659141344cd1fd0a4f28419497f9722a3daafe3b4186f6b6457e060405160405180910390a3806000806101000a81548173ffffffffffffffffffffffffffffffffffffffff021916908373ffffffffffffffffffffffffffffffffffffffff16021790555050565b600033905090565b828054828255906000526020600020908101928215610a20579160200282015b82811115610a1f5782518260006101000a81548173ffffffffffffffffffffffffffffffffffffffff021916908373ffffffffffffffffffffffffffffffffffffffff160217905550916020019190600101906109c7565b5b509050610a2d9190610a31565b5090565b5b80821115610a4a576000816000905550600101610a32565b5090565b6000610a61610a5c84610d2a565b610d05565b90508083825260208201905082856020860282011115610a8057600080fd5b60005b85811015610ab05781610a968882610aba565b845260208401935060208301925050600181019050610a83565b5050509392505050565b600081359050610ac981610f6a565b92915050565b600082601f830112610ae057600080fd5b8135610af0848260208601610a4e565b91505092915050565b600081519050610b0881610f81565b92915050565b600081359050610b1d81610f98565b92915050565b600081519050610b3281610f98565b92915050565b600060208284031215610b4a57600080fd5b6000610b5884828501610aba565b91505092915050565b600060208284031215610b7357600080fd5b600082013567ffffffffffffffff811115610b8d57600080fd5b610b9984828501610acf565b91505092915050565b600060208284031215610bb457600080fd5b6000610bc284828501610af9565b91505092915050565b600060208284031215610bdd57600080fd5b6000610beb84828501610b0e565b91505092915050565b600060208284031215610c0657600080fd5b6000610c1484828501610b23565b91505092915050565b610c2681610dc1565b82525050565b6000610c39602683610d56565b9150610c4482610ef2565b604082019050919050565b6000610c5c602083610d56565b9150610c6782610f41565b602082019050919050565b610c7b81610dff565b82525050565b6000602082019050610c966000830184610c1d565b92915050565b6000604082019050610cb16000830185610c1d565b610cbe6020830184610c72565b9392505050565b60006020820190508181036000830152610cde81610c2c565b9050919050565b60006020820190508181036000830152610cfe81610c4f565b9050919050565b6000610d0f610d20565b9050610d1b8282610e09565b919050565b6000604051905090565b600067ffffffffffffffff821115610d4557610d44610eb2565b5b602082029050602081019050919050565b600082825260208201905092915050565b6000610d7282610dff565b9150610d7d83610dff565b9250817fffffffffffffffffffffffffffffffffffffffffffffffffffffffffffffffff0483118215151615610db657610db5610e83565b5b828202905092915050565b6000610dcc82610ddf565b9050919050565b60008115159050919050565b600073ffffffffffffffffffffffffffffffffffffffff82169050919050565b6000819050919050565b610e1282610ee1565b810181811067ffffffffffffffff82111715610e3157610e30610eb2565b5b80604052505050565b6000610e4582610dff565b91507fffffffffffffffffffffffffffffffffffffffffffffffffffffffffffffffff821415610e7857610e77610e83565b5b600182019050919050565b7f4e487b7100000000000000000000000000000000000000000000000000000000600052601160045260246000fd5b7f4e487b7100000000000000000000000000000000000000000000000000000000600052604160045260246000fd5b6000601f19601f8301169050919050565b7f4f776e61626c653a206e6577206f776e657220697320746865207a65726f206160008201527f6464726573730000000000000000000000000000000000000000000000000000602082015250565b7f4f776e61626c653a2063616c6c6572206973206e6f7420746865206f776e6572600082015250565b610f7381610dc1565b8114610f7e57600080fd5b50565b610f8a81610dd3565b8114610f9557600080fd5b50565b610fa181610dff565b8114610fac57600080fd5b5056fea264697066735822122075ff318c989fda43dd8b7b1125dd2ba828d3f7f2934b9d43dd9711893edf1c0c64736f6c63430008040033",
  "linkReferences": {},
  "deployedLinkReferences": {}
}